:020000040800F2
:10000000C0100020F1100008392A0008C5100008AF
:10001000C5100008C5100008C51000080000000049
:10002000000000000000000000000000D90D0008E2
:10003000C510000800000000850D0008D51A000852
:10004000890E0008890E0008890E0008890E000834
:10005000890E0008890E0008890E0008890E000824
:10006000890E0008890E0008890E0008890E000814
:10007000890E0008890E0008890E0008890E000804
:10008000890E0008890E0008890E0008890E0008F4
:10009000890E0008890E0008890E0008890E0008E4
:1000A000890E0008890E0008890E0008890E0008D4
:1000B000890E0008890E0008890E0008890E0008C4
:1000C000890E0008890E0008890E0008890E0008B4
:1000D000890E0008890E0008890E0008890E0008A4
:1000E000890E0008890E0008890E0008890E000894
:1000F000890E0008890E0008890E0008890E000884
:10010000890E0008890E0008890E0008890E000873
:10011000890E0008890E0008890E0008890E000863
:10012000890E0008890E0008890E0008890E000853
:10013000890E0008890E0008890E0008890E000843
:10014000890E0008890E0008890E0008890E000833
:10015000890E0008890E0008890E0008890E000823
:10016000890E0008890E0008890E0008890E000813
:10017000890E0008890E0008890E0008890E000803
:10018000890E0008890E0008890E0008890E0008F3
:08019000890E0008890E000829
:1001980053B94AB9002908BF00281CBF4FF0FF31E6
:1001A8004FF0FF3000F00CB8ADF1080C6DE904CE4B
:1001B80000F008F8DDF804E0DDE9022304B0704738
:1001C800704700BF2DE9F04786468C460846089ED2
:1001D800154674461946002B40F0C2808542B2FA93
:1001E80082F245D94AB1C2F1200300FA02FC2EFA84
:1001F80003F3954043EA0C0C94404FEA154EA8B21D
:10020800BCFBFEF8230C0EFB18CC08FB00F943EAF4
:100218000C43994528D9EB1808F1FF3704D29945C2
:1002280002D9A8F102072B44A3EB0903A4B2B3FB3C
:10023800FEFC0EFB1C330CFB00F044EA0344A04216
:1002480014D92C190CF1FF3304D2A04202D9ACF115
:1002580002032C44241A43EA07401EB1D440002369
:1002680034607360BDE8F0874746DDE76346F1E731
:1002780092BB431B01214FEA154EAFB2B3FBFEFC04
:10028800200C0EFB1C330CFB07F840EA034398458F
:1002980062D9EB180CF1FF3004D2984502D9ACF1C1
:1002A80002002B44A3EB0803A4B2B3FBFEFC0EFB35
:1002B8001C330CFB07F744EA0344A7424ED92C1918
:1002C8000CF1FF3304D2A74202D9ACF102032C444B
:1002D800E41B43EA0040C0E7C2F1200320FA03F11F
:1002E800954090402EFA03F303434FEA154EAFB200
:1002F800B1FBFEFC0EFB1C10190C0CFB07F841EAC5
:100308000041884504FA02F422D969180CF1FF303B
:1003180004D2884502D9ACF102002944A1EB0801B6
:100328009BB2B1FBFEFC0EFB1C110CFB07F743EA6A
:1003380001439F420ED9EB180CF1FF3104D29F42C2
:1003480002D9ACF102012B44DB1B41EA004192E7E0
:100358006046E3E76146F7E76046A3E76346B7E729
:10036800834206D916B9002108467BE7C6E900E0B2
:10037800F9E7B3FA83F78FB9834201D3724508D8F6
:10038800BEEB020460EB030301209C461EB900216A
:1003980068E73846FAE7C6E9004CF8E7C7F1200CE9
:1003A800BB4022FA0CF41C432EFA0CF120FA0CF391
:1003B800B84001434FEA14490EFA07F5B3FBF9F8C0
:1003C8001FFA84FE09FB18300B0C08FB0EFA43EAEF
:1003D80000439A4502FA07F240D9E31808F1FF30C2
:1003E80004D29A4502D9A8F102002344A3EB0A03D8
:1003F80089B2B3FBF9F809FB183308FB0EFE41EA92
:1004080003418E452CD9611808F1FF3304D28E457B
:1004180002D9A8F10203214443EA0040A0FB029854
:10042800A1EB0E014145CE46434602D306D14D45C8
:1004380004D2B9EB020E68EB04030138002EA6D0F3
:10044800B5EB0E0261EB030101FA0CFC22FA07F38B
:100458004CEA0303F940C6E9003198E74046C5E78E
:100468004346D9E738B5104C204602F0D2FED0B149
:100478002269A568136823F4005313602B684FF4AE
:1004880020220D212046984700280CDB4FF400510C
:100498006B6920469847002805DB002142F210705E
:1004A80002F064F8F2E738BDD8340008014B1B6845
:1004B800184700BF00000020014B1860704700BFBC
:1004C8000000002007B50B460021024600910348B2
:1004D80000F006F803B05DF804FB00BFB50400089F
:1004E8002DE9F04F814695B08B4617461C460025EE
:1004F800387808B9284658E37B1C2528039306D08A
:100508005946C8470028C0F250830135FBE118223C
:1005180000210EA802F0AEFA7B78252B7DD00023AF
:10052800781C98469E469C461E46014610F8012BAC
:100538002B2A00F0A18000F29880202A00F09F80EA
:10054800232A00F09F802BB19DF8403043F04003F0
:100558008DF84030B8F1000F05D09DF8403043F0D9
:1005680020038DF84030BEF1000F05D09DF84030D3
:1005780043F010038DF84030BCF1000F05D09DF812
:10058800403043F008038DF840302EB19DF84030DC
:1005980043F004038DF840309DF8403003F04400E8
:1005A800442803D16FF386138DF840309DF840300E
:1005B8002A2A43F080038DF840307FD19DF84120EE
:1005C80042F001024B1C8DF841201A782E2A9DF822
:1005D80041200CBF0121002161F341028DF8412027
:1005E80078D15A782A2A6ED0013300224FF00A0CAB
:1005F800194611F8010BA0F13006092E40F295803A
:100608009DF840101292C1F3400040EAD2700A46A9
:1006180060F341028DF840205CE0BA1C03928DF82B
:1006280043309DF84130DA0740F12E8154F8048BAD
:10063800B8F1000F07DA9DF8402042F004028DF867
:100648004020C8F100085E0740F1278154F804AB48
:10065800BAF1000F80F226819DF841306FF3410313
:100668008DF841304FF0FF3A1CE12D2A0DD0302A89
:100678007FF469AF012358E74FF0010C55E74FF0BD
:10068800010E52E74FF001084FE701264DE70EFB38
:100698000262303A0346184610F8016BA6F1300C96
:1006A800BCF1090FF3D999428FD09DF840101192EF
:1006B800D20F62F341018DF8401086E70B46002205
:1006C8004FF00A0EE7E79DF8412042F004028DF84A
:1006D800412002331A786C2A47D02BD8682A31D0A7
:1006E8006A2A4BD04C2A51D01A4612F8013B039281
:1006F800782B9DF841208DF8433000F2BE806D2B99
:1007080051D8692B00F2B980572B67D8412B03D0F9
:10071800453B022B00F2B1809DF84230042262F37F
:1007280002038DF84230012373E00CFB0202303AD9
:100738000B465DE7742A25D07A2AD5D19DF8412049
:1007480006210CE05A78682A9DF8412006D101213B
:1007580061F3C6028DF841200233C5E7022161F337
:10076800C6028DF841200133BEE75A786C2A9DF8FD
:10077800412001D10421EBE70321F0E79DF8412056
:100788000521ECE79DF841200721E8E7BDF8402066
:1007980022F4F04222F0020242F4804242F00202C5
:1007A800ADF84020DFE76E3BD9B201238B4040F221
:1007B80082410B4237D113F0240F51D1D8075CD5B1
:1007C8009DF84230032161F302038DF8423002F0B4
:1007D8007803A3F140014B424B411AE0A3F15801C1
:1007E800C9B2012000FA01F111F4624F94D140F628
:1007F800010631421DD111F4043F3ED09DF842302C
:1008080060F3020302F07802402A8DF8423034D0B7
:1008180000239DF84020C2F340010B4363F34102DB
:100828008DF84020FDE69DF84230022161F3020375
:10083800E8E79DF84210022002F0780260F3020116
:10084800402A8DF8421002BF9DF8401041F0010186
:100858008DF84010632BDBD1131E18BF0123D8E796
:100868009DF84230032161F3020312F0780F8DF8EE
:10087800423014BF01230023CBE79DF8403043F0FA
:1008880001038DF84030C3E79DF94020002AB4BF2A
:10089800DDF844804FF0FF38D5E698077FF5E2AEE3
:1008A800DDF848A09DF841100023CDE911339DF8EB
:1008B800423003F00703012BC1F3C30133D1CB1E30
:1008C800042B04D8DFE803F02146462121002368E1
:1008D80001294FEAE372CDE90E321CD19DF9383077
:1008E800DA17CDE90E3204349DF8403013F00306D0
:1008F80050D0039B3A465946484602F075F80028FE
:10090800C0F253810544039FF2E554F8043BDA171B
:10091800CDE90E32E8E70229E5D11AB243F3C03334
:10092800CDE90E23DFE7022B24D1CB1E042B04D8FC
:10093800DFE803F0181010181800012954F8043BD8
:100948004FF0000214D00229CDE90E32CCD19BB26F
:100958000E93C9E7073424F00704F4E80223CDE92D
:100968000E23C1E754F8043B0E9300230F93BBE713
:10097800DBB2CDE7042B08D1073424F00704D4E90F
:1009880000230834CDE90E23AEE7032BACD154F88D
:10099800043BDDE79DF843007828B4D862281CD8CA
:1009A80025283FF4ADAD5828ADD10DF1360300939D
:1009B800DDE90E0108AB10AA01F0D0FFBAF1000F73
:1009C800074680F29A80002F9DD00DF13603D81B80
:1009D800002E00F0C1800130BEE06338152892D89F
:1009E80001A252F820F000BFC50A0008D70A000883
:1009F8000F0900080F0900080F0900080F0900086F
:100A0800D70A00080F0900080F0900080F09000895
:100A18000F090008650B0008FD0A0008230B0008F1
:100A28000F0900080F090008490A00080F09000803
:100A3800FD0A00080F0900080F090008FD0A000850
:100A4800BAF1000F0E9F35DB5146384601F0FEFF24
:100A580007EB000A002F3FF456AF00269DF84230FE
:100A680013F01002059200F0938002305B06119A91
:100A780048BF129B0492104448BFC018B8F1000F39
:100A880040F3A0809DF84020A8EB0008C2F3800343
:100A98005007069300F19680510640F189803EB1D7
:100AA80059463046C84700287FDB069B01351E465D
:100AB80030227EE0384601F0C2FFC9E70E9B8DF870
:100AC8002030002608AF0DF1210A0120C6E71907DA
:100AD8005CBFC3F300135E01DDE90E2348BF2B267C
:100AE800002BBFF662AF524263EB4303CDE90E23FE
:100AF8002D265AE7002658E700269DF840200DF1DC
:100B08003603DB1B6FF386129A458DF840207FF67B
:100B18005AAFAAEB0303119355E70E9890B30DF162
:100B28003603009310AA08AB002101F017FFBDF8A7
:100B3800423003F0EF0343F4F04343F01003BAF1FB
:100B4800000F0746ADF84230D6DA00283FF4DBAE96
:100B58000DF13603181A00269A467FE70E9B0729DF
:100B68003FF6D1AEDFE801F00C04060C08080C0CC7
:100B78001D70C8E61D80C6E6EA17C3E90052C2E642
:100B88001D60C0E62E4F064607F1050A052065E7F9
:100B98001A0748BF013069E707931046069259467D
:100BA800C8470028DDE9062304DA15B0BDE8F08F50
:100BB800202243461946002903F1FF33ECDC454463
:100BC8006D1A98462EB159463046C8470028ECDBC6
:100BD80001359DF84230DA0601D41B0705D5594680
:100BE8003020C8470028E0DB0135059B33B19DF86C
:100BF80043005946C8470028D7DB0135049E2E44D8
:100C080005E059463020C8470028CEDB0135731B64
:100C1800002BF6DC53463A465946484601F0E4FEB6
:100C28000028C2DB0544A844A8EB0503002B7FF786
:100C38006AAE59462020C8470028B6DB0135F3E7DD
:100C4800AB3A00080C4B1A6842F400721A601A6832
:100C580042F480621A604FF01002EFF3118382F3BE
:100C68001288BFF36F8F83F31188BFF36F8F034B25
:100C7800034A1A6000207047003C02403C000020F4
:100C88000024F400014910220A60704710ED00E0CA
:100C980072B6404080F31188BFF36F8FBFF34F8F58
:100CA80030BF62B6BFF36F8F704700BF40B20028F5
:100CB80007DB044A4109012300F01F00834042F882
:100CC8002130704700E100E040B20028A8BF00F1E1
:100CD800604001F10101B8BF064B4FEA0111ACBFFA
:100CE80000F5614000F00F00C9B2B4BF195480F894
:100CF8000013704714ED00E030BFFFF7FDBF00BFE1
:100D08000F4A08B50F4B22F07F029A60BFF34F8F4E
:100D1800BFF36F8FD3F8882022F47002C3F88820BD
:100D2800EFF3148323F0040383F31488BFF36F8F66
:100D380001F0AEF801F098FC00F0CAF901F0ECF807
:100D48000000000800ED00E0094A0A4993680968B4
:100D58009967094958674B6843F080534B600023F3
:100D680083F31188BFF36F8F9368986F704700BF44
:100D7800BC020020783A000800ED00E012498A68B9
:100D88004FF030001044EFF3098C80E8F01F10207A
:100D980080F31288BFF36F8F0C4F4FF000668A699B
:100DA8008A603E60506F0023536780F3118804B552
:100DB800104600F0D1F9BDE8044002F1300090E897
:100DC800F01F8CF309887047BC02002004ED00E096
:100DD8001EF0040F0CBFEFF30880EFF30980816960
:100DE80011F8021C0229FFD001B501F019FE01BD5E
:100DF80042F8203C009B42F81C3C0A49019B42F8FF
:100E0800183C029B42F8143C21F001014FF080731A
:100E180042F8043C42F8081C0023203A0265436764
:100E2800704700BF51290008094A0346906870B10D
:100E380013F1160F406E05D0A0F140029A4205D872
:100E4800834203D2814228BF0020704700207047A8
:100E5800BC02002008B5094B98600D46144600F006
:100E68007BF9204685F30988002163B681F3118850
:100E7800BFF36F8F0022002301F066FDBC02002043
:100E880001B5EFF30580A0F110004FEAC000044956
:100E9800014409C99847BDE80140024908470000D4
:100EA80068350008B10E0008044B996898698842B3
:100EB80003D003494FF080520A607047BC020020FB
:100EC80004ED00E070B51D4B15469A6A9A6A9A6A55
:100ED8009207064622D5586B9A6A14061ED519B190
:100EE8009A6A22F080029A629A6A9A6A9A6A134CFB
:100EF80012F0100F15D19B6A990712D40020A36A2B
:100F08000E4A9B0642BF636A23F400536362936AE6
:100F180043F0FF03936200232B7070BD6FF0150040
:100F2800E2E763681A05E9D53146FFF77DFF002837
:100F3800E4D080F309880220E1E700BF00ED00E07B
:100F48000D4B9A6A9A6A9A6A920508D59A6B9A6AB8
:100F5800120404D518B19A6A22F400429A629A6A75
:100F68009A6AD205044A58BF9B6A936A002043F4E0
:100F78007F4393620870704700ED00E070B54A4BFC
:100F88005B688AB00546C3F30803002686F3118818
:100F9800BFF36F8F02F07F40B0F17F4F11D102F0A5
:100FA8000C0008280DD010074CBF0D460126002262
:100FB800033B8DF80720032B4DD8DFE803F00465C9
:100FC800696D3546F3E7384BDA6A910743D4DA6A34
:100FD800002A40DBDA6A52003DD55A69A96942F411
:100FE80080725A61BFF34F8FBFF36F8F5A6931F820
:100FF800021C22F480725A61BFF34F8FBFF36F8FC8
:101008004DF60272914209D09A6AD2B242B10DF1FC
:10101800070201212846FFF755FF0AE02C681BE06C
:101028009A6A12F47F4F06D00DF107010120FFF7ED
:1010380087FF044610E09A6AB2F5803F0BD39A6A9C
:101048009A6A9A6A9A6A9A6A9A6A9A6A6FEA0242E3
:101058006FEA12429A6200249DF8073093B9202261
:10106800294602A801F0FBFC099BBEB1C3F30802A4
:1010780022B96FEA53236FEA4323099302A9204652
:1010880001F0CCFC0AB070BD0DF107020021C1E7E8
:101098000DF107010020CAE7034BD0E723F4FF73E3
:1010A80023F00103E9E700BF00ED00E0024A5369BD
:1010B80043F010035361704700ED00E0EFF3088040
:1010C800EFF3098101B57246FFF758FF01BD00BF74
:1010D800044800231021C2180133562B82F800134C
:1010E800F9D1704700E100E0102080F3118808482A
:1010F8004FF40461401880F30988EFF3148002214B
:10110800084380F31488BFF36F8FFFF7F9FD0000E1
:1011180000030020084B9B6883420BD1EFF3058343
:1011280043B1064B5A6842F080525A605A6A22F418
:1011380000425A6201F038BABC02002000ED00E01B
:10114800024B034A0348012100F070B80000022056
:1011580000000020B4380008426E054B403A1A607F
:10116800044A4021C3E901121846012100F068B879
:101178006801002000000B15F0B5204E00258D42B7
:1011880039DA446874B353B104F1FF3C14EA0C0F24
:101198002FD11F2C2DD907681CEA070F29D1202C25
:1011A8000768D0F808C05FFA82FE1ED9B4F1004F74
:1011B8001DD8013CB4FA84F4C4F11F046400BEF1E4
:1011C800070F4CEA040C14D827F01F04144344F00A
:1011D8001004C6F89820C6F89C404CF00104C6F8E4
:1011E800A040013201350C30C9E70824E7E73E2466
:1011F800E5E76FF015021046F0BD00BF00ED00E016
:10120800044B0522C3F89420BFF34F8FBFF36F8FB1
:10121800704700BF00ED00E0BFF35F8F024B002274
:10122800C3F89420704700BF00ED00E010B5034CF0
:1012380001232278FFF7A0FF207010BDF0020020E4
:1012480008B5094A00231278FFF796FF10F1160F28
:1012580002D0064A072800DD08BDC2F89800C2F887
:10126800A0300130F6E700BFF002002000ED00E0FA
:1012780014490868082810B521D8FFF7CDFF124C8B
:1012880049680022904201F10C0105D10F4B1870FA
:10129800FFF7B6FF002010BDC4F8982051F80C3CA9
:1012A80023F01F03134343F01003C4F89C3051F894
:1012B800043C43F00103C4F8A0300132E2E74FF0E8
:1012C800FF30E8E7C038000800ED00E0F002002039
:1012D800014B1860704700BF040000202DE9F84357
:1012E8000D4F04460E4615464FF0010802F1040959
:1012F800B44201DBBDE8F8837A6908FA04F333EAFB
:10130800020207D17B6155F834301BB159F834100B
:10131800204698470134EBE7003C0140044A01238A
:10132800116883400B431360024B1856FFF7BEBC8D
:10133800003C0140E23A00081F2806DC034901226C
:101348000B68824023EA02030B607047003C0140AF
:1013580003292AD8DFE801F0020E141F134B0122DB
:101368009968824021EA02019960D96821EA02025B
:10137800DA6070470D4B0122996882401143F3E708
:101388000A4B0122D96882401143D960996821EA41
:1013980002029A607047012303FA00F0034B9A682F
:1013A80002439A60DA681043D8607047003C0140F5
:1013B80010B5074B044653F8300028B943F83410E9
:1013C80003EBC4035A6010BD6FF00F00FBE700BFCA
:1013D80074010020034B002243F8302003EBC003C4
:1013E8005A6070477401002010B5204B18680B68CC
:1013F800442B144628D82F2B05D8013B052B0DD993
:101408006FF085001FE0A3F1300101228A401849DE
:101418000A4216D1402BF3D1400812E0052BEFD831
:1014280001A252F823F000BF571400086314000803
:1014380009140008491400086F1400084B14000828
:1014480000202060002010BDA82BFAD0D8E700F0BB
:1014580097F860235843C008F3E700F091F8602339
:1014680058430009EDE74FF4FA40EAE73C00002052
:101478001101100070B53E4C00F098F800F018FC0F
:10148800A3683C4AC3F30313D35C20FA03F53A4834
:10149800854201D200F03AFC236823F480232360BC
:1014A800236843F480332360314B1A689603FCD5D4
:1014B8005A6F42F001025A675A6F9407FCD59A682E
:1014C80002F00C02082A17D19A6822F0F0029A60FA
:1014D8001A68900707D41A6842F001021A60244A71
:1014E80013689907FCD5224B9A6822F003029A6088
:1014F8009A6812F00C0FFBD11D4C236823F08073FF
:101508002360636823F440336360636823F0706387
:1015180043F08063636000F037F8236843F080731A
:10152800236023689B01FCD5A36823F0F003A36024
:10153800A36823F0030343F00203A3600C4CA368E1
:1015480003F00C03082BFAD10B4EB54202D33046F8
:1015580000F0DCFB094B1E60A36823F4E05343F45E
:101568008053A360A36823F46043A360002070BD88
:1015780000380240A23B000800D8B8053C00002013
:101588000048704700127A00054B06495A68114016
:10159800054A0A435A605A6822F440325A60704732
:1015A800003802400080BFFF04184000064B1A6C48
:1015B80042F080521A641B6C82B003F0805301938E
:1015C800019B02B0704700BF0038024008B50748C9
:1015D80001F01FFE38B10648FFF77AFE0448FEF70F
:1015E8006BFF002008BD6FF01200FBE750350008C4
:1015F800FD1500080A2838B5074D044604D1AB6824
:101608000D215B6828469847AB6803485B68E1B2E0
:101618009847204638BD00BF5035000838B50369E3
:1016280004465860084D284601F0F3FD40B1616852
:10163800AB680C311B682846984700EAE07038BD53
:101648006FF01200FBE700BF48340008F7B51746F3
:10165800B7F5001F466802690C461D4624D101F003
:101668000302043292000F23934043EA9103DAB253
:101678003349023251F82220190C02EA134391FA35
:10168800A1F2B2FA82F2D340B2689A4209D1204656
:10169800FFF752FE2046FFF79DFE00212046FFF788
:1016A80057FE002003B0F0BDB7F5800F41D02549A3
:1016B8002046FFF77DFE00283ED1234AB66892E80F
:1016C80003006B4683E803002048826819461268C5
:1016D8009047C0B904F0030304339B000F229A40DB
:1016E80042EA9402D3B29B0003F1804303F59C3392
:1016F800110C986820EA124091FAA1F2B2FA82F22B
:10170800964006439E60B5F1806F0ED0B5F1C06F6C
:101718000DD005F17E435942594149002046FFF753
:1017280017FE2046FFF7FAFDBBE70121F6E7032184
:10173800F4E76FF08500B5E76FF00F00B2E700BF80
:1017480000380140052E0008AC380008483400086D
:101758004268116801F1140353E8003F43F00103A4
:1017680001F1140C4CE800300028F3D113680E493D
:101778008B4207D0A1F54C418B4203D001F5504173
:101788008B4203D1196941F040011961126802F1D5
:101798000C0353E8003F43F4807302F10C0040E867
:1017A80000310029F3D170470010014042681168E8
:1017B80001F1140353E8003F23F0010301F1140C75
:1017C8004CE800300028F3D113680E498B4207D04B
:1017D800A1F54C418B4203D001F550418B4203D116
:1017E800196921F040011961126802F10C0353E8EC
:1017F800003F23F4807302F10C0040E80031002917
:10180800F3D1704700100140F7B5076944680646F0
:101818003A48786001F0FDFC20B96FF012052846BF
:1018280003B0F0BD7868616883681B68984705460F
:101838000028F4D1014601AAA06901F09CFC002807
:1018480001DA0546EBE7019B2A461979186800F08A
:10185800EDF90028F5DB2268D36823F40053D36040
:10186800B86801F0D6FC0028D7D0D7E90201836810
:10187800DB6803B19847216801F10C0353E8003F86
:1018880043F00C0301F10C0040E80032002AF3D1C8
:101898002369022B2DD0012B12BF00204FF480505A
:1018A8004FF4C0622168CB68104323F4B05303435C
:1018B800CB600B6923F440530B61237B2BB1736816
:1018C8001A68536943F4407353613968304601F02C
:1018D800E2FB237D23B12268536943F00803536177
:1018E8002268D36843F40053D360E36930469847CD
:1018F80095E74FF480504FF48062D3E748340008EE
:101908002DE9F0410B7945680669012B0C467DD01D
:101918009A1E57425741BF02627994F80680022AFC
:1019280096BF4C494FF4005C31F812C0B8F1040F6F
:101938007BD094F807E0002B6BD1BEF1010F22F0A9
:1019480002027FD0002A70D0B8F1020F6DD9194673
:10195800D5F80080BEF1000F0DD03F4A904507D062
:10196800A2F54C42904503D002F5504290455CD117
:10197800BEF1010F59D1D8F80C2022F40052C8F852
:101988000C204268D2F800E0DEF80C2002F4C062B5
:1019980097421FBFDEF80C2022F4C0623A43CEF80B
:1019A8000C20426817683A6902F4405294451FBFF8
:1019B8003A6922F4405242EA0C023A6142681768D6
:1019C800FA6802F480529A421FBFFA6822F48052E1
:1019D8001343FB6043681A68536903F440739942E0
:1019E8001FBF536923F440730B4353612168336865
:1019F800994203D001F04FFB236833602A68D3680B
:101A080043F40053D3600020BDE8F0814FF4C06771
:101A180082E7033BBEF1010FDBB209D1012B04D9E8
:101A28004FF4407112F0FD0F06D16FF08500EBE71F
:101A3800012BFAD90021F5E7B8F1020FF5D94FF4D7
:101A4800805385E7002AF0D0B8F1020FEDD94FF4A2
:101A580040717DE7943A00080010014010B54FF03E
:101A6800E0239A6919699869094B11F4803F09497B
:101A780001D1824206D21A680C6822441A604FF0DB
:101A8800E02212691B680A681344181A10BD00BFC7
:101A9800AC020020B8020020094B102283F8232052
:101AA800084B42F27F521A60074B002018604FF033
:101AB800E0235A6198611A6942F007021A61704777
:101AC80000ED00E0B8020020AC02002008B5FFF7E6
:101AD800C5FF0C4B0C4A18681168084410600022B6
:101AE8001A600A4A13684FF41651C01AB0FBF1F095
:101AF80001FB0033136000F09DFEBDE80840FFF7CE
:101B0800D3B900BFAC020020B4020020B00200200C
:101B18002DE9F041314E002954D0421C0AD14FF032
:101B2800E022136923F0010313614FF07F43336010
:101B3800BDE8F081356801284ADD40F2D2684045A9
:101B480001DC00F1FF384FF01003EFF3118483F349
:101B58001288BFF36F8FFFF781FF214F4FF0E0230B
:101B68000021D3F818C03B68C2181E4B19601E4BE1
:101B78001B68D11A2FD44FF4165000FB081101F539
:101B880015519B1A3F31B1FBF0F100FB0133B3F55E
:101B9800806F20D915498B4228BF0B464FF0E021B2
:101BA80033608869013B4B6100238B618445ACEB52
:101BB800000338BF5B191A443A6084F31188BFF3F5
:101BC8006F8FB5E7431C3568B5D140F2D260B8E7EE
:101BD8004FF00008B7E74FF48063DFE7B802002052
:101BE800B4020020AC020020B002002000C3FF00B5
:101BF80010B54FF01003EFF3118483F31288BFF38D
:101C08006F8FFFF72BFF074B074A1B6812689B1A59
:101C1800034484F31188BFF36F8F4FF41650B3FB5E
:101C2800F0F010BDB4020020B00200202DE9F0470A
:101C38001E4F044600EBC1060025B44201D1002026
:101C480014E02068C30600F01F0911D4656845F048
:101C58002005C0F3471AC0F343200A2823D857F8B1
:101C68002080B8F1000F0DD16FF01200BDE8F087A9
:101C7800B9F1100F04D0B9F1110FEAD16568E8E79E
:101C88003025E6E7404601F0C4FA0028ECD04B4680
:101C98002A460AF00F01404601F0C7F8002804F16F
:101CA8000804CADAE2E76FF01500DFE7383A0008FF
:101CB80008B513498B6803F00C03042B1CD0082BC0
:101CC8001CD14A684B68496813F4800314BF0D4857
:101CD8000D48C1F3881118BF002302F03F02A1FB91
:101CE8000001FEF755FA064B5B68C3F30143013365
:101CF8005B00B0FBF3F008BD0248FCE70248FAE7D6
:101D08000038024000127A000024F400002876D03F
:101D18003C4B1A6802F44042B2F5404F20D13A4A8F
:101D2800904215D8394A904207D91A6802F44042BD
:101D3800B2F5004F5CD102201FE0354A90421A6884
:101D480002F4404247D9B2F5004F4CD1012014E0CB
:101D58001A6802F44042B2F5004F3FD103200CE06C
:101D68001A6802F44042B2F5004F22D1274A904245
:101D78003ED8274A90422ED90020224B1B680128C2
:101D880038BF012003F44043B3F5804F1FD0214AE8
:101D9800136823F0070303431360136803F0070372
:101DA80098421CBF136803F00703C01A18BF01202C
:101DB80070471B6803F44043B3F5804F0CD1134BB5
:101DC80098421AD8124B98424FF00000DFD90128E8
:101DD80038BF0120DBE71B680020D8E71B68032019
:101DE80003F44043D0E71B68012003F44043CBE7EA
:101DF8001B68022003F44043C6E70220C7E701201E
:101E0800704700BF00700040804A5D050090D00315
:101E180080C3C901003C02400F4B70B553F8204005
:101E2800013053F82060A64200D870BDD4E90035CF
:101E3800284698476DB138B10028B8BF4042EB68D2
:101E4800FF28A8BFFF201870EA68537843F0010301
:101E580053700834E7E700BF7C3A000808B50A4B1E
:101E6800012203201A70FFF7D7FF00F057FD042066
:101E7800FFF7D2FF00F0EEF8FEF7F4FA034A137BFF
:101E880023F00103137308BDF1020020E0000020D5
:101E980008B50348034A0021121A01F0ECF908BDFD
:101EA80060000020F402002070B5002386B00122F3
:101EB800CDE90423134E144D01930F22CDE90232CC
:101EC8001249182303FB005506EBC01604464FF4CD
:101ED800C07000FB04110E4B00954FF4A072304601
:101EE80000F086F8737B0B4AEE6023F004037373EB
:101EF8004FF4046304FB033313442C756B6006B082
:101F080070BD00BF60000020BC020020400B002014
:101F1800873200080003002080B50020A6B0FFF734
:101F28007BFF2C4B83F308882B4D2C4E6B692C4F71
:101F380043F400736B610024F02385F82230EC77BA
:101F48002C766C76AC7685F820406B6A43F4E023F7
:101F58006B62FFF7ABF8FEF795FE4FF0FF33AB620D
:101F6800EB62FFF785F9FFF7EBF840F20113ADF8E4
:101F7800243006ABB360CDE91F44229401F048F940
:101F88000120FFF749FF0220164DFFF745FF00F03B
:101F98005FFA154BB5610593012314490094CDE907
:101FA80003434FF480623B46CDE90144284600F0E4
:101FB8001FF86A7B064622F0040228466A7301F07D
:101FC8009EF92046FFF770FF3A4631462846FEF74D
:101FD80041FF00BF400B002000ED00E0BC020020E4
:101FE800651E0008E0000020B23B0008C00C00207D
:101FF8002DE9FF410E9E0673042646730D9E8673D7
:1020080000F158050F46D61DC0E916550C9A002553
:1020180026F007064037C0E90655C0E919768560FD
:10202800C573C56606F1400802920B9A019288446E
:102038000A9A009242460446FEF7DAFE044B6565AA
:102048009B6803B11B6F2367404604B0BDE8F0816D
:10205800BC020020F0B5224C224D87B02646AE4285
:1020680004F130040BD300F0C3F91D4C1E4F0A26AF
:10207800AC4220D307B0BDE8F04000F0CDB954F829
:10208800043C059354F8103C049354F8143C03930F
:1020980054F8183C029354F81C3C019354F8203C23
:1020A800009354E90A2354E90C01FFF7A1FF54F8FF
:1020B800303C5E65D2E7626A531C09D022EAE272BC
:1020C80082FB062352EA0301206803D100F040F99D
:1020D8003034CDE73946183000F02EFBF8E700BF62
:1020E8001838000818380008C332000838B5074DFA
:1020F8002C6854B1FFF77CFD054B04441C6128682B
:102108000021BDE8384001F036B938BDE8020020AA
:10211800BC02002038B50D4D2B4653F81C4F9C428D
:1021280000D004B9EC68AB6838B95A7BD20604D140
:10213800A26912B9DA897F2A05D89C4202D02046C2
:10214800FFF7D4FF2346AB6138BD00BFBC020020B7
:1021580070B590F90D20437B002A014604DA03F09C
:102168007F03437301F097F84B7B154A63F07F03B5
:1021780010464B7350F81C3F146A834208BF002373
:1021880023B9C1E90004216011620CE091F90E50F5
:1021980093F90E60B5420ED0AE420CDD5868C1E925
:1021A8000030016059609068431A5842BDE8704099
:1021B8005841FFF7AFBF9C42E3D01B68E0E700BF80
:1021C800BC02002070B490F90D30427B002B29DB53
:1021D800D30627D183692BBB134962F07F02427370
:1021E8000A4652F81C4F944218BF23460C6A23B97A
:1021F800C0E90024206008620CE090F90E5093F9C1
:102208000E60B5420AD0AE4208DD5A68C0E9003215
:102218001060586070BC0020FFF77CBFA342E7D075
:102228001B68E4E770BC7047BC02002008B590F951
:102238000D20437B002A014604DA03F07F03437331
:1022480001F029F8044B9868431A58425841BDE8F0
:102258000840FFF75FBF00BFBC02002010B54FF079
:102268001003EFF3118483F31288BFF36F8F0A23EF
:10227800002800FB03F302DD022BB8BF0223074A44
:102288000020106106480360064B90681960FFF74C
:102298002DFF84F31188BFF36F8F10BDBC0200209F
:1022A800E8020020E402002038B54FF01003EFF3F5
:1022B800118583F31288BFF36F8F174B174A9C68F9
:1022C80011688C4207D12046FFF710FF85F311886B
:1022D800BFF36F8F38BD00211160114A1268C2B177
:1022E800E2897F2A15D8627BD20612D10D4A94F969
:1022F8000E10126891420CDB0B4A944209D01A69FD
:10230800824203DC2046FFF723FFDCE7121A1A613A
:10231800DCE70022FBE700BFBC020020E00200204F
:10232800E8020020E40200206000002049B9EFF331
:10233800058030B9054B9A699B689A4201D0FEF72F
:1023480003BD81F31188BFF36F8F7047BC02002073
:1023580010B54FF01002EFF3118482F31288BFF327
:102368006F8F427B510704D484F31188BFF36F8FBA
:1023780010BD22F004024273FFF724FF21460248F1
:10238800BDE81040FFF7D2BFF202002070B5044646
:10239800183000F0DAFF4FF01003EFF3118683F3E3
:1023A8001288BFF36F8F94F90D20637B002A05DA3A
:1023B80003F07F036373204600F06DFF0B4D637BD2
:1023C800A86843F010036373031B58425841FFF792
:1023D800A1FE86F31188BFF36F8FAB68A34203D1C8
:1023E800BDE8704000F0A7BF70BD00BFBC02002070
:1023F8004FF01003EFF3118183F31288BFF36F8F4F
:10240800044B9A68D37B013BD37381F31188BFF3E4
:102418006F8F7047BC02002010B54FF01003EFF328
:10242800118483F31288BFF36F8F084B9A68D37BAC
:102438000133D3730020FFF76DFE84F31188BFF3D7
:102448006F8FBDE8104000F076BF00BFBC020020CF
:10245800044B002103F11C02C3E907220846FFF7D9
:10246800FDBE00BFBC020020F8B54FF01003EFF32B
:10247800118583F31288BFF36F8F19498868437BEE
:1024880003F07F03437300F006FF8B685A7B08460E
:1024980062F07F025A7350F81C2F0C6A824208BF00
:1024A800002222B9C3E9000423600B620CE093F90F
:1024B8000E6092F90E70BE420ED0B7420CDD516824
:1024C800C3E900210B6053600120FFF723FE284673
:1024D800BDE8F840FEF738BCA242E3D01268E0E756
:1024E800BC02002050EA01032DE9F04105460E46E2
:1024F80003D1FFF7B9FF00202CE0831C71F1FF33F3
:102508002ADB00F054FF2C184FF01003EFF311886A
:1025180083F31288BFF36F8F114F124BB86818609E
:10252800FFF784FEB86810492A463346183000F091
:1025380003F9BA68537B43F0100353734046FEF720
:1025480003FC00F034FF201A63EB0303012873F146
:102558000003D0DBBDE8F0816FF00104241AD3E753
:10256800BC020020E0020020C3320008B1F1FF3FA6
:1025780008BFB0F1FF3F08B506D1074B9868FFF7D1
:1025880005FF4FF0FF3008BDFFF7ACFF0A2200231C
:10259800C117FDF7FDFDF6E7BC020020014B986866
:1025A800704700BFBC0200202DE9F04104464FF0FF
:1025B8001003EFF3118683F31288BFF36F8F037B49
:1025C800D9070BD586F31188BFF36F8F404080F38E
:1025D80011884FF0040002DFBDE8F081437B1A0741
:1025E80004D586F31188BFF36F8FF5E723F0200237
:1025F80042F00801D20920D14173A36813B12046E3
:1026080000F051FE04F1180000F09FFE04F1580795
:102618004FF00008A56DBD4200D0B5B90120FFF705
:1026280079FD104B9B68A342DBD1EFF30583002BA8
:10263800D7D13046FEF788FBD3E703F05F0343F0BA
:102648000803437300F027FED7E7284600F02BFE67
:1026580005F1180000F079FEC5F878802846FFF7E4
:10266800B1FDD7E7BC02002008B50648064A07496D
:10267800121A00F002FEBDE80840054A054906485E
:1026880000F0FBBD0000002060000020FC3B0008BB
:1026980000000000FC3B000800000020034B1B6802
:1026A8000BB9FFF7A5BA0020704700BFEC02002065
:1026B80010B5114B1C689C420AD1FFF7EFFF6FF071
:1026C80000400E4B1B6913B19842A8BF184610BDB5
:1026D800FFF7E4FF002CF2D0D4E904321B1A62EBB6
:1026E800E072B3F1004F72F10001E8DA002AACBFE2
:1026F80018460020E5E700BF40000020BC0200208B
:1027080030B570B10B4B5B6898420AD0036843B18F
:10271800D3E90421D0E90445121941EB0501C3E9C5
:102728000421D0E9003213605A600023C0E9003365
:1027380030BD00BF40000020B3F1FF3F08BFB2F139
:10274800FF3FF8B504461D46164661D081604FF03C
:102758001003EFF3118783F31288BFF36F8F0132F1
:1027680075F1FF3324DA3049D1E900206FF0010315
:102778009B1A4FF0FF3262EB00009E1B60EB0500D6
:10278800012E70F1000301DA01260020C4E904607B
:10279800264ED6F800C07568B44508BF4FF0000C47
:1027A800BCF1000F0DD1C4E900652C6074601CE019
:1027B800FFF774FF013645F10005361845EBE07068
:1027C800E4E7DCE90420D4E90431934271EB000E1C
:1027D8001FDAD21ADCF8043060EB0100CCE90420DF
:1027E800C4E900C31C60CCF804403368B3420BD082
:1027F8009C4209D1FFF75CFF18B10D4B1B6983425E
:1028080002D00021FFF784F987F31188BFF36F8F97
:10281800F8BD9B1A61EB0001AC45C4E90431C2D094
:10282800DCF800C0BCE700BF6001002040000020C9
:10283800BC0200202DE9F8430446FFF735FD4FF0B0
:102848001003EFF3118683F31288BFF36F8F234FC2
:10285800DFF88C80D8F80000224A3C604045D2E975
:10286800003E4FEAE4710BD050B1D0E9045CAC42B1
:1028780071EB0C0916DA2D1B6CEB010CC0E9045C3A
:10288800E3184EEB01010024C2E900313C60FFF778
:102898000FFF2146FFF73CF986F31188BFF36F8FCE
:1028A800BDE8F883EB184EEBE571C2E90031002270
:1028B8000023C0E90423FFF723FF86F31188BFF341
:1028C8006F8F836898474FF01003EFF3118683F3F7
:1028D8001288BFF36F8F3C68641BBBE7EC020020D3
:1028E800400000206001002010B54FF01003EFF306
:1028F800118483F31288BFF36F8FFFF7CFFE064A68
:102908000346D2E90001181841EBE37184F31188FA
:10291800BFF36F8F10BD00BF60010020014800F0B9
:1029280006B800BFBA3B00087047002070470FB4D4
:1029380007B504A951F8040B0191FDF7C3FD03B0D5
:102948005DF804EB04B07047044608B50846114624
:102958001A46A047FFF722FEFEF7DCFB2DE9F84FE9
:102968009A46D3786F2B80460F461546A3F1410B44
:1029780029D024D8582B0CBF10260A26DDF8289019
:102988003246002340463946FDF702FC092AD4B2F4
:102998001ED83034B045E4B277F1000709F8014D8C
:1029A80001D3D14511D82B789B0605D5082E15D112
:1029B800AB7843F00803AB704846BDE8F88F03F0E6
:1029C800F703702BD7E70826D8E780460F46D7E7E6
:1029D800BBF1190F94BF37345734DBE7102EEBD116
:1029E800AB7843F01003E6E72DE9F0410746884647
:1029F80015461E461446B44205D30EB1601B08E0C6
:102A08002378002BFAD014F8010B4146B847002868
:102A1800F1DABDE8F08170470020704700F010BC83
:102A28000146006800F00CBC00210120FFF7F6BF4A
:102A380008B5FEF761F9BDE80840FEF735BA034668
:102A480000201A5C02B970470130FAE703460020FB
:102A58001A5C0AB1884200D170470130F8E710B516
:102A6800431E0A44914200D110BD11F8014B03F8EE
:102A7800014FF7E7C9B202440346934200D17047B9
:102A880003F8011BF9E74FF0FF307047002208B543
:102A980011460620FEF718F9002211460720FEF716
:102AA80013F9002211460820FEF70EF900221146FC
:102AB8000920FEF709F9002211460A20FEF704F959
:102AC800002211461720FEF7FFF8002211462820A1
:102AD800FEF7FAF8002211460120FEF7F5F8002269
:102AE80011462A20FEF7F0F8002211460220FEF7D0
:102AF800EBF8002211460320FEF7E6F8002008BD97
:102B0800026917211620FEF7E9BB02691621152074
:102B1800FEF7E4BB026913211220FEF7DFBB02694E
:102B280011211020FEF7DABB026910210A20FEF7F6
:102B3800D5BB02690A210520FEF7D0BB0269052131
:102B48000420FEF7CBBB026904210320FEF7C6BBB5
:102B5800026903210220FEF7C1BB0269022101209C
:102B6800FEF7BCBB026901210020FEF7B7BB0B686A
:102B7800A3F13002782A9FBF03F1804303F50E3397
:102B880049681A689DBF0A4300201A606FF08500E3
:102B980070470B68A3F13002782A9FBF03F1804386
:102BA80003F50E3349681A689DBF8A4300201A60EE
:102BB8006FF0850070470B68022B03D82BB96FF0B4
:102BC80085007047053B012BF9D84968CBB203F162
:102BD800804303F50E33C1F302421868C1F30421A0
:102BE8008A4002431A600020704743685B681B698B
:102BF8000B600020704743685B68586942400A4090
:102C080042405A610020704743685B680020996120
:102C1800704743685B6809049961002070474368FE
:102C28005A6853694B4053610020704710B50369D7
:102C38009868F8B1884219D1DC6808689860A142A0
:102C480000D1D860002008602AB19A680A60DA6862
:102C5800996002B9D960002010E0814206D1086865
:102C68002060D8688142EDD1DC60EBE7044600685B
:102C78000028F2D1002AE8D16FF0150010BDF0B598
:102C880044680120676888401E46C2F3801327EA1B
:102C980000078B403B43636090FAA0F7B7FA87F7C9
:102CA800D4F808C04FF0030E7F000EFA07F72CEA9D
:102CB800070C90FAA0F7B7FA87F7C2F3C1137F00A1
:102CC800BB4043EA0C03A36090FAA0F3B3FA83F382
:102CD800E7685B000EFA03F327EA030790FAA0F30C
:102CE800B3FA83F302F030055B00C2F341229A4045
:102CF8003A43202DE26016D107292BDC90FAA0F385
:102D0800226A2BB3B3FA83F39B000F2101FA03F372
:102D180022EA030290FAA0F3B3FA83F39B0006FABF
:102D280003F31343236290FAA0F3B3FA83F3226800
:102D380090FAA0F05B000321B0FA80F02D0901FAA7
:102D480003F3400022EA030385401D432560F0BDDC
:102D58002B46D9E7030A616A93FAA3F282B1B2FA61
:102D680082F292000F2793FAA3F3B3FA83F307FAD8
:102D780002F29B0021EA02029E4016436662D2E7F5
:102D88002A46EEE738B5044690030D46134617D594
:102D980091070ED55A072ED55022D8060BD542F4E6
:102DA800007219031AD5616801234968AB408B6129
:102DB8000DE01022F1E79906F3D542F48062F0E7BE
:102DC800DA0313D5D80613D4C3F340139A02606804
:102DD80000232946FFF753FF002038BD5B03F6D5D3
:102DE8000121A9402046FFF714FFF0E73022EEE763
:102DF8004FF40072EBE76FF08500EEE770B50B4615
:102E0800896821B101255E680C68854001B970BDEB
:102E18008A682A4002D04B68304698471CB123681C
:102E280021461C46F2E72346FAE7F8B51F46044652
:102E380040680E461546FFF722FF112F07D10121E2
:102E48002B0501FA06F104D563685B6899610020D7
:102E5800F8BD2046FFF7DDFEF9E782B0036801936D
:102E6800019B43680193019B02B0704708B5436812
:102E7800186803681A0701D5FFF7EFFF03689B0678
:102E880043BF43680B7000204FF0FF3008BD10B5FA
:102E98004068026813681B06FCD54FF01002EFF378
:102EA800118382F31288BFF36F8F026814682406B7
:102EB80004D483F31188BFF36F8FEAE7516083F37B
:102EC8001188BFF36F8F10BD08B541680B681A6889
:102ED8001868C0071868C2F3C00248BF42F002026F
:102EE8008007186848BF42F004024007186848BFC6
:102EF80042F02002C00542BF6FF4807042F0080221
:102F08001860D00702D50868FFF7A7FF930702D516
:102F18000868FFF7A2FF500702D50868FFF79DFF72
:102F2800930602D50868FFF798FF104608BDF0B56C
:102F380046683368186810F0800010D04FF010030E
:102F4800EFF3118783F31288BFF36F8F0023DCB28E
:102F5800A242204604DC87F31188BFF36F8FF0BDCF
:102F68003568D5F800C01CF0800F03F10103F2D0DA
:102F7800085D6860EBE770B545680024E0B28242FE
:102F880003DD2B681E68B60600D470BD5B680B5461
:102F9800286803681B0701D5FFF75FFF0134EDE7D9
:102FA80043681A6802F10C0353E8003F43F04003FA
:102FB80002F10C0040E800310029F3D17047436862
:102FC8001A6802F10C0353E8003F23F0400302F1B2
:102FD8000C0040E800310029F3D1704743681B68B2
:102FE800186810F080001CBFD868C0F380107047C4
:102FF80043681B681868C0F38010704743681A68F4
:1030080002F10C0353E8003F43F0200302F10C00E7
:1030180040E800310029F3D1704743681A6802F18B
:103028000C0353E8003F23F0200302F10C0040E8B2
:1030380000310029F3D1704743681B681868C0F352
:103048004010704743681B681A68910602D5DA6811
:10305800920607D4186810F0400004D0D868C0F36E
:103068008010704701207047012070470369C3E949
:1030780004127047026913690BB151691847704708
:1030880008B5002226201146FDF71EFEBDE80840BF
:103098002620FDF70BBE37B5036944685868836876
:1030A800DB680D466168F3B101AA984700281ADB6E
:1030B80022680198D368192123F40043D360A0FB48
:1030C8000101AA00AB0FFDF763F86422B0FBF2F12F
:1030D80002FB11031B0124683233B3FBF2F303EB49
:1030E80001139BB2A36003B030BD03691B680B607A
:1030F80043681B68DB6803F4C063B3F5806F2FD0A7
:10310800A3F5C06CDCF1000343EB0C030B714368BF
:103118001B681B6903F44053B3F5805F22D0B3F5F5
:10312800405F21D0002B0CBF012303234B71436860
:103138001B68DA68DB68D20403F4C06316D5002B79
:1031480014BF032304238B7143681B685B6903F472
:103158004073A3F5407253425341CB71002070472E
:103168000223D3E70023E1E70223DFE7002B14BFA4
:1031780002230323E7E730B5036813600579046881
:1031880004EBC504A34202D36FF0010030BD5C79A3
:103198008C4201D00833F0E70020F7E74368C1F319
:1031A8004B101B6801F01F01C05801238B400342DC
:1031B80014BF0123002313700020704710B5436823
:1031C800C1F34B101A6801F01F01845801238B408A
:1031D80023438350002010BD10B54368C1F34B143E
:1031E800186801F01F01235801228A4023EA0203CC
:1031F8002350002010BD38B504460D46FFF7DEFF0A
:1032080029462046FFF7E8FF002038BD0020704718
:10321800704740B1C368587810F001001EBF187895
:10322800B0FA80F0400970474FF01002EFF31183B5
:1032380082F31288BFF36F8FFEE708B5FFF7F4FF3C
:10324800F8B505460E464FF01003EFF3118783F3E8
:103258001288BFF36F8FFFF7A1F93146044628465D
:10326800FFF7EBFF87F31188BFF36F8F2046BDE8A8
:10327800F840FDF74FBFFFF7FDBBFFF7F0BB08B500
:103288004FF01002EFF3118382F31288BFF36F8FB0
:10329800FDF7FEFCF4E7D0E9003213605A60002322
:1032A800C0E90033704708B5FFF7F5FF437B23F00B
:1032B800020343730023836008BD10B501464FF035
:1032C8001003EFF3118483F31288BFF36F8F10F8A4
:1032D8000B3C13F0280F0DD151F8103C18380BB1E6
:1032E800FFF7E1FF11F80B3C23F0140301F80B3C46
:1032F800FEF768FF84F31188BFF36F8F10BD10B518
:103308004FF01003EFF3118483F31288BFF36F8F2C
:10331800FEF758FF84F31188BFF36F8F10BD034683
:1033280020B9EFF305820AB9FDF70EBD83F31188C2
:10333800BFF36F8F70474FF01003EFF3118083F3E3
:103348001288BFF36F8FFFF7EABF10B54FF0100276
:10335800EFF3118482F31288BFF36F8F03683BB1D8
:10336800FFF7CEF9002084F31188BFF36F8F10BDEB
:103378006FF01500F7E770B504460D464FF01003DF
:10338800EFF3118683F31288BFF36F8FFFF790F97D
:10339800012807DDA04205DBA0422946A8BF204638
:1033A800FEF7B6FB86F31188BFF36F8F70BD08B5C3
:0833B800FFF79AFA08BD0000BE
:0833C0000CCEFF7F01000000AC
:1033C8004D0C000800000000212A00080000000041
:1033D8007D14000848340008952A00086034000865
:1033E80025160008783400082516000890340008CF
:1033F80025160008A834000825160008C03400085F
:1034080025160008D834000825160008F0340008EE
:10341800251600080835000825160008203500087C
:103428001532000838350008111800085035000812
:10343800D515000800000000A11A000800000000CF
:10344800F93A000800000000080000204A000020A7
:103458000000000072380008C43A000800000000AC
:103468000000000048000020740100206C380008AB
:10347800063B0008E0380008803900084C000020AE
:103488002C02002064380008143B0008F4380008B7
:10349800803900084E0000203C0200205C380008FB
:1034A800223B000808390008803900085000002035
:1034B8004C02002054380008303B00081C39000832
:1034C80080390008520000205C0200204C380008B7
:1034D8003E3B0008303900088039000854000020BD
:1034E8006C020020443800084C3B000844390008AE
:1034F80080390008560000207C0200203C38000873
:103508005A3B000858390008803900085800002044
:103518008C02002034380008683B00086C39000829
:10352800803900085A0000209C0200202C3800082E
:10353800913B0008643A0008683A00085E000020E1
:103548000000000022380008763B0008A439000873
:10355800EC3900085C00002024000020183800081E
:1035680000000000312A000860340008272B0008FA
:1035780060340008132B000860340008092B000889
:1035880000000000312A000800000000312A00086D
:10359800603400086D2B000860340008632B0008B5
:1035A80060340008592B0008603400084F2B0008CD
:1035B80060340008452B000800000000312A00088C
:1035C80000000000312A000800000000312A00082D
:1035D80000000000312A000800000000312A00081D
:1035E80000000000312A000800000000312A00080D
:1035F80000000000312A000800000000312A0008FD
:1036080000000000312A000800000000312A0008EC
:1036180000000000312A0008603400083B2B000835
:1036280000000000312A000800000000312A0008CC
:1036380000000000312A000800000000312A0008BC
:1036480000000000312A000800000000312A0008AC
:1036580000000000312A000800000000312A00089C
:1036680000000000312A000800000000312A00088C
:1036780000000000312A000800000000312A00087C
:1036880000000000312A000800000000312A00086C
:10369800503500087D30000800000000312A00087D
:1036A80060340008312B000800000000312A0008AF
:1036B800603400081D2B000800000000312A0008B3
:1036C80000000000312A000800000000312A00082C
:1036D80000000000312A000800000000312A00081C
:1036E80000000000312A000800000000312A00080C
:1036F80000000000312A000800000000312A0008FC
:1037080000000000312A000800000000312A0008EB
:1037180000000000312A000800000000312A0008DB
:1037280000000000312A000800000000312A0008CB
:1037380000000000312A000800000000312A0008BB
:1037480000000000312A000800000000312A0008AB
:1037580000000000312A000800000000312A00089B
:1037680000000000312A000800000000312A00088B
:1037780000000000312A000800000000312A00087B
:1037880000000000312A000800000000312A00086B
:1037980000000000312A000800000000312A00085B
:1037A80000000000312A000800000000312A00084B
:1037B80000000000312A000800000000312A00083B
:1037C80000000000312A000800000000312A00082B
:1037D80000000000312A000800000000312A00081B
:1037E80000000000312A000800000000312A00080B
:1037F80000000000312A000800000000312A0008FB
:1038080000000000312A000800000000312A0008EA
:1038180001000B0000800080FF7F01000080008015
:103828000C00FF7F010000800080FF7F0100008006
:103838000080FF7F010000800080FF7F0100008082
:103848000080FF7F010000800080FF7F0100008072
:103858000080FF7F010000800080FF7F0100008062
:103868000080FF7F00800080FF7F008000800300D1
:103878000400050006000700080009000A000B0004
:043888000C00FF7FB2
:10388C009A3A000800000000B13A0008000000005D
:10389C00B73B000800000000863B00080000000059
:1038AC004400000000400000000000200000000068
:1038BC0000000B0602000000C838000800000008D9
:1038CC00B53A00082400020700000020BD3A0008A9
:1038DC0020000B11FFFF0000001C0240070000003D
:1038EC003000000080000000FFFF000000180240C4
:1038FC00060000003000000040000000FFFF000048
:10390C000014024005000000300000002000000000
:10391C00FFFF000000100240040000003000000017
:10392C0010000000FFFF0000000C0240030000002C
:10393C003000000008000000FFFF000000080240FB
:10394C00020000003000000004000000FFFF000037
:10395C0000040240010000003000000002000000E2
:10396C00FFFF0000000002400000000030000000DB
:10397C00010000008D2D0008F32B0008FF2B000820
:10398C00112C00081B2C0008272C000855160008C9
:10399C00352C00080000000000440040C439000829
:1039AC00010000000000000000000000000000000A
:1039BC00CC390008893000084000000000000200EB
:1039CC00D439000801000000DC39000802000000B6
:1039DC00470000000002000067000000000000002B
:1039EC00752E0008972E0008D12E00080919000822
:1039FC00F3300008372F00087F2F0008A92F00088C
:103A0C00C72F0008E52F00080530000823300008F8
:103A1C00F92F00084130000859170008B5170008A5
:103A2C004D30000871300008753000082035000852
:103A3C0008350008F0340008D8340008C0340008F9
:103A4C00A834000890340008783400080000000006
:103A5C00000000000000000000380240A531000802
:103A6C00C5310008E1310008FF310008F5FFFFFF08
:103A7C00C8330008C8330008403400084834000834
:103A8C00483400084834000800100000003063621D
:103A9C007072696E74665F7061636B616765002834
:103AAC006E696C29006D707500464C4153485F304F
:103ABC00005352414D5F3000696E746572727570BF
:103ACC00742D636F6E74726F6C6C65724034303031
:103ADC00313363303000060708090A171717171718
:103AEC0028282828282801FF2AFFFF020372636375
:103AFC00403430303233383030006770696F4034C6
:103B0C0030303231633030006770696F40343030A0
:103B1C003231383030006770696F403430303231B8
:103B2C00343030006770696F4034303032313030AF
:103B3C0030006770696F40343030323063303000A1
:103B4C006770696F40343030323038303000677015
:103B5C00696F403430303230343030006770696F08
:103B6C004034303032303030300073657269616C03
:103B7C0040343030303434303000756172745F73DF
:103B8C00746D33320072657365742D636F6E74726D
:103B9C006F6C6C65720000000000000000000102F8
:103BAC000304060708096D61696E006F73002A2A09
:103BBC002A20426F6F74696E67205A65706879723B
:103BCC00204F53206275696C64207A657068797235
:103BDC002D76332E322E302D333039382D676464E8
:103BEC0034363866633236313864202A2A2A0A0081
:103BFC00332900088F2A0008772B00089B2B00081C
:103C0C0000000000F113000800000000000000009C
:103C1C00BF2B000800C2010000000000383500086E
:103C2C001104000000000000000000000024F4005B
:083C3C004000002040000020C0
:103C44000000000000000000000000000000000070
:083C5400000000000000000068
:043C5C0015E015E07A
:04000005080010F1EE
:00000001FF
