:020000040800F2
:10000000804700204D1700083B4B000821170008CF
:100010002117000821170008211700080000000020
:100020000000000000000000000000009513000820
:1000300021170008000000003D130008712300088C
:10004000491400084914000849140008491400081C
:10005000491400084914000849140008491400080C
:1000600049140008491400084914000849140008FC
:1000700049140008491400084914000849140008EC
:1000800049140008491400084914000849140008DC
:1000900049140008491400084914000849140008CC
:1000A00049140008491400084914000849140008BC
:1000B00049140008491400084914000849140008AC
:1000C000491400084914000849140008491400089C
:1000D000491400084914000849140008491400088C
:1000E000491400084914000849140008491400087C
:1000F000491400084914000849140008491400086C
:10010000491400084914000849140008491400085B
:10011000491400084914000849140008491400084B
:10012000491400084914000849140008491400083B
:10013000491400084914000849140008491400082B
:10014000491400084914000849140008491400081B
:10015000491400084914000849140008491400080B
:1001600049140008491400084914000849140008FB
:1001700049140008491400084914000849140008EB
:1001800049140008491400084914000849140008DB
:0801900049140008491400089D
:1001980053B94AB9002908BF00281CBF4FF0FF31E6
:1001A8004FF0FF3000F00CB8ADF1080C6DE904CE4B
:1001B80000F008F8DDF804E0DDE9022304B0704738
:1001C800704700BF2DE9F04786468C460846089ED2
:1001D800154674461946002B40F0C2808542B2FA93
:1001E80082F245D94AB1C2F1200300FA02FC2EFA84
:1001F80003F3954043EA0C0C94404FEA154EA8B21D
:10020800BCFBFEF8230C0EFB18CC08FB00F943EAF4
:100218000C43994528D9EB1808F1FF3704D29945C2
:1002280002D9A8F102072B44A3EB0903A4B2B3FB3C
:10023800FEFC0EFB1C330CFB00F044EA0344A04216
:1002480014D92C190CF1FF3304D2A04202D9ACF115
:1002580002032C44241A43EA07401EB1D440002369
:1002680034607360BDE8F0874746DDE76346F1E731
:1002780092BB431B01214FEA154EAFB2B3FBFEFC04
:10028800200C0EFB1C330CFB07F840EA034398458F
:1002980062D9EB180CF1FF3004D2984502D9ACF1C1
:1002A80002002B44A3EB0803A4B2B3FBFEFC0EFB35
:1002B8001C330CFB07F744EA0344A7424ED92C1918
:1002C8000CF1FF3304D2A74202D9ACF102032C444B
:1002D800E41B43EA0040C0E7C2F1200320FA03F11F
:1002E800954090402EFA03F303434FEA154EAFB200
:1002F800B1FBFEFC0EFB1C10190C0CFB07F841EAC5
:100308000041884504FA02F422D969180CF1FF303B
:1003180004D2884502D9ACF102002944A1EB0801B6
:100328009BB2B1FBFEFC0EFB1C110CFB07F743EA6A
:1003380001439F420ED9EB180CF1FF3104D29F42C2
:1003480002D9ACF102012B44DB1B41EA004192E7E0
:100358006046E3E76146F7E76046A3E76346B7E729
:10036800834206D916B9002108467BE7C6E900E0B2
:10037800F9E7B3FA83F78FB9834201D3724508D8F6
:10038800BEEB020460EB030301209C461EB900216A
:1003980068E73846FAE7C6E9004CF8E7C7F1200CE9
:1003A800BB4022FA0CF41C432EFA0CF120FA0CF391
:1003B800B84001434FEA14490EFA07F5B3FBF9F8C0
:1003C8001FFA84FE09FB18300B0C08FB0EFA43EAEF
:1003D80000439A4502FA07F240D9E31808F1FF30C2
:1003E80004D29A4502D9A8F102002344A3EB0A03D8
:1003F80089B2B3FBF9F809FB183308FB0EFE41EA92
:1004080003418E452CD9611808F1FF3304D28E457B
:1004180002D9A8F10203214443EA0040A0FB029854
:10042800A1EB0E014145CE46434602D306D14D45C8
:1004380004D2B9EB020E68EB04030138002EA6D0F3
:10044800B5EB0E0261EB030101FA0CFC22FA07F38B
:100458004CEA0303F940C6E9003198E74046C5E78E
:100468004346D9E72DE9F74306460C46154603F0FF
:10047800A7FD04F04AFF01220746B1181348DFF828
:100488005080DFF8509004F048F91349134A144893
:100498000097002FBABF0A4643464B46314604F040
:1004A8003CF975B12A46B5F57A7FB4BF494641464D
:1004B800204604F032F90B4803B0BDE8F04304F0DD
:1004C8002CB94146204604F028F9F4E7585A0008A8
:1004D800A4650008905A0008E6620008565A000809
:1004E800615A0008A365000805282DE9F84F16BFD2
:1004F800304B314F53F82090DFF8C0B000F10108BD
:10050800044614BF53F82870A7F16409002259461D
:100518002046FFF7A7FF4FF0FF334FF0FF32484662
:1005280002F07EFC264900222046FFF79BFF4FF091
:10053800FF324FF0FF33384602F072FC04F0ECFE55
:1005480000230A22FFF724FE4FF0640AB0FBFAF5F5
:1005580008FB05F5192605F01F0505FB0665194971
:100568002A462046FFF77EFF284604F0BAF83846A8
:1005780002F026FD144900222046FFF773FF484683
:1005880002F01EFD04F0C8FE00230A22FFF700FE59
:10059800B0FBFAF008FB00F000F01F0000FB066655
:1005A8000A4920463246FFF75DFF304604F099F8C5
:1005B800ACE700BF585800084C0600207B5A0008DA
:1005C800925A0008A95A0008C05A0008D75A0008C9
:1005D8002DE9F047234A24492448254D90B004F0DA
:1005E8009CF8002141F2883002F0C2FD002455F841
:1005F800040B013404F05AFE062CF8D11D4D1E4E92
:10060800DFF878A01E4F00244FF0FF384FF0FF3975
:1006180004230493C4F1030303930023CDE90133B6
:1006280031465346CDE9068900944FF400622846C6
:1006380002F01AFB202123463A460DEB010004F094
:1006480079F808A9284602F0D1F90134284604F0BF
:1006580023FE062C05F1B00506F50466D8D110B0C6
:10066800BDE8F087EE5A0008F65A0008FE5A00085E
:10067800585800086000002040080020F1040008D5
:10068800465C0008014B1B68184700BF00000020AB
:10069800014B1860704700BF0000002007B50B46EB
:1006A800002102460091034800F0D8F903B05DF834
:1006B80004FB00BF8D06000830B587B00025CDE9E2
:1006C80003010446009503A90548059500F0C6F9FD
:1006D800DDE904309842B8BF255407B030BD00BFEB
:1006E800FD4600082DE9F04F87B083689B0000AFF6
:1006F8000B3323F00703C7F80CD0ADEB030DE94625
:100708006B469B084A460E463B61834604F01FF839
:1007180009EB8008044658F8042CB2424FEA8003DB
:100728005DD13568012D4DD97268002A4AD03A69E1
:10073800012825F00105C8BF58F8080C43F82250D5
:10074800D8BF002001346B68002B4ED109EB840A16
:100758005AF8083C00284DD041687B61A1EB060C93
:10076800DCF100012A4641EB0C0104F02BF87B690F
:100778009E4242D12A68336822F0010203F0010345
:10078800134333602B6803F0010333432B60736812
:100798006B60002373605AF8042C58F8043C48F83E
:1007A800042C32684AF8043C2B6822F0010103F05B
:1007B80001030B4333602B6802F0010223F00103AD
:1007C80013432B603268012A2ED9012C22F001052F
:1007D80034DCCBF800502B6843F001032B60D7F8CA
:1007E8000CD01C37BD46BDE8F08F49F824301D46B3
:1007F8000134A8E7CBF80050BAE75968481B4142D2
:1008080041413246184603F0DDFF32682B6802F09A
:10081800010123F001030B4333602B6822F001022E
:1008280003F001031343B1E7012C756828DCCBF80A
:100838000050002DCFD1CBF80850D0E7023C59F832
:10084800240041688C1B61422A46614103F0BAFFCB
:1008580032682B6812F0010F40F0F280D80700F1DF
:10086800ED807A497A4A7B484FF4F37304F047F9EC
:10087800794804F044F976484FF4F37104F038F9F4
:10088800A31E59F82300002DDBD112F0010200F05D
:10089800D08004F18043013B09EB830259F823100F
:1008A80052F804AC7961DAF80450A94202BFDAF8C8
:1008B800005025F001054FF00108296818BF4FF0D6
:1008C8000008C9071FD4214649F8235048467A60D2
:1008D800BB6003F080FFDAF800107A687B69536028
:1008E80021F00101CAF800102968BB6841F0010134
:1008F80059F823A029600134B8F1000F28D0DAF89C
:10090800005025F0010528686B68012820F00101D6
:1009180002D90A68D20750D513B11A68D2071FD571
:100928007B699E4204D100224146504603F04AFFAB
:100938002B6823F001032B60DAF80030D9070AD5B9
:10094800013C012CA5D1D9F80030CBF8003046E79E
:10095800DAF80450D7E743F00103CAF80030F2E7A9
:10096800B8F1000F57D001282AD804F18041013985
:100978008A0038697A6009EB810142F820504B609F
:100988004846611CBB6003F026FF2968BB687A688B
:1009980021F001012960196841F0010119603B69E2
:1009A80052F82350B8F1000F3DD0296821F0010119
:1009B800D7E9043042F8230007E0B8F1000F29D046
:1009C8000A68D2074FF00108CFD42B68DAF8002064
:1009D80023F0010302F0010213432B60DAF8003020
:1009E80043F00103CAF800300B6843F001030B60C1
:1009F80004F18043013B214649F82350484603F05F
:100A0800EAFE7B699E429ED100224146504603F091
:100A1800D9FE98E72BB11A686FEA020818F00108A6
:100A280003D10B46A1E76968C2E719464FF00008F1
:100A3800CBE741688D1B69426941E8E7D10701D5D9
:100A4800DA0780D443F001032B607CE7855C00085B
:100A5800665C0008A75C0008C45C00082DE9F04F3C
:100A6800814695B08B4617461C460025387808B94C
:100A7800284658E37B1C2528039306D05946C847C7
:100A88000028C0F250830135FBE1182200210EA88E
:100A980004F085F87B78252B7DD00023781C9846B8
:100AA8009E469C461E46014610F8012B2B2A00F054
:100AB800A18000F29880202A00F09F80232A00F06D
:100AC8009F802BB19DF8403043F040038DF84030B3
:100AD800B8F1000F05D09DF8403043F020038DF8A1
:100AE8004030BEF1000F05D09DF8403043F01003B0
:100AF8008DF84030BCF1000F05D09DF8403043F030
:100B080008038DF840302EB19DF8403043F00403BF
:100B18008DF840309DF8403003F04400442803D15C
:100B28006FF386138DF840309DF840302A2A43F041
:100B380080038DF840307FD19DF8412042F00102BA
:100B48004B1C8DF841201A782E2A9DF841200CBFA5
:100B58000121002161F341028DF8412078D15A78B2
:100B68002A2A6ED0013300224FF00A0C194611F8D8
:100B7800010BA0F13006092E40F295809DF8401037
:100B88001292C1F3400040EAD2700A4660F3410273
:100B98008DF840205CE0BA1C03928DF843309DF834
:100BA8004130DA0740F12E8154F8048BB8F1000F78
:100BB80007DA9DF8402042F004028DF84020C8F181
:100BC80000085E0740F1278154F804ABBAF1000F22
:100BD80080F226819DF841306FF341038DF8413052
:100BE8004FF0FF3A1CE12D2A0DD0302A7FF469AF6F
:100BF800012358E74FF0010C55E74FF0010E52E77B
:100C08004FF001084FE701264DE70EFB0262303A2C
:100C18000346184610F8016BA6F1300CBCF1090F19
:100C2800F3D999428FD09DF840101192D20F62F3F8
:100C380041018DF8401086E70B4600224FF00A0E5E
:100C4800E7E79DF8412042F004028DF84120023385
:100C58001A786C2A47D02BD8682A31D06A2A4BD008
:100C68004C2A51D01A4612F8013B0392782B9DF872
:100C780041208DF8433000F2BE806D2B51D8692B8E
:100C880000F2B980572B67D8412B03D0453B022B84
:100C980000F2B1809DF84230042262F302038DF81D
:100CA8004230012373E00CFB0202303A0B465DE749
:100CB800742A25D07A2AD5D19DF8412006210CE046
:100CC8005A78682A9DF8412006D1012161F3C602AD
:100CD8008DF841200233C5E7022161F3C6028DF881
:100CE80041200133BEE75A786C2A9DF8412001D192
:100CF8000421EBE70321F0E79DF841200521ECE70B
:100D08009DF841200721E8E7BDF8402022F4F04291
:100D180022F0020242F4804242F00202ADF8402082
:100D2800DFE76E3BD9B201238B4040F282410B4290
:100D380037D113F0240F51D1D8075CD59DF8423034
:100D4800032161F302038DF8423002F07803A3F126
:100D580040014B424B411AE0A3F15801C9B20120AE
:100D680000FA01F111F4624F94D140F601063142C4
:100D78001DD111F4043F3ED09DF8423060F30203C8
:100D880002F07802402A8DF8423034D000239DF8D2
:100D98004020C2F340010B4363F341028DF8402029
:100DA800FDE69DF84230022161F30203E8E79DF871
:100DB8004210022002F0780260F30201402A8DF806
:100DC800421002BF9DF8401041F001018DF840101B
:100DD800632BDBD1131E18BF0123D8E79DF84230DF
:100DE800032161F3020312F0780F8DF8423014BF2B
:100DF80001230023CBE79DF8403043F001038DF831
:100E08004030C3E79DF94020002AB4BFDDF8448094
:100E18004FF0FF38D5E698077FF5E2AEDDF848A039
:100E28009DF841100023CDE911339DF8423003F0BD
:100E38000703012BC1F3C30133D1CB1E042B04D804
:100E4800DFE803F0214646212100236801294FEA03
:100E5800E372CDE90E321CD19DF93830DA17CDE9AD
:100E68000E3204349DF8403013F0030650D0039B33
:100E78003A465946484603F024FE0028C0F25381FA
:100E88000544039FF2E554F8043BDA17CDE90E3226
:100E9800E8E70229E5D11AB243F3C033CDE90E23BE
:100EA800DFE7022B24D1CB1E042B04D8DFE803F0A4
:100EB800181010181800012954F8043B4FF00002CC
:100EC80014D00229CDE90E32CCD19BB20E93C9E7DA
:100ED800073424F00704F4E80223CDE90E23C1E720
:100EE80054F8043B0E9300230F93BBE7DBB2CDE726
:100EF800042B08D1073424F00704D4E9002308346C
:100F0800CDE90E23AEE7032BACD154F8043BDDE763
:100F18009DF843007828B4D862281CD825283FF4C7
:100F2800ADAD5828ADD10DF136030093DDE90E01C2
:100F380008AB10AA03F07FFDBAF1000F074680F254
:100F48009A80002F9DD00DF13603D81B002E00F09B
:100F5800C1800130BEE06338152892D801A252F84A
:100F680020F000BF41100008531000088B0E000845
:100F78008B0E00088B0E00088B0E0008531000081B
:100F88008B0E00088B0E00088B0E00088B0E0008D5
:100F9800E1100008791000089F1000088B0E000867
:100FA8008B0E0008C50F00088B0E0008791000088A
:100FB8008B0E00088B0E000879100008BAF1000F9C
:100FC8000E9F35DB5146384603F0D5FD07EB000A86
:100FD800002F3FF456AF00269DF8423013F0100260
:100FE800059200F0938002305B06119A48BF129B6D
:100FF8000492104448BFC018B8F1000F40F3A08015
:101008009DF84020A8EB0008C2F380035007069320
:1010180000F19680510640F189803EB1594630462C
:10102800C84700287FDB069B01351E4630227EE03C
:10103800384603F099FDC9E70E9B8DF8203000264D
:1010480008AF0DF1210A0120C6E719075CBFC3F3F9
:1010580000135E01DDE90E2348BF2B26002BBFF6E7
:1010680062AF524263EB4303CDE90E232D265AE7C4
:10107800002658E700269DF840200DF13603DB1BBB
:101088006FF386129A458DF840207FF65AAFAAEB87
:101098000303119355E70E9890B30DF136030093AF
:1010A80010AA08AB002103F0C6FCBDF8423003F0DB
:1010B800EF0343F4F04343F01003BAF1000F07467F
:1010C800ADF84230D6DA00283FF4DBAE0DF1360336
:1010D800181A00269A467FE70E9B07293FF6D1AEDD
:1010E800DFE801F00C04060C08080C0C1D70C8E6BB
:1010F8001D80C6E6EA17C3E90052C2E61D60C0E6D5
:101108002E4F064607F1050A052065E71A0748BF6E
:10111800013069E70793104606925946C8470028E8
:10112800DDE9062304DA15B0BDE8F08F2022434636
:101138001946002903F1FF33ECDC45446D1A984643
:101148002EB159463046C8470028ECDB01359DF8DA
:101158004230DA0601D41B0705D559463020C84766
:101168000028E0DB0135059B33B19DF84300594663
:10117800C8470028D7DB0135049E2E4405E05946B0
:101188003020C8470028CEDB0135731B002BF6DC66
:1011980053463A465946484603F093FC0028C2DBBA
:1011A8000544A844A8EB0503002B7FF76AAE59460F
:1011B8002020C8470028B6DB0135F3E7D75C0008D4
:1011C8000C4B1A6842F400721A601A6842F4806282
:1011D8001A604FF01002EFF3118382F31288BFF305
:1011E8006F8F83F31188BFF36F8F034B034A1A6025
:1011F80000207047003C0240380000200024F40022
:10120800014910220A60704710ED00E072B64040B4
:1012180080F31188BFF36F8FBFF34F8F30BF62B673
:10122800BFF36F8F704700BF40B2002807DB044A46
:101238004109012300F01F00834042F82130704724
:1012480000E100E038B54B1C0F2B04460D460FD9C2
:10125800114A124912485B2303F051FC11482946F0
:101268000F23224603F04BFC0B485B2103F040FCA4
:1012780040B20028ACBF00F160400B4A4FEA0313AC
:10128800B8BF00F00F00DBB2AABF00F561401354ED
:1012980080F8003338BD00BFDD5C0008135D00082E
:1012A800A75C00082E5D000814ED00E030BFFFF7D2
:1012B800FDBF00BF0F4A08B50F4B22F07F029A60AE
:1012C800BFF34F8FBFF36F8FD3F8882022F47002DB
:1012D800C3F88820EFF3148323F0040383F31488FE
:1012E800BFF36F8F01F0CEFA02F03CFF00F01EFA58
:1012F80001F010FB0000000800ED00E00A4A0B496D
:1013080093680968C3F8AC100949C3F8A8004B688A
:1013180043F080534B60002383F31188BFF36F8F32
:101328009368D3F8AC007047B8070020345A000817
:1013380000ED00E013498A684FF030001044EFF3E5
:10134800098C80E8F01F102080F31288BFF36F8F9C
:101358000D4F4FF000668A698A603E60D2F8A80097
:101368000023C2F8A83080F3118804B5104600F0B5
:1013780025FABDE8044002F1300090E8F01F8CF334
:1013880009887047B807002004ED00E01EF0040F3C
:101398000CBFEFF30880EFF30980816911F8021C94
:1013A8000229FFD001B503F0BCFB01BD42F8203C87
:1013B800009B42F81C3C0A49019B42F8183C029BDE
:1013C80042F8143C21F001014FF0807342F8043CCC
:1013D80042F8081C0023203A0265C0F8A83070477C
:1013E8002B4A00080A4A0346906878B113F1160F91
:1013F800D0F8980005D0A0F140029A4205D883425F
:1014080003D2814228BF002070470020704700BFE8
:10141800B807002008B5094B98600D46144600F03F
:10142800CDF9204685F30988002163B681F3118838
:10143800BFF36F8F0022002303F0F3FAB8070020F0
:1014480001B5EFF30580A0F110004FEAC000044990
:10145800014409C99847BDE801400249084700000E
:10146800CC54000871140008044B996898698842A4
:1014780003D003494FF080520A607047B807002034
:1014880004ED00E070B5254B14469A6A9A6A9A6A88
:10149800920705462AD5586B9A6A160626D519B1B9
:1014A8009A6A22F080029A629A6A9A6A9A6AD106BD
:1014B80002D49B6A9A072ED5184E73681B052AD545
:1014C8002946FFF78FFFA0B180F309880220134B4C
:1014D8009A6A920642BF5A6A22F400525A629A6A7B
:1014E80042F0FF029A620023237070BD6FF015006E
:1014F800DAE7B36AD9060ED509490A4A0A484FF409
:10150800AB7303F0FCFA094803F0F9FA05484FF405
:10151800AB7103F0EDFA0020D9E700BF00ED00E061
:10152800A85D00086E5D0008A75C0008F25D000871
:101538000D4B9A6A9A6A9A6A920508D59A6B9A6AC2
:10154800120404D518B19A6A22F400429A629A6A7F
:101558009A6AD205044A58BF9B6A936A002043F4EA
:101568007F4393620870704700ED00E070B55E4BF2
:101578005B688AB00546C3F30803002686F3118822
:10158800BFF36F8F02F07F40B0F17F4F08D102F0B8
:101598000C00082804D010074CBF0D46012675B969
:1015A8005249534A53484FF4846303F0A8FA524807
:1015B80003F0A5FA4FF484614D4803F099FA00222C
:1015C800033B8DF80720032B4BD8DFE803F0027D9F
:1015D8008185454BDA6A910743D4DA6A002A40DBF1
:1015E800DA6A520063D55A69A96942F480725A616D
:1015F800BFF34F8FBFF36F8F5A6931F8021C22F483
:1016080080725A61BFF34F8FBFF36F8F4DF602722E
:10161800914201D12C6825E09A6AD2B23AB10DF113
:10162800070201212846FFF72DFF04461AE09A6AAF
:1016380012F47F4F05D00DF107010120FFF778FF65
:10164800F3E79A6AB2F5803F24D39A6A9A6A9A6A4B
:101658009A6A9A6A9A6A9A6A6FEA02426FEA124228
:101668009A6200249DF8073093B92022294602A8DF
:1016780003F08AFA099B8EB3C3F3080222B96FEA12
:1016880053236FEA4323099302A9204603F047FA3C
:101698000AB070BD1949164A164840F2F22303F001
:1016A8002EFA174803F02BFA40F2F22184E7134987
:1016B8000F4A104840F2F62303F021FA114803F0CC
:1016C8001EFA40F2F62177E70DF107020021A9E79B
:1016D8000DF107010020B1E7034BB6E723F4FF73D0
:1016E80023F00103CFE700BF00ED00E0155E00081E
:1016F8006E5D0008A75C0008285E0008F964000811
:10170800665E00088A5E0008024A536943F01003C7
:101718005361704700ED00E0EFF30880EFF30981B3
:1017280001B57246FFF722FF01BD00BF0448002340
:101738001021C2180133562B82F80013F9D17047D3
:1017480000E100E000200A490870102080F31188A9
:1017580008484FF40461401880F30988EFF31480B7
:101768000221084380F31488BFF36F8FFFF7A2FDAF
:1017780009080020C0390020084B9B6883420BD120
:10178800EFF3058343B1064B5A6842F080525A6022
:101798005A6A22F400425A6202F018BCB8070020C4
:1017A80000ED00E0024B034A0348012100F072B843
:1017B800000002200000002070580008D0F898208F
:1017C800054B403A1A60054A4021C3E90112184600
:1017D800012100F085B800BF6006002000000B154D
:1017E800F0B5204E00258D4239DA446874B353B100
:1017F80004F1FF3C14EA0C0F2FD11F2C2DD90768D8
:101808001CEA070F29D1202C0768D0F808C05FFA16
:1018180082FE1ED9B4F1004F1DD8013CB4FA84F4FD
:10182800C4F11F046400BEF1070F4CEA040C14D87D
:1018380027F01F04144344F01004C6F89820C6F893
:101848009C404CF00104C6F8A040013201350C3030
:10185800C9E70824E7E73E24E5E76FF015021046DC
:10186800F0BD00BF00ED00E0044B0522C3F8942052
:10187800BFF34F8FBFF36F8F704700BF00ED00E0DD
:10188800BFF35F8F024B0022C3F89420704700BF5C
:1018980000ED00E038B50D4D01232A78FFF7A0FFD1
:1018A800287016300C460FD1094A0A490A484FF4E5
:1018B8008D7303F024F90948214603F020F9044800
:1018C8004FF48D7103F014F938BD00BF08080020EB
:1018D800BE5E0008F9640008A75C0008F55E000811
:1018E80010B5114A00231278FFF77AFF10F1160F8E
:1018F8000C4603D00D4A072810DD10BD0C4A0D49CF
:101908000D4840F2391303F0FAF80C48214603F069
:10191800F6F8074840F2391103F0EAF8C2F89800DF
:10192800C2F8A0300130E6E70808002000ED00E02A
:10193800BE5E0008F9640008A75C0008215F000883
:10194800254910B50C68082C10D9244A2449254883
:1019580040F2511303F0D3F821462348082203F03C
:10196800CEF840F251111D4803F0C2F8FFF788FF86
:1019780048681E490022944200F10C0016D11C4B05
:101988001C70FFF771FFD1F89030C3F30723082BC1
:101998001FD01849114A134840F2B71303F0AFF8A3
:1019A800154803F0ACF840F2B711DCE7C1F898200D
:1019B80050F80C3C23F01F03134343F01003C1F805
:1019C8009C3050F8043C43F00103C1F8A0300132C8
:1019D800D1E7002010BD00BF7C580008BE5E00089B
:1019E800F9640008A75C00084E5F000800ED00E0FD
:1019F80008080020825F0008D25F00082DE9F8433C
:101A08000D4F04460E4615464FF0010802F1040931
:101A1800B44201DBBDE8F8837A6908FA04F333EAD3
:101A2800020207D17B6155F834301BB159F83410E4
:101A3800204698470134EBE7003C0140044A012363
:101A4800116883400B431360024B1856FFF7ECBB39
:101A5800003C0140206000081F2806DC03490122E1
:101A68000B68824023EA02030B607047003C014088
:101A780003292AD8DFE801F0020E141F134B0122B4
:101A88009968824021EA02019960D96821EA020234
:101A9800DA6070470D4B0122996882401143F3E7E1
:101AA8000A4B0122D96882401143D960996821EA1A
:101AB80002029A607047012303FA00F0034B9A6808
:101AC80002439A60DA681043D8607047003C0140CE
:101AD80010B5074B044653F8300028B943F83410C2
:101AE80003EBC4035A6010BD6FF00F00FBE700BFA3
:101AF8006C060020034B002243F8302003EBC003A0
:101B08005A6070476C06002010B5204B18680B68A7
:101B1800442B144628D82F2B05D8013B052B0DD96B
:101B28006FF085001FE0A3F1300101228A401849B7
:101B38000A4216D1402BF3D1400812E0052BEFD80A
:101B480001A252F823F000BF771B0008831B00088E
:101B5800291B0008691B00088F1B00086B1B000865
:101B680000202060002010BDA82BFAD0D8E700F094
:101B780097F860235843C008F3E700F091F8602312
:101B880058430009EDE74FF4FA40EAE7380000202F
:101B98001101100070B53E4C00F098F800F050FDAF
:101BA800A3683C4AC3F30313D35C20FA03F53A480D
:101BB800854201D200F072FD236823F4802323605C
:101BC800236843F480332360314B1A689603FCD5AD
:101BD8005A6F42F001025A675A6F9407FCD59A6807
:101BE80002F00C02082A17D19A6822F0F0029A60D3
:101BF8001A68900707D41A6842F001021A60244A4A
:101C080013689907FCD5224B9A6822F003029A6060
:101C18009A6812F00C0FFBD11D4C236823F08073D7
:101C28002360636823F440336360636823F0706360
:101C380043F08063636000F037F8236843F08073F3
:101C4800236023689B01FCD5A36823F0F003A360FD
:101C5800A36823F0030343F00203A3600C4CA368BA
:101C680003F00C03082BFAD10B4EB54202D33046D1
:101C780000F014FD094B1E60A36823F4E05343F4FD
:101C88008053A360A36823F46043A360002070BD61
:101C9800003802409962000800D8B80538000020D2
:101CA8000048704700127A00054B06495A681140EF
:101CB800054A0A435A605A6822F440325A6070470B
:101CC800003802400080BFFF04184000064B1A6C21
:101CD80042F080521A641B6C82B003F08053019367
:101CE800019B02B0704700BF0038024008B50648A3
:101CF80003F0B7FA20B10548FEF7CAFC002008BD7A
:101D08006FF01200FBE700BFB4540008191D00086B
:101D18000A2838B5074D044604D1AB680D215B6825
:101D280028469847AB6803485B68E1B29847204665
:101D380038BD00BFB454000810B5036961B9204923
:101D4800204A21482A2302F0DAFE204802F0D7FE72
:101D58002A211C4802F0CCFE486850B91C49194A8F
:101D680019482B2302F0CBFE1A4802F0C8FE2B219B
:101D7800EFE79868F8B1884219D1DC68086898607C
:101D8800A14200D1D860002008602AB19A680A6090
:101D9800DA68996002B9D960002010E0814206D162
:101DA80008682060D8688142EDD1DC60EBE7044622
:101DB80000680028F2D1002AE8D16FF0150010BDA4
:101DC8008060000844600008A75C0008896000087B
:101DD80098600008AA60000838B50369044658608E
:101DE800084D284603F03DFA40B16168AB680C31F4
:101DF8001B682846984700EAE07038BD6FF012006B
:101E0800FBE700BFAC53000870B5D1E9016119B117
:101E180001250C68854001B970BD8A682A4010D038
:101E28004B6863B90A490B4A0B484D2302F067FE19
:101E38000A4802F064FE07484D2102F059FE304678
:101E480098471CB1236821461C46E4E72346FAE775
:101E5800C160000844600008A75C0008AA60000888
:101E6800F7B51746B7F5001F466802690C461D46C8
:101E780024D101F00302043292000F23934043EA75
:101E88009103DAB23349023251F82220190C02EADE
:101E9800134391FAA1F2B2FA82F2D340B2689A429D
:101EA80009D12046FFF7D8FD2046FFF723FE002181
:101EB8002046FFF7DDFD002003B0F0BDB7F5800F29
:101EC80041D025492046FFF703FE00283ED1234A8A
:101ED800B66892E803006B4683E8030020488268EE
:101EE800194612689047C0B904F0030304339B00F5
:101EF8000F229A4042EA9402D3B29B0003F1804336
:101F080003F59C33110C986820EA124091FAA1F26B
:101F1800B2FA82F2964006439E60B5F1806F0ED009
:101F2800B5F1C06F0DD005F17E43594259414900C2
:101F38002046FFF79DFD2046FFF780FDBBE7012106
:101F4800F6E70321F4E76FF08500B5E76FF00F00BF
:101F5800B2E700BF00380140111E000850580008C1
:101F6800AC5300084268116801F1140353E8003FBC
:101F780043F0010301F1140C4CE800300028F3D1C0
:101F880013680E498B4207D0A1F54C418B4203D010
:101F980001F550418B4203D1196941F040011961A3
:101FA800126802F10C0353E8003F43F4807302F116
:101FB8000C0040E800310029F3D1704700100140BF
:101FC8004268116801F1140353E8003F23F001034C
:101FD80001F1140C4CE800300028F3D113680E49C5
:101FE8008B4207D0A1F54C418B4203D001F55041FB
:101FF8008B4203D1196921F040011961126802F17D
:102008000C0353E8003F23F4807302F10C0040E80E
:1020180000310029F3D170470010014073B50369FE
:10202800446858688368DB680E4661687BB301AA18
:10203800984700282BDB22680198D368192123F4DC
:102048000043D360A0FB0101B200B30FFEF7A0F874
:102058006422B0FBF2F102FB11031B012568323345
:10206800B3FBF2F303EB01139BB2AB6023689B68ED
:10207800102B0CD80749084A0848BE2302F03FFD38
:10208800074802F03CFD0448BE2102F031FD02B0D1
:1020980070BD00BF6C6100083D610008A75C0008C6
:1020A80088610008F7B50769446806463A487860C9
:1020B80003F0D7F820B96FF01205284603B0F0BD39
:1020C8007868616883681B68984705460028F4D1DA
:1020D800014601AAA06903F076F8002801DA05464E
:1020E800EBE7019B2A461979186800F053FA002893
:1020F800F5DB2268D36823F40053D360B86803F093
:10210800B0F80028D7D0D7E902018368DB6803B1AB
:102118009847216801F10C0353E8003F43F00C0392
:1021280001F10C0040E80032002AF3D12369022BA8
:102138002DD0012B12BF00204FF480504FF4C06205
:102148002168CB68104323F4B0530343CB600B6979
:1021580023F440530B61237B2BB173681A685369CE
:1021680043F44073536139683046FFF757FF237DC6
:1021780023B12268536943F0080353612268D36886
:1021880043F40053D360E3693046984795E74FF42A
:1021980080504FF48062D3E7AC5300082DE9F0413A
:1021A8000B7945680669012B0C467DD09A1E57426B
:1021B8005741BF02627994F80680022A96BF4C49BB
:1021C8004FF4005C31F812C0B8F1040F7BD094F8DA
:1021D80007E0002B6BD1BEF1010F22F002027FD085
:1021E800002A70D0B8F1020F6DD91946D5F80080D1
:1021F800BEF1000F0DD03F4A904507D0A2F54C42E2
:10220800904503D002F5504290455CD1BEF1010FD4
:1022180059D1D8F80C2022F40052C8F80C20426892
:10222800D2F800E0DEF80C2002F4C06297421FBF2B
:10223800DEF80C2022F4C0623A43CEF80C20426843
:1022480017683A6902F4405294451FBF3A6922F46C
:10225800405242EA0C023A6142681768FA6802F48E
:1022680080529A421FBFFA6822F480521343FB60DF
:1022780043681A68536903F4407399421FBF53694E
:1022880023F440730B43536121683368994203D0A8
:10229800FFF7C4FE236833602A68D36843F4005309
:1022A800D3600020BDE8F0814FF4C06782E7033BAC
:1022B800BEF1010FDBB209D1012B04D94FF44071F3
:1022C80012F0FD0F06D16FF08500EBE7012BFAD96C
:1022D8000021F5E7B8F1020FF5D94FF4805385E7EF
:1022E800002AF0D0B8F1020FEDD94FF440717DE724
:1022F800505A00080010014010B54FF0E0239A69C9
:1023080019699869094B11F4803F094901D1824242
:1023180006D21A680C6822441A604FF0E02212694B
:102328001B680A681344181A10BD00BFA4070020D0
:10233800B0070020094B102283F82320084B42F2F3
:102348007F521A60074B002018604FF0E0235A6153
:1023580098611A6942F007021A61704700ED00E0BF
:10236800B0070020A407002008B5FFF7C5FF0C4BF5
:102378000C4A186811680844106000221A600A4A5A
:1023880013684FF41651C01AB0FBF1F001FB00338B
:10239800136002F0B1F8BDE80840FFF765B800BF68
:1023A800A4070020AC070020A80700202DE9F04171
:1023B800434E79B3421C0AD14FF0E022136923F04F
:1023C800010313614FF07F433360BDE8F081346847
:1023D800012825DD40F2D268404501DC00F1FF38D4
:1023E8004FF01003EFF3118583F31288BFF36F8F5B
:1023F800344800F00BFBB0B9334A344934489423CD
:1024080002F07DFB2F49334802F079FB94212E48D6
:1024180002F06EFB431C3468DAD140F2D260DDE78B
:102428004FF00008DCE727482B4F00F00DFBFFF7C3
:1024380063FF4FF0E0230021D3F818C03B68C218AF
:10244800264B1960264B1B68D11A31D44FF416500D
:1024580000FB081101F515519B1A3F31B1FBF0F152
:1024680000FB0133B3F5806F22D91E498B4228BF88
:102478000B464FF0E02133608869013B4B61002334
:1024880084458B61ACEB000338BF1B191A440D4817
:102498003A6000F0C9FA70B90B4A13490C48C223D4
:1024A80002F02DFB0749114802F029FBC221AEE7D3
:1024B8004FF48063DDE785F31188BFF36F8F84E7FE
:1024C800B0070020B4070020B7610008E4610008E5
:1024D800A75C0008F9610008AC070020A4070020E9
:1024E800A807002000C3FF00116200082862000846
:1024F80038B54FF01003EFF3118583F31288BFF35B
:102508006F8F1B4800F082FA68B91A4A1A491B48AB
:10251800942302F0F4FA1649194802F0F0FA9421CB
:10252800144802F0E5FA124800F08EFAFFF7E4FECC
:10253800144B1C68144B1B68E41A04440C4800F044
:1025480073FA58B90B4A11490C48C22302F0D7FA5A
:1025580007490F4802F0D3FAC221E1E785F3118851
:10256800BFF36F8F4FF41650B4FBF0F038BD00BFC7
:10257800B4070020B7610008E4610008A75C000800
:10258800F9610008AC070020A807002011620008C4
:10259800286200082DE9F047254F044600EBC106E4
:1025A8000025B44201D1002014E02068C30600F0E1
:1025B8001F0811D4656845F02005C0F3471AC0F319
:1025C80043200A2830D857F82090B9F1000F1AD1C3
:1025D8006FF01200BDE8F087B8F1100F11D0B8F114
:1025E800110F01D16568E8E7B8F1000FE5D111498D
:1025F8001148124AF22302F082FA1048F22102F03E
:1026080077FA3025D9E7484602F02BFE0028DFD0BC
:1026180043462A460AF00F01484602F058FC0028B3
:1026280004F10804BDDAD5E76FF01500D2E700BF62
:10263800F459000870620008A75C00083D620008B1
:1026480008B513498B6803F00C03042B1CD0082B26
:102658001CD14A684B68496813F4800314BF0D48BD
:102668000D48C1F3881118BF002302F03F02A1FBF7
:102678000001FDF78DFD064B5B68C3F30143013391
:102688005B00B0FBF3F008BD0248FCE70248FAE73C
:102698000038024000127A000024F400002876D0A6
:1026A8003C4B1A6802F44042B2F5404F20D13A4AF6
:1026B800904215D8394A904207D91A6802F4404224
:1026C800B2F5004F5CD102201FE0354A90421A68EB
:1026D80002F4404247D9B2F5004F4CD1012014E032
:1026E8001A6802F44042B2F5004F3FD103200CE0D3
:1026F8001A6802F44042B2F5004F22D1274A9042AC
:102708003ED8274A90422ED90020224B1B68012828
:1027180038BF012003F44043B3F5804F1FD0214A4E
:10272800136823F0070303431360136803F00703D8
:1027380098421CBF136803F00703C01A18BF012092
:1027480070471B6803F44043B3F5804F0CD1134B1B
:1027580098421AD8124B98424FF00000DFD901284E
:1027680038BF0120DBE71B680020D8E71B6803207F
:1027780003F44043D0E71B68012003F44043CBE750
:102788001B68022003F44043C6E70220C7E7012084
:10279800704700BF00700040804A5D050090D0037C
:1027A80080C3C901003C0240F8B504460E464FF00C
:1027B8001003EFF3118783F31288BFF36F8F01F0D3
:1027C800FFFB31460546204602F05FFD042C0CD184
:1027D8000A490B4A0B48932302F091F90A4802F080
:1027E8008EF90748932102F083F987F31188BFF324
:1027F8006F8F2846BDE8F840FEF7BEBFCB620008E1
:10280800A9620008A75C0008E86200080F4B70B5D1
:1028180053F82040013053F82060A64200D870BD1C
:10282800D4E90035284698476DB138B10028B8BFBB
:102838004042EB68FF28A8BFFF201870EA68537869
:1028480043F0010353700834E7E700BF385A000823
:1028580008B50A4B012203201A70FFF7D7FF01F0D1
:1028680039FF0420FFF7D2FF00F044FAFDF7B0FE6D
:10287800034A137B23F00103137308BD09080020E2
:102888003005002008B50348034A0021121A02F057
:10289800FFFC08BD600000200C08002070B5174E32
:1028A800174D184986B0B02303FB0066164B0593F5
:1028B80001222823CDE903320023CDE9013318236F
:1028C80003FB005504464FF4C07000FB04110F4B86
:1028D80000954FF4A072304600F012F9737B0C4A51
:1028E800EE6023F0040373734FF4046304FB0333B3
:1028F80013442C756B6006B070BD00BF80040020C7
:10290800B8070020004200201D630008E12D0008E0
:10291800C039002080B50020B2B0FFF777FF2C4BFC
:1029280083F308882B4D2C4E6B692C4F43F40073AE
:102938006B610024F02385F82230EC772C766C76D6
:10294800AC7685F820406B6A43F4E0236B62FEF7AF
:10295800DBFEFEF755FC4FF0FF33AB62EB62FEF790
:10296800EFFFFEF71FFF40F20113ADF8243006AB6E
:10297800B360CDE92C442F9402F072FC0120FFF7DC
:1029880045FF0220164DFFF741FF01F0C9F9154B2D
:10299800B5610593012314490094CDE903434FF42D
:1029A80080623B46CDE90144284600F0A9F86A7BDD
:1029B800064622F0040228466A7300F047FE2046C5
:1029C800FFF76CFF3A4631462846FEF723FD00BF65
:1029D8000042002000ED00E0B80700205928000858
:1029E80030050020226300088043002010B504460B
:1029F80008B9054B9C681F2204F1740002F0A0F886
:102A0800002084F8930010BDB8070020006838B192
:102A1800044B1B7D00F00300C01A18BF012070474B
:102A280001207047B8070020064A117D92680A43C2
:102A38000168034691424FF0000004BF186001206E
:102A4800704700BFB8070020024B1A7D9B681343EC
:102A580003607047B807002010B501464FF0100317
:102A6800EFF3118483F31288BFF36F8F1C48FFF7CD
:102A7800CDFF68B91B4A1C491C48942302F03FF853
:102A880017491B4802F03BF89421164802F030F829
:102A98001348FFF7D9FF174AD36A8B4212D11B6F2D
:102AA800D3620F48FFF7C0FFA0B90E4A12490F487A
:102AB800C22302F024F80A49104802F020F8C22183
:102AC800E3E71346002BECD01A6F8A42F9D10A6F5C
:102AD8001A67E6E784F31188BFF36F8F10BD00BF54
:102AE800E8070020B7610008E4610008A75C000857
:102AF800F9610008B8070020116200082862000880
:102B08002DE9F04F85B0DDE91086282EDDE90EA904
:102B1800139F04469B4643D1474B9B4544D104F140
:102B280058030732C4E9163322F00702129B2373B5
:102B3800A673042302F14006002563730E4401F1D5
:102B48004003C4E92632C4E90655A560E573C4F814
:102B5800A0505B46CDE90198CDF800A0324620464A
:102B6800FEF724FCC4E918BAC4E91A9865654FF061
:102B78001003EFF3118983F31288BFF36F8F2F4887
:102B8800FFF744FF18BB2E4A2E492F48942301F023
:102B9800B6FF2A492D4801F0B2FF9421284814E0D5
:102BA80006F11D03442BBAD9294A2A4926484FF46D
:102BB800067301F0A4FF284831466FF01C03272252
:102BC80001F09DFF22484FF4067101F091FFDFF8F4
:102BD8008C801A48FFF738FFD8F82C302367C8F8DC
:102BE8002C40FFF721FF58B9154A1D491648C22342
:102BF80001F085FF11491B4801F081FFC221CDE793
:102C080089F31188BFF36F8F97B11F22394604F1FA
:102C1800740001F095FF84F89350D8F808300BB190
:102C2800D3F8A430C4F8A430304605B0BDE8F08F1E
:102C380084F87470F1E700BFE12D0008E807002070
:102C4800B7610008E4610008A75C0008F9610008A2
:102C58002A6300087E630008FE630008B8070020A6
:102C68001162000828620008F0B587B0DDE9127625
:102C78000446EFF3058575B119491A4A1A4840F216
:102C8800872301F03CFF194801F039FF154840F24D
:102C9800872101F02DFF0595109D04950F9D039543
:102CA8000E9D02950D9D01950C9D0095FFF728FF3F
:102CB800B6F1FF3F08BFB7F1FF3F05D056EA07035B
:102CC80005D1204600F008FD204607B0F0BD0849B0
:102CD8003A46334604F1180001F0ACFAF4E700BFB5
:102CE8002F6400082A630008A75C000841640008F4
:102CF80085370008F0B5314C314D87B0AC422646D7
:102D08002AD93049304A314840F2EE2301F0F7FE23
:102D18002F4801F0F4FE40F2EE212B4801F0E8FEC6
:102D280054F8043C059354F8103C049354F8143CAC
:102D3800039354F8183C029354F81C3C019354F83C
:102D4800203C009354E90A2354E90C01FFF7D8FE0C
:102D580054F8303C5E65D1E7AE4204F13004DFD36D
:102D680000F0A4FA154C1B4F0A26AC4220D915498D
:102D7800154A164840F20D3301F0C1FE144801F01F
:102D8800BEFE40F20D31C8E7626A531C09D022EA40
:102D9800E27282FB062352EA0301206803D100F0A5
:102DA8009BFC3034E1E73946183001F043FAF8E784
:102DB800EAD307B0BDE8F04000F0E4BA7C57000859
:102DC8007C570008666400082A630008A75C0008AE
:102DD800936400088537000808B50D4B9B6893F984
:102DE8000E30002B09DA0B490B480C4A272301F057
:102DF80086FE0A48272101F07BFE4FF01002EFF310
:102E0800118382F31288BFF36F8FFEF7FFF9F4E79F
:102E1800B8070020D3640008A75C0008B264000863
:102E28002DE9F341044617461E46EFF3058565B1C3
:102E38005849594A5948652301F061FE584801F03C
:102E48005EFE5548652101F053FE4FF01003EFF385
:102E5800118883F31288BFF36F8F5248FFF7D6FDAE
:102E680060B9514A51494D48942301F048FE4D49F3
:102E78004F4801F044FE94214B48E4E74948FFF7E6
:102E8800E3FDE3684B4A9BB1A0689168884227D06C
:102E980057EA06032CD14348FFF7C6FDA0B188F3D3
:102EA8001188BFF36F8F6FF00F0002B0BDE8F0819B
:102EB800916891F90E103B4821610133E3609368F2
:102EC800A360FFF7B1FD68B9374A3B493348C223CD
:102ED80001F015FE3349394801F011FEC221CBE754
:102EE8002169E8E788F31188BFF36F8F0020DCE7DA
:102EF80091F90E1090F90E309942A8BF19466FF05B
:102F08007E029142B8BF11468B4202DD02F0C6F93B
:102F18000546CDE9007623482246414600F0B2FD39
:102F28000028E3D04FF01003EFF3118683F31288E3
:102F3800BFF36F8F1B48FFF769FD002891D0194830
:102F4800FFF782FDA068C0B1236821699C420AD0BE
:102F58004BB193F90E309942A8BF19466FF07E0322
:102F68009942B8BF194602F099F930B10D48314677
:102F780000F05AF96FF00A0097E7002DF6D10948DA
:102F8800FFF752FD00289FD086F31188BFF36F8F9B
:102F9800F0E700BF2F640008FB640008A75C000886
:102FA8001D650008EC070020B7610008E46100080F
:102FB800F9610008B80700201162000828620008BB
:102FC80070B50446EFF3058666B13849384A394882
:102FD800CD2301F094FD384801F091FDCD2134480E
:102FE80001F086FD8368002B5AD0344A92689342D8
:102FF80059D1C3683BB932492D4A2E48E52301F01F
:103008007EFDE521EBE7012B03D0013BC3600020E7
:1030180070BD4FF01003EFF3118583F31288BFF3EF
:103028006F8F2848FFF7F2FC60B9274A27492148E3
:10303800942301F064FD2349254801F060FD9421A3
:103048002148CDE71F48FFF7FFFC2169A06802F07F
:1030580025F9204600F04AFAA06058B190F90E20F0
:103068002261C0F8AC6000F0F1FA1648294600F079
:10307800DBF8CCE7E0601348FFF7D6FC58B9124AF2
:1030880014490C48C22301F03AFD0E49124801F0D8
:1030980036FDC221D4E785F31188BFF36F8FB6E7F9
:1030A8006FF01500B4E74FF0FF30B1E72F64000868
:1030B800FB640008A75C00081D650008B80700202D
:1030C80042650008EC070020B7610008E4610008C9
:1030D800F9610008116200082862000838B5074D38
:1030E8002C6854B1FFF704FA054B04441C612868A6
:1030F8000021BDE8384001F0AFB938BDF80700201D
:10310800B807002070B5002106461348134D01F09A
:10311800B6FB044600B9EC68AB68AEB963B91049B0
:10312800104A1148892301F0EAFC104801F0E7FC35
:103138000C48892101F0DCFC5A7BD20604D1A26933
:1031480012B9DA897F2A05D89C4202D02046FFF7B7
:10315800C5FF2346AB6170BDD4070020B807002027
:103168007B65000859650008A75C0008A26500088F
:1031780070B504460D464FF01003EFF3118683F344
:103188001288BFF36F8F1E48FFF740FC68B91D4ACD
:103198001D491E48942301F0B2FC19491C4801F04E
:1031A800AEFC9421174801F0A3FC1548FFF74CFC2E
:1031B8000A23002C04FB03F302DD022BB8BF022311
:1031C800144A00211161144990680B60134B1D606B
:1031D800FFF784FF0A48FFF727FC58B9094A104946
:1031E8000A48C22301F08BFC05490E4801F087FC10
:1031F800C221D7E786F31188BFF36F8F70BD00BF78
:10320800FC070020B7610008E4610008A75C00081B
:10321800F9610008B8070020F8070020F40700202B
:10322800116200082862000870B504460D46E9B925
:10323800EFF30586D6B9184B9A699B689A4215D060
:10324800FFF7F2FB68B9154A15491648E12301F062
:1032580056FC2146144801F052FCE1210F4801F0C8
:1032680047FC3046BDE87040FEF748B82046FFF7F7
:10327800DBFB58B9094A0A490A48C22301F03FFC56
:103288002146094801F03BFCC221E7E785F3118894
:10329800BFF36F8F70BD00BFB8070020B76100088B
:1032A80011620008A75C00082862000810B54FF0FA
:1032B8001003EFF3118483F31288BFF36F8F25484F
:1032C800FFF7A4FB60B9244A24492548942301F058
:1032D80016FC2049234801F012FC94211E4810E0F6
:1032E8001C48FFF7B1FBEFF3058363B11E491F4A82
:1032F8001B48FD2301F003FC1D4801F000FCFD21E3
:103308001A4801F0F5FB1B4B9A68D37B012B0AD1B5
:103318001949164A1248FE2301F0F1FB144801F03E
:10332800EEFBFE21ECE7013BD3730A48FFF77CFB79
:1033380058B9094A11490A48C22301F0E0FB054976
:103348000F4801F0DCFBC221C8E784F31188BFF302
:103358006F8F10BDFC070020B7610008E46100080A
:10336800A75C0008F96100082F640008A56500083B
:10337800A2650008B8070020D0650008116200089F
:103388002862000810B54FF01003EFF3118483F39F
:103398001288BFF36F8F2948FFF738FB60B9284AB6
:1033A80028492948942301F0AAFB2449274801F019
:1033B800A6FB9421224813E02048FFF745FB244B45
:1033C8009A68D37B73B92349234A1F4840F2E733ED
:1033D80001F095FB214801F092FB40F2E7311E48CD
:1033E80001F086FBEFF3058060B11D491A4A1648C3
:1033F8004FF47A7301F083FB184801F080FB4FF417
:103408007A71ECE70133D373FFF77CFE0B48FFF7C3
:103418000BFB58B90A4A13490B48C22301F06FFB4A
:103428000649114801F06BFBC221C3E784F31188F8
:10343800BFF36F8FBDE8104001F05DBFFC070020AF
:10344800B7610008E4610008A75C0008F96100089A
:10345800B80700200166000859650008A265000841
:103468002F640008116200082862000808B50B4B99
:1034780099420BD10A490B480B4A40F2734301F0B9
:103488003EFB094840F2734101F032FBD1E90032BA
:1034980013605A600023C1E9003308BD800400208E
:1034A80032660008A75C00085965000810B5044694
:1034B800806858B90A490B480B4A40F2D62301F0F4
:1034C8001EFB094840F2D62101F012FB2146FFF706
:1034D800CDFF637B23F0020363730023A36010BD59
:1034E80053660008A75C00085965000870B50546D2
:1034F8004FF01003EFF3118683F31288BFF36F8F39
:103508001B48FFF783FA68B91A4A1B491B489423DA
:1035180001F0F5FA16491A4801F0F1FA9421154814
:1035280001F0E6FA1248FFF78FFA2C68A54217D087
:1035380034B12046FFF7BAFF04F1180000F040FF4D
:103548000B48FFF771FA68B90A4A0E490B48C223BB
:1035580001F0D5FA06490C4801F0D1FAC221DEE79C
:103568000024EDE786F31188BFF36F8F204670BD06
:10357800FC070020B7610008E4610008A75C0008A8
:10358800F96100081162000828620008B0B51E4BF6
:1035980084B09942044600AF0D460BD11B491C4824
:1035A8001C4A40F29B4301F0AAFA1A4840F29B4198
:1035B80001F09EFAC3685A1CC2600B61C368BBB9AC
:1035C80083689A00073222F007020733ADEB020D39
:1035D80023F00703C7F804D0ADEB030D4FF0FF331A
:1035E800C7F808D0FB60391D204601F0EFF930B963
:1035F8002946204601F050F91037BD46B0BDE368B2
:103608005A1CE2600361EEE780040020326600087D
:10361800A75C00085965000810B590F90D20437B98
:10362800002A01460EDBDA060CD1846954B963F02E
:103638007F0343730448FFF7A9FF2046BDE8104005
:10364800FFF760BD10BD00BFD407002038B50446A1
:103658004FF01003EFF3118583F31288BFF36F8FD8
:103668001648FFF7D3F968B9154A1649164894233E
:1036780001F045FA1149154801F041FA9421104822
:1036880001F036FA0D48FFF7DFF92046FFF7C4FFCF
:103698000A48FFF7C9F958B9094A0D490A48C22327
:1036A80001F02DFA05490B4801F029FAC221E6E795
:1036B80085F31188BFF36F8F38BD00BFFC0700206A
:1036C800B7610008E4610008A75C0008F961000818
:1036D800116200082862000838B504464FF010034C
:1036E800EFF3118583F31288BFF36F8F1C48FFF740
:1036F8008DF968B91B4A1C491C48942301F0FFF94D
:1037080017491B4801F0FBF99421164801F0F0F91C
:103718001348FFF799F9637B5A0714D41048FFF749
:1037280083F958B90F4A13491048C22301F0E7F941
:103738000B49114801F0E3F9C221E6E785F3118846
:10374800BFF36F8F38BD23F0040320466373FFF780
:1037580063FF29460248BDE83840FFF765BD00BF52
:10376800FC070020B7610008E4610008A75C0008B6
:10377800F9610008116200082862000870B5044663
:103788004FF01003EFF3118683F31288BFF36F8FA6
:103798001F48FFF73BF968B91E4A1F491F48942381
:1037A80001F0ADF91A491E4801F0A9F99421194808
:1037B80001F09EF91648FFF747F914F80B3C13F08F
:1037C800280F10D154F8103CA4F1180513B128465D
:1037D800FFF76CFE14F80B3C23F0140304F80B3CC1
:1037E8002846FFF719FF0A48FFF71EF958B9094A92
:1037F8000C490A48C22301F082F905490A4801F038
:103808007EF9C221D3E786F31188BFF36F8F70BDAD
:10381800FC070020B7610008E4610008A75C000805
:10382800F961000811620008286200080B4B8B42FE
:1038380010B504460BD10A490A480B4A4FF496635F
:1038480001F05DF908484FF4966101F051F9FCF771
:1038580049FF236803B9E36010BD00BF800400205E
:1038680032660008A75C00085965000810B590F991
:103878000D20437B002A044606DA03F07F034373D6
:1038880001460A48FFF7D2FF637B084863F07F03CD
:1038980063732146FFF77AFE054B9868031B58426D
:1038A800BDE810405841FFF72DBC00BFD4070020E9
:1038B800B807002070B505464FF01003EFF31186E6
:1038C80083F31288BFF36F8F2948FFF79FF868B911
:1038D800284A29492948942301F011F924492848FC
:1038E80001F00DF99421234801F002F92048FFF76F
:1038F800ABF8244B244A9C6811688C4212D12046AC
:10390800FFF7ECFB1A48FFF78FF858BB194A1F4915
:103918001A48C22301F0F3F815491D4801F0EFF8E1
:10392800C221E0E7002111601A4A1268C2B1E28997
:103938007F2A15D8627BD20612D1174A94F90E1045
:10394800126891420CDB154A944209D01A69AA42BE
:1039580003DC2046FFF78AFFD1E7521B1A61D1E743
:103968000022FBE786F31188BFF36F8F70BD00BF9D
:10397800FC070020B7610008E4610008A75C0008A4
:10398800F9610008B8070020F0070020116200085C
:1039980028620008F8070020F407002080040020AF
:1039A80010B590F90D20437B002A044606DA03F08F
:1039B8007F03437301460648FFF738FF054B9868B5
:1039C800031B5842BDE810405841FFF79BBB00BF9E
:1039D800D4070020B807002038B504460D46FFF785
:1039E800DFFF637B43F0020363734DB3154BA560A0
:1039F8009C4209D114491548154ABA2301F07FF8A9
:103A08001348BA2101F074F82B689D4209D16B68FC
:103A1800C4E900531C606C6012E06A689342F6D0F7
:103A28001B68002BF3D094F90E2093F90E108A42EC
:103A3800F3D09142F1DD5A68C4E9003214605C6049
:103A480038BD00BF8004002032660008A75C00086B
:103A58005965000870B515461C460646FFF7BCFFB9
:103A6800B4F1FF3F08BFB5F1FF3F08D02A4623460F
:103A780006F118000249BDE8704000F0DBBB70BDDC
:103A8800853700082DE9F047DFF8B8A02E4C2F4BFA
:103A98001746A042DAF808201A60DDE908890546C9
:103AA8000E460BD12A492B482B4A40F24E3301F0DF
:103AB80026F8294840F24E3101F01AF84FF010026A
:103AC800EFF3118382F31288BFF36F8F2046FEF75E
:103AD8009DFF60B9214A22491E48942301F00FF83E
:103AE8002146204801F00BF894211C48E4E72046C1
:103AF800FEF7AAFFDAF8080042464B463946FFF7B8
:103B0800A9FF2846FEF790FF58B91749134A1148EC
:103B1800E12300F0F4FF2946144800F0F0FFE1210A
:103B2800E3E72046FEF780FF38B90F490B4A0948FA
:103B3800E12300F0E4FF2146EEE73046BDE8F04718
:103B4800FDF7DCBBB8070020FC070020F0070020C9
:103B58006A660008A75C000859650008B761000894
:103B6800E4610008F9610008116200082862000891
:103B7800F8B504460D464FF01003EFF3118783F3B1
:103B88001288BFF36F8F2448FEF740FF064668B9D6
:103B9800224A23492348942300F0B1FF1E492248B2
:103BA80000F0ADFF94211D4800F0A2FF1A48FEF76F
:103BB8004BFF637BDA066DB224D1A26912BB03F016
:103BC8007F031A4863732146FFF730FE637B17486B
:103BD800A57363F07F0363732146FFF7D7FC0120C9
:103BE800FFF790FA0C48FEF71FFF70B90B4A10490F
:103BF8000C48C22300F083FF07490E4800F07FFFFE
:103C0800C221D0E7A5730026ECE787F31188BFF33C
:103C18006F8F3046F8BD00BFFC070020B761000871
:103C2800E4610008A75C0008F9610008D4070020D7
:103C3800116200082862000870B50446183000F0C8
:103C4800BFFB4FF01003EFF3118683F31288BFF325
:103C58006F8F2448FEF7DAFE68B9234A23492448BF
:103C6800942300F04CFF1F49224800F048FF94219C
:103C78001D4800F03DFF1B48FEF7E6FE94F90D20B5
:103C8800637B002A06DA03F07F031B48637321462F
:103C9800FFF7CCFD194D637BA86843F010036373ED
:103CA800031B58425841FFF72DFA0E48FEF7BCFE99
:103CB80058B90D4A12490E48C22300F020FF09499D
:103CC800104800F01CFFC221D2E786F31188BFF329
:103CD8006F8FAB68A34203D1BDE8704001F00BBB06
:103CE80070BD00BFFC070020B7610008E461000850
:103CF800A75C0008F9610008D4070020B807002075
:103D0800116200082862000810B51022044600213C
:103D1800043000F044FF014BA36010BDC3520008FB
:103D280008B50448FFF7F0FF0021BDE80840084641
:103D3800FFF71EBAD007002038B5EFF3058373B13B
:103D48002A492B4A2B484FF4AE6300F0D8FE2A4884
:103D580000F0D5FE26484FF4AE6100F0C9FE4FF0E2
:103D68001003EFF3118583F31288BFF36F8F234895
:103D7800FEF74CFE60B9224A22491E48942300F0FF
:103D8800BEFE1E49204800F0BAFE94211C48E4E714
:103D98001E4C1A48FEF758FEA1684B7B03F07F03C0
:103DA8004B7304F11C00FFF741FDA1684B7B63F0E6
:103DB8007F034B7304F11C00FFF7E8FB0120FFF7BA
:103DC800A1F90E48FEF730FE58B90D4A10490948C6
:103DD800E12300F094FE09490E4800F090FEE1212D
:103DE800D4E72846BDE83840FDF788BA2F640008B4
:103DF80059650008A75C0008A2650008FC070020B8
:103E0800B7610008E4610008F9610008B8070020FC
:103E180011620008286200082DE9F04105460E46A7
:103E2800EFF305836BB13F493F4A404840F28C535A
:103E380000F065FE3E4800F062FE40F28C513A48C0
:103E480025E050EA010303D1FFF776FF002066E082
:103E5800821C71F1FF331CDB01F05AFA2C184FF069
:103E68001003EFF3118883F31288BFF36F8F314883
:103E7800FEF7CCFD88B9304A30492C48942300F02D
:103E88003EFE2C492E4800F03AFE94212A4800F0C4
:103E98002FFE6FF00104241AE1E72A4F2548FEF7A8
:103EA800D3FD294BB8681860FFF77AFDB868274931
:103EB8002A463346183000F0BDF9BA681D48537BCE
:103EC80043F010035373FEF7AFFD58B91A4A20495F
:103ED8001648E12300F013FE16491E4800F00FFEB5
:103EE800E121D3E74046FDF709FABB685B7BDB06B7
:103EF8000CD519490C4A0D484FF4B56300F0FFFD85
:103F08000B4800F0FCFD4FF4B56198E701F000FAAA
:103F1800201A63EB0303012873F1000396DBBDE865
:103F2800F08100BF2F64000859650008A75C0008ED
:103F3800A2650008FC070020B7610008E4610008DA
:103F4800F9610008B8070020F0070020853700084D
:103F58001162000828620008A166000808B5EFF39E
:103F6800058373B11149124A124840F2B75300F061
:103F7800C6FD114800F0C3FD0D4840F2B75100F0EE
:103F8800B7FDB1F1FF3F08BFB0F1FF3F06D10B4BC2
:103F98009868FFF751FE4FF0FF3008BDFFF73CFF70
:103FA8000A220023C117FCF7F3F8F6E72F6400088C
:103FB80059650008A75C0008A2650008B80700203A
:103FC800014B9868704700BFB80700202DE9F04101
:103FD80004464FF01003EFF3118683F31288BFF302
:103FE8006F8F5348FEF712FD68B9524A5249534839
:103FF800942300F084FD4E49514800F080FD94213F
:104008004C4800F075FD4A48FEF71EFD237BD90792
:1040180022D54748FEF708FD58B9464A4949474856
:10402800C22300F06CFD4249474800F068FDC221F8
:10403800E6E786F31188BFF36F8F444A44493F4847
:1040480040F2C36300F05BFD2146424800F057FD93
:1040580040F2C3613D48D4E7637B1A070AD5344868
:10406800FEF7E2FC0028D8D086F31188BFF36F8FE3
:10407800BDE8F08123F0200242F00801D2092FD1D7
:104088006173A36813B12046FFF710FA04F1180012
:1040980000F096F904F158074FF00008A56DBD42ED
:1040A80000D03DBB0120FFF72DF82046FEF7D4FCD9
:1040B800294B9B68A342D2D1EFF30583002BCED1C5
:1040C8001B48FEF7B1FC10BB1A4A1E491B48E123E6
:1040D80000F015FD16491C4800F011FDE1218FE79D
:1040E80003F05F0343F008031C4863732146FFF79E
:1040F8009DFBC6E72846FFF7D9F905F1180000F03F
:104108005FF9C5F8AC802846FFF786FAC6E730465F
:10411800FDF7F4F80E490D4A084840F2F26300F042
:10412800EEFC0F4800F0EBFC40F2F26192E700BFB2
:10413800FC070020B7610008E4610008A75C0008DC
:10414800F961000811620008286200085965000832
:10415800F9640008E1660008B8070020D4070020C9
:104168000067000808B50648064A0749121A01F010
:1041780091F8BDE80840054A0549064801F08AB8A3
:10418800000000205C000020A86700080000000074
:10419800A867000800000020034B1B680BB9FEF756
:1041A800A7B90020704700BF0008002010B5114BC8
:1041B8001C689C420AD1FFF7EFFF6FF000400E4BDE
:1041C8001B6913B19842A8BF184610BDFFF7E4FF5A
:1041D800002CF2D0D4E904321B1A62EBE072B3F17E
:1041E800004F72F10001E8DA002AACBF184600203F
:1041F800E5E700BF3C000020B807002030B570B1EB
:104208000B4B5B6898420AD0036843B1D3E9042199
:10421800D0E90445121941EB0501C3E90421D0E9AD
:10422800003213605A600023C0E9003330BD00BF7C
:104238003C000020B3F1FF3F08BFB2F1FF3F2DE97A
:10424800F047044692461D4600F09E80066866B117
:104258004E494F4A4F48632300F051FC4E4800F046
:104268004EFC4B48632100F043FC81604FF0100383
:10427800EFF3118783F31288BFF36F8F4748FEF778
:10428800C5FB60B9464A47494248942300F037FCC9
:104298004249454800F033FC94214148E3E73F4850
:1042A800FEF7D2FBBAF1FF3F75F1FF3323DA3F493E
:1042B800D1E900206FF001039B1A4FF0FF3262EB47
:1042C8000000B3EB0A0360EB0500012B70F100025C
:1042D80001DA01233046C4E90430354B1A68D3F8B3
:1042E80004C09A4218BF164686B9C4E9003CCCF807
:1042F80000405C601CE0FFF74FFF1AF1010845F130
:10430800000518EB000345EBE070E4E7D6E9041577
:10431800D4E904208A4270EB050E28DA891A7268FB
:1043280065EB0005C6E90415C4E900621460746011
:104338001A689A420BD0944209D1FFF737FF18B197
:104348001C4B1B69834202D00021FEF72FF813484B
:10435800FEF76AFBA0B9124A17490E48C22300F0BB
:10436800CEFB0E49154800F0CAFBC22195E7521A48
:1043780060EB05006645C4E90420B6D03668B3E7AB
:1043880087F31188BFF36F8FBDE8F0874667000891
:1043980022670008A75C0008A2650008040800203E
:1043A800B7610008E4610008F9610008E005002031
:1043B8003C000020B80700201162000828620008AD
:1043C80038B504464FF01003EFF3118583F31288D4
:1043D800BFF36F8F1948FEF719FB68B9184A1949D6
:1043E8001948942300F08BFB1449184800F087FB08
:1043F8009421134800F07CFB1048FEF725FB236846
:104408009BB12046FFF7FAFE00240C48FEF70CFB90
:1044180070B90B4A0E490C48C22300F070FB0749DB
:104428000C4800F06CFBC221E3E76FF01504ECE7E1
:1044380085F31188BFF36F8F204638BD040800202C
:10444800B7610008E4610008A75C0008F96100088A
:10445800116200082862000870B504460D464FF046
:104468001003EFF3118683F31288BFF36F8F1B4895
:10447800FEF7CCFA68B91A4A1A491B48942300F087
:104488003EFB1649194800F03AFB9421144800F005
:104498002FFB1248FEF7D8FAFFF788FE012807DD40
:1044A800A04205DBA0422946A8BF2046FDF77EFFB3
:1044B8000A48FEF7B9FA58B9094A0D490A48C22309
:1044C80000F01DFB05490B4800F019FBC221DDE790
:1044D80086F31188BFF36F8F70BD00BF04080020FA
:1044E800B7610008E4610008A75C0008F9610008EA
:1044F80011620008286200082DE9F8430446FFF716
:10450800D9F94FF01003EFF3118783F31288BFF343
:104518006F8F3F48FEF77AFA68B93E4A3E493F48EE
:10452800942300F0ECFA3A493D4800F0E8FA942167
:10453800384800F0DDFA3648DFF8E880DFF8E89020
:10454800FEF782FAD9F80050384AC8F800404D45BD
:10455800D2E9003C4FEAE4710BD055B1D5E90460CB
:10456800B44271EB000E1BDA361B60EB0100C5E9A3
:104578000460E3184CEB01010024C2E90031C8F8DB
:104588000040FFF713FE2146FDF710FF2048FEF715
:104598004BFAA8B187F31188BFF36F8FBDE8F88392
:1045A800F3184CEBE671C2E90031002200232846DB
:1045B800C5E90423FFF722FE1548FEF735FA58B976
:1045C800144A1B491548C22300F099FA10491948A2
:1045D80000F095FAC221ABE787F31188BFF36F8F1C
:1045E800AB68284698474FF01003EFF3118783F321
:1045F8001288BFF36F8F0648FEF708FA00288CD0A0
:104608000348FEF721FAD8F80040A41B9AE700BF38
:1046180004080020B7610008E4610008A75C0008EE
:10462800F9610008000800203C000020E005002097
:10463800116200082862000870B54FF01003EFF30C
:10464800118683F31288BFF36F8F1A48FEF7DEF9DD
:1046580068B9194A19491A48942300F050FA1549BB
:10466800184800F04CFA9421134800F041FA114818
:10467800FEF7EAF9FFF790FD134AD2E9004504195D
:1046880045EBE0750B48FEF7CFF958B90A4A0F49D0
:104698000B48C22300F033FA06490D4800F02FFA00
:1046A800C221E1E786F31188BFF36F8F20462946C0
:1046B80070BD00BF04080020B7610008E46100086D
:1046C800A75C0008F9610008E005002011620008F5
:1046D80028620008014800F020B800BF666700089B
:1046E800704720EAE0700A2180FB0101FFF736BC21
:1046F8000020704730B58A680C68551C14B14B68A7
:10470800934201DC8D6030BD013B934208BF00221B
:104718008D600CBFE254A054F5E70FB407B504A9A7
:1047280051F8040B0191FBF7B9FF03B05DF804EBF6
:1047380004B070470CB407B504AB53F8042B0193CD
:10474800FBF7BAFF03B05DF804EB02B07047F8B5A9
:104758000368136006460D461446012754F8041BE7
:10476800A94201D13846F8BD73682846984754F8DD
:10477800043C28B95B68002BF4D001372360EDE7CF
:104788001B6823F00103F6E78B680A68013330B52C
:104798008B6042F82300D1E901230024D454012579
:1047A80004688B680A68012C24F0010002D852F8CA
:1047B800230030BD01338B6042F82300D1E9012387
:1047C800D554EDE709B142607047036803F001036F
:1047D8001A43026070472DE9F84F01F18048A8F1AB
:1047E80002084FEA880303F1040B50F828A050F898
:1047F8000B50DAF804202F68D5F804909542064645
:1048080027F0010718D1022920DC01214A46284651
:10481800FFF7D8FF0C46B946002152462846FFF755
:10482800D1FF4A4621465046FFF7CCFF46F82850AC
:1048380046F80BA0BDE8F88F02291EDC00213A4695
:104848002846FFF7BFFF0C460121E6E73A46012458
:104858004F46914633442A4653F8040C4168A1EB6D
:104868000A0359425941FFF7ADFF21463A46284607
:10487800FFF7A8FF84F00101CFE70024EAE700680A
:1048880008B97047184619B14368002BFAD1704728
:10489800036823F00103F8E72DE9F04F83B00B68B4
:1048A80003F001030B6000234B6000AF0368C7F8F7
:1048B80004D006460D4653B90123016083600B6896
:1048C80043F001030B600C37BD46BDE8F08F8368E9
:1048D8009B000B3323F00703ADEB030D6B461A4621
:1048E8004FEA9309FFF733FFE84608EB80020446D6
:1048F80052F804AC726851464FEA800B284690473C
:1049080080F001012A465046C9B2FFF75BFF2A68CA
:104918004BF8295004F1010A04F1804422F0010205
:10492800013C2A6008EB84045546012D05DCD8F8C3
:104938000020136843F001033CE0D4E9000E03684B
:1049480013F0010337D154F8042C5168884202BF90
:10495800116821F00101012399B1D1F800C01CF0C0
:10496800010F0ED1136823F001031360036843F0AD
:10497800010303600B6843F00103083C0B60023D30
:10498800D3E74268A2EB0E014A424A419A4203D059
:1049980029464046FFF71FFF691E4046FFF71BFFE9
:1049A80054F8042C136843F0010313602268136859
:1049B80023F001031360B3685345D8F80030B8BF3B
:1049C800C6F808A03360D7F804D07CE730B4006894
:1049D8000B4610B9002030BC70478A68541C02D1BD
:1049E80030BCFFF7D1BE0C6854F82200406895002F
:1049F8000028F5D14868815C29B1013A2C449A60B5
:104A080054F8040CE7E79968002901F1FF3206DD44
:104A1800415C9A600029F6D054F82200DBE79A60DE
:104A2800D8E7044608B5084611461A46A047FFF7D6
:104A3800C7FAFCF7A1FE2DE9F84F9A46D3786F2BF9
:104A480080460F461546A3F1410B29D024D8582B90
:104A58000CBF10260A26DDF828903246002340466F
:104A68003946FBF795FB092AD4B21ED83034B04535
:104A7800E4B277F1000709F8014D01D3D14511D807
:104A88002B789B0605D5082E15D1AB7843F0080383
:104A9800AB704846BDE8F88F03F0F703702BD7E7F3
:104AA8000826D8E780460F46D7E7BBF1190F94BF11
:104AB80037345734DBE7102EEBD1AB7843F01003D3
:104AC800E6E72DE9F0410746884615461E46144696
:104AD800B44205D30EB1601B08E02378002BFAD04E
:104AE80014F8010B4146B8470028F1DABDE8F08117
:104AF800404080F311884FF0040002DF70470FB484
:104B080007B504A951F8040B0191FBF7C7FD03B0E1
:104B18005DF804EB04B07047704700207047FDF75C
:104B280043BE01460068FDF73FBE00210120FFF7A4
:104B3800F6BF08B5FCF7BAFBBDE80840FCF794BC23
:104B480010B50139034622B91A440021934208D10D
:104B580010BD11F8014F002CF6D003F8014B013AB3
:104B6800F1E703F8011BF1E7034600201A5C02B9DC
:104B780070470130FAE7034600201A5C0AB1884200
:104B880000D170470130F8E710B5431E0A4491423E
:104B980000D110BD11F8014B03F8014FF7E7C9B276
:104BA80002440346934200D1704703F8011BF9E71A
:104BB800002208B511460620FCF744FB00221146E6
:104BC8000720FCF73FFB002211460820FCF73AFBC0
:104BD800002211460920FCF735FB002211460A2065
:104BE800FCF730FB002211461720FCF72BFB0022B4
:104BF80011462820FCF726FB002211460120FCF76D
:104C080021FB002211462A20FCF71CFB002211463A
:104C18000220FCF717FB002211460320FCF712FBC9
:104C2800002008BD026917211620FCF7E7BE0269BB
:104C380016211520FCF7E2BE026913211220FCF7A9
:104C4800DDBE026911211020FCF7D8BE02691021CF
:104C58000A20FCF7D3BE02690A210520FCF7CEBE64
:104C6800026905210420FCF7C9BE0269042103205A
:104C7800FCF7C4BE026903210220FCF7BFBE02692B
:104C880002210120FCF7BABE026901210020FCF7CD
:104C9800B5BE0B68A3F13002782A9FBF03F18043A9
:104CA80003F50E3349681A689DBF0A4300201A604D
:104CB8006FF0850070470B68A3F13002782A9FBF18
:104CC80003F1804303F50E3349681A689DBF8A4390
:104CD80000201A606FF0850070470B68022B03D81C
:104CE8002BB96FF085007047053B012BF9D849684F
:104CF800CBB203F1804303F50E33C1F302421868C7
:104D0800C1F304218A4002431A60002070474368B7
:104D18005B681B690B600020704743685B685869D3
:104D280042400A4042405A610020704743685B682D
:104D380000209961704743685B6809049961002005
:104D4800704743685A6853694B4053610020704765
:104D5800F0B544680120676888401E46C2F3801396
:104D680027EA00078B403B43636090FAA0F7B7FA45
:104D780087F7D4F808C04FF0030E7F000EFA07F744
:104D88002CEA070C90FAA0F7B7FA87F7C2F3C11319
:104D98007F00BB4043EA0C03A36090FAA0F3B3FA88
:104DA80083F3E7685B000EFA03F327EA030790FA38
:104DB800A0F3B3FA83F302F030055B00C2F341229B
:104DC8009A403A43202DE26016D107292BDC90FA4D
:104DD800A0F3226A2BB3B3FA83F39B000F2101FAE5
:104DE80003F322EA030290FAA0F3B3FA83F39B00D9
:104DF80006FA03F31343236290FAA0F3B3FA83F39A
:104E0800226890FAA0F05B000321B0FA80F02D0927
:104E180001FA03F3400022EA030385401D4325609D
:104E2800F0BD2B46D9E7030A616A93FAA3F282B16F
:104E3800B2FA82F292000F2793FAA3F3B3FA83F33C
:104E480007FA02F29B0021EA02029E4016436662BC
:104E5800D2E72A46EEE738B5044690030D461346D6
:104E680017D591070ED55A072ED55022D8060BD53F
:104E780042F4007219031AD5616801234968AB40EE
:104E88008B610DE01022F1E79906F3D542F48062B8
:104E9800F0E7DA0313D5D80613D4C3F340139A0204
:104EA800606800232946FFF753FF002038BD5B03E5
:104EB800F6D50121A9402046FFF73DFFF0E7302253
:104EC800EEE74FF40072EBE76FF08500EEE7F8B518
:104ED8001F46044640680E461546FFF739FF112F56
:104EE80007D101212B0501FA06F104D563685B6837
:104EF80099610020F8BD2046FFF71DFFF9E782B051
:104F080003680193019B43680193019B02B07047BA
:104F180008B54368186803681A0701D5FFF7EFFF5B
:104F280003689B0643BF43680B7000204FF0FF30B7
:104F380008BD10B54068026813681B06FCD54FF021
:104F48001002EFF3118382F31288BFF36F8F0268A8
:104F58001468240604D483F31188BFF36F8FEAE73B
:104F6800516083F31188BFF36F8F10BD08B5416896
:104F78000B681A681868C0071868C2F3C00248BFEF
:104F880042F002028007186848BF42F00402400756
:104F9800186848BF42F02002C00542BF6FF4807015
:104FA80042F008021860D00702D50868FFF7A7FF8B
:104FB800930702D50868FFF7A2FF500702D50868D3
:104FC800FFF79DFF930602D50868FFF798FF104684
:104FD80008BDF0B546683368186810F0800010D036
:104FE8004FF01003EFF3118783F31288BFF36F8F2D
:104FF8000023DCB2A242204604DC87F31188BFF309
:105008006F8FF0BD3568D5F800C01CF0800F03F134
:105018000103F2D0085D6860EBE770B545680024CD
:10502800E0B2824203DD2B681E68B60600D470BD6C
:105038005B680B54286803681B0701D5FFF75FFFFF
:105048000134EDE743681A6802F10C0353E8003FA6
:1050580043F0400302F10C0040E800310029F3D18D
:10506800704743681A6802F10C0353E8003F23F0C5
:10507800400302F10C0040E800310029F3D17047E9
:1050880043681B68186810F080001CBFD868C0F31C
:105098008010704743681B681868C0F38010704719
:1050A80043681A6802F10C0353E8003F43F02003F9
:1050B80002F10C0040E800310029F3D17047436841
:1050C8001A6802F10C0353E8003F23F0200302F1B1
:1050D8000C0040E800310029F3D1704743681B6891
:1050E8001868C0F34010704743681B681A68910637
:1050F80002D5DA68920607D4186810F0400004D088
:10510800D868C0F3801070470120704701207047AD
:105118000369C3E904127047026913690BB1516945
:105128001847704708B5002226201146FCF78AF870
:10513800BDE808402620FCF777B803691B680B60B8
:1051480043681B68DB6803F4C063B3F5806F2FD036
:10515800A3F5C06CDCF1000343EB0C030B7143684F
:105168001B681B6903F44053B3F5805F22D0B3F585
:10517800405F21D0002B0CBF012303234B714368F0
:105188001B68DA68DB68D20403F4C06316D5002B09
:1051980014BF032304238B7143681B685B6903F402
:1051A8004073A3F5407253425341CB7100207047BE
:1051B8000223D3E70023E1E70223DFE7002B14BF34
:1051C80002230323E7E730B5036813600579046811
:1051D80004EBC504A34202D36FF0010030BD5C7933
:1051E8008C4201D00833F0E70020F7E74368C1F3A9
:1051F8004B101B6801F01F01C05801238B4003426C
:1052080014BF0123002313700020704710B54368B2
:10521800C1F34B101A6801F01F01845801238B4019
:1052280023438350002010BD10B54368C1F34B14CD
:10523800186801F01F01235801228A4023EA02035B
:105248002350002010BD38B504460D46FFF7DEFF99
:1052580029462046FFF7E8FF002038BD00207047A8
:10526800704740B1C368587810F001001EBF187825
:10527800B0FA80F0400970474FF01002EFF3118345
:1052880082F31288BFF36F8FFEE708B5FFF7F4FFCC
:10529800FFF785BCFFF778BCFEF71EBA90F90E3011
:1052A8008B4201D0FEF764BC002070470346002003
:1052B800C3E90200C3E90033704790F90E2091F961
:1052C8000E309A4206D100690B6998422CBF002023
:1052D800012070479342D4BF002001207047034645
:1052E80020B9EFF305820AB9FCF708B883F31188EF
:1052F800BFF36F8F70474FF01003EFF3118083F304
:105308001288BFF36F8FFFF7EABF90F90E0070475E
:0C53180008B5FFF791F908BDFFF78EB94A
:08532400A8AEFF7F01000000AC
:10532C00C911000800000000234B00080000000019
:10533C009D1B0008AC530008B94B0008C45300086F
:10534C00E11D0008DC530008E11D0008F4530008BF
:10535C00E11D00080C540008E11D0008245400084D
:10536C00E11D00083C540008E11D000854540008DD
:10537C00E11D00086C540008E11D0008845400086D
:10538C00655200089C540008AD200008B454000875
:10539C00F51C0008000000003D2300080000000080
:1053AC0037600008000000000400002046000020C8
:1053BC0000000000D6570008026000080000000042
:1053CC0000000000440000206C060020D0570008AC
:1053DC00CD6000089C5800083C590008480000208B
:1053EC0024070020C8570008DB600008B0580008EC
:1053FC003C5900084A00002034070020C057000820
:10540C00E9600008C45800083C5900084C00002012
:10541C0044070020B8570008F7600008D858000867
:10542C003C5900084E00002054070020B0570008DB
:10543C0005610008EC5800083C5900085000002099
:10544C0064070020A85700081361000800590008E1
:10545C003C5900085200002074070020A057000897
:10546C0021610008145900083C5900085400002020
:10547C0084070020985700082F610008285900085D
:10548C003C59000856000020940700209057000853
:10549C0088620008205A0008245A00085A0000208C
:1054AC0000000000865700089C6100086059000845
:1054BC00A859000858000020200000207C57000844
:1054CC0000000000334B0008C45300084B4C00088C
:1054DC00C4530008374C0008C45300082D4C000876
:1054EC0000000000334B000800000000334B0008A4
:1054FC00C4530008914C0008C4530008874C0008A2
:10550C00C45300087D4C0008C4530008734C0008B9
:10551C00C4530008694C000800000000334B00081D
:10552C0000000000334B000800000000334B000863
:10553C0000000000334B000800000000334B000853
:10554C0000000000334B000800000000334B000843
:10555C0000000000334B000800000000334B000833
:10556C0000000000334B000800000000334B000823
:10557C0000000000334B0008C45300085F4C0008C7
:10558C0000000000334B000800000000334B000803
:10559C0000000000334B000800000000334B0008F3
:1055AC0000000000334B000800000000334B0008E3
:1055BC0000000000334B000800000000334B0008D3
:1055CC0000000000334B000800000000334B0008C3
:1055DC0000000000334B000800000000334B0008B3
:1055EC0000000000334B000800000000334B0008A3
:1055FC00B45400082151000800000000334B00088F
:10560C00C4530008554C000800000000334B000840
:10561C00C4530008414C000800000000334B000844
:10562C0000000000334B000800000000334B000862
:10563C0000000000334B000800000000334B000852
:10564C0000000000334B000800000000334B000842
:10565C0000000000334B000800000000334B000832
:10566C0000000000334B000800000000334B000822
:10567C0000000000334B000800000000334B000812
:10568C0000000000334B000800000000334B000802
:10569C0000000000334B000800000000334B0008F2
:1056AC0000000000334B000800000000334B0008E2
:1056BC0000000000334B000800000000334B0008D2
:1056CC0000000000334B000800000000334B0008C2
:1056DC0000000000334B000800000000334B0008B2
:1056EC0000000000334B000800000000334B0008A2
:1056FC0000000000334B000800000000334B000892
:10570C0000000000334B000800000000334B000881
:10571C0000000000334B000800000000334B000871
:10572C0000000000334B000800000000334B000861
:10573C0000000000334B000800000000334B000851
:10574C0000000000334B000800000000334B000841
:10575C0000000000334B000800000000334B000831
:10576C0000000000334B000800000000334B000821
:10577C0001000B0000800080FF7F01000080008092
:10578C000C00FF7F010000800080FF7F0100008083
:10579C000080FF7F010000800080FF7F01000080FF
:1057AC000080FF7F010000800080FF7F01000080EF
:1057BC000080FF7F010000800080FF7F01000080DF
:1057CC000080FF7F00800080FF7F0080008003004E
:1057DC000400050006000700080009000A000B0081
:0457EC000C00FF7F2F
:1057F000555C000800000000BA5E000800000000D0
:105800002763000800000000AC61000800000000F1
:10581000040000000E00000001000000080000006D
:105820002C00000060000000700000000D0000006F
:105830000C0000000E00000050000000740000008A
:10584000A8000000FFFFFFFFFFFFFFFFFFFFFFFFBC
:105850004400000000400000E8050020FC05002096
:105860001006002024060020380600204C060020E8
:10587000000000200000000000000B0602000000F5
:105880008458000800000008F35F000824000207A5
:1058900000000020FB5F000820000B11FFFF00004C
:1058A000001C0240070000003000000080000000E3
:1058B000FFFF00000018024006000000300000005A
:1058C00040000000FFFF000000140240050000003F
:1058D0003000000020000000FFFF00000010024028
:1058E000040000003000000010000000FFFF000076
:1058F000000C02400300000030000000080000001F
:10590000FFFF00000008024002000000300000001D
:1059100004000000FFFF000000040240010000003E
:105920003000000002000000FFFF00000000024005
:105930000000000030000000010000005F4E000881
:10594000174D0008234D0008354D00083F4D000855
:105950004B4D0008691E0008411D000800000000B2
:1059600000440040805900080100000000000000D1
:105970000000000000000000885900082D510008B8
:1059800040000000000002009059000801000000E3
:1059900098590008020000004700000000020000C3
:1059A0006700000000000000194F00083B4F00088E
:1059B000754F0008A521000843510008DB4F00087F
:1059C000235000084D5000086B5000088950000813
:1059D000A9500008C75000089D500008E550000875
:1059E0006D1F0008C91F0008F1500008155100087C
:1059F00019510008845400086C54000854540008DD
:105A00003C540008245400080C540008F4530008C7
:105A1000DC5300080000000000000000000000004F
:105A200000380240F55100081552000831520008B4
:105A30004F520008F5FFFFFF2C5300082C530008BD
:105A4000A4530008AC530008AC530008AC53000842
:105A500000100000003050001B5B25643B256448AB
:105A6000005068696C6F736F7068657220256420E0
:105A70005B25733A257325645D20002020202020BB
:105A800020205354415256494E47202020202020A8
:105A90002000202020484F4C44494E47204F4E457F
:105AA00020464F524B202020002020454154494E93
:105AB0004720205B2025732564206D73205D200026
:105AC00020202044524F50504544204F4E45204600
