:020000040800F2
:10000000001B0020D91100083D2D0008AD1100088B
:10001000AD110008AD110008AD110008000000008E
:10002000000000000000000000000000BD0E0008FD
:10003000AD11000800000000650E0008C11B00089B
:10004000710F0008710F0008710F0008710F000890
:10005000710F0008710F0008710F0008710F000880
:10006000710F0008710F0008710F0008710F000870
:10007000710F0008710F0008710F0008710F000860
:10008000710F0008710F0008710F0008710F000850
:10009000710F0008710F0008710F0008710F000840
:1000A000710F0008710F0008710F0008710F000830
:1000B000710F0008710F0008710F0008710F000820
:1000C000710F0008710F0008710F0008710F000810
:1000D000710F0008710F0008710F0008710F000800
:1000E000710F0008710F0008710F0008710F0008F0
:1000F000710F0008710F0008710F0008710F0008E0
:10010000710F0008710F0008710F0008710F0008CF
:10011000710F0008710F0008710F0008710F0008BF
:10012000710F0008710F0008710F0008710F0008AF
:10013000710F0008710F0008710F0008710F00089F
:10014000710F0008710F0008710F0008710F00088F
:10015000710F0008710F0008710F0008710F00087F
:10016000710F0008710F0008710F0008710F00086F
:10017000710F0008710F0008710F0008710F00085F
:10018000710F0008710F0008710F0008710F00084F
:08019000710F0008710F000857
:1001980053B94AB9002908BF00281CBF4FF0FF31E6
:1001A8004FF0FF3000F00CB8ADF1080C6DE904CE4B
:1001B80000F008F8DDF804E0DDE9022304B0704738
:1001C800704700BF2DE9F04786468C460846089ED2
:1001D800154674461946002B40F0C2808542B2FA93
:1001E80082F245D94AB1C2F1200300FA02FC2EFA84
:1001F80003F3954043EA0C0C94404FEA154EA8B21D
:10020800BCFBFEF8230C0EFB18CC08FB00F943EAF4
:100218000C43994528D9EB1808F1FF3704D29945C2
:1002280002D9A8F102072B44A3EB0903A4B2B3FB3C
:10023800FEFC0EFB1C330CFB00F044EA0344A04216
:1002480014D92C190CF1FF3304D2A04202D9ACF115
:1002580002032C44241A43EA07401EB1D440002369
:1002680034607360BDE8F0874746DDE76346F1E731
:1002780092BB431B01214FEA154EAFB2B3FBFEFC04
:10028800200C0EFB1C330CFB07F840EA034398458F
:1002980062D9EB180CF1FF3004D2984502D9ACF1C1
:1002A80002002B44A3EB0803A4B2B3FBFEFC0EFB35
:1002B8001C330CFB07F744EA0344A7424ED92C1918
:1002C8000CF1FF3304D2A74202D9ACF102032C444B
:1002D800E41B43EA0040C0E7C2F1200320FA03F11F
:1002E800954090402EFA03F303434FEA154EAFB200
:1002F800B1FBFEFC0EFB1C10190C0CFB07F841EAC5
:100308000041884504FA02F422D969180CF1FF303B
:1003180004D2884502D9ACF102002944A1EB0801B6
:100328009BB2B1FBFEFC0EFB1C110CFB07F743EA6A
:1003380001439F420ED9EB180CF1FF3104D29F42C2
:1003480002D9ACF102012B44DB1B41EA004192E7E0
:100358006046E3E76146F7E76046A3E76346B7E729
:10036800834206D916B9002108467BE7C6E900E0B2
:10037800F9E7B3FA83F78FB9834201D3724508D8F6
:10038800BEEB020460EB030301209C461EB900216A
:1003980068E73846FAE7C6E9004CF8E7C7F1200CE9
:1003A800BB4022FA0CF41C432EFA0CF120FA0CF391
:1003B800B84001434FEA14490EFA07F5B3FBF9F8C0
:1003C8001FFA84FE09FB18300B0C08FB0EFA43EAEF
:1003D80000439A4502FA07F240D9E31808F1FF30C2
:1003E80004D29A4502D9A8F102002344A3EB0A03D8
:1003F80089B2B3FBF9F809FB183308FB0EFE41EA92
:1004080003418E452CD9611808F1FF3304D28E457B
:1004180002D9A8F10203214443EA0040A0FB029854
:10042800A1EB0E014145CE46434602D306D14D45C8
:1004380004D2B9EB020E68EB04030138002EA6D0F3
:10044800B5EB0E0261EB030101FA0CFC22FA07F38B
:100458004CEA0303F940C6E9003198E74046C5E78E
:100468004346D9E72DE9F843144FDFF85480DFF805
:10047800549005460E4614464FF0FF324FF0FF33B6
:10048800304601F035FF02F0F3F903F08EF83B46F1
:10049800014680B902462946404602F0CAFB484652
:1004A80002F0A6FB002141F2883002F0C9F920468B
:1004B80001F0FCFEE0E70022EEE700BF563E000830
:1004C800673E0008A086010008B5024A02490348B1
:1004D800FFF7C8FF6000002070000020A53E00085C
:1004E80008B5024A02490348FFF7BCFF7000002024
:1004F800600000209D3E00082DE9F0434FF0FF38D2
:1005080089B04FF0FF39184E184B194900240727B6
:10051800CDE90689CDE90374CDE9014400944FF48F
:100528008062304601F04AFE1249304601F0F2FD81
:10053800114D124B12490094CDE90689CDE9037497
:10054800CDE901444FF48062284601F037FE0D4999
:10055800284601F0DFFD304603F029F8284609B0A7
:10056800BDE8F04303F023B828010020E90400089F
:10057800000900208B3E000880000020D1040008FC
:10058800C0040020943E0008014B1B68184700BFB8
:1005980000000020014B1860704700BF00000020D9
:1005A80007B50B46002102460091034800F006F803
:1005B80003B05DF804FB00BF910500082DE9F04F7A
:1005C800814695B08B4617461C460025387808B9F1
:1005D800284658E37B1C2528039306D05946C8476C
:1005E8000028C0F250830135FBE1182200210EA833
:1005F80002F0D6FB7B78252B7DD00023781C98460B
:100608009E469C461E46014610F8012B2B2A00F0F8
:10061800A18000F29880202A00F09F80232A00F011
:100628009F802BB19DF8403043F040038DF8403057
:10063800B8F1000F05D09DF8403043F020038DF845
:100648004030BEF1000F05D09DF8403043F0100354
:100658008DF84030BCF1000F05D09DF8403043F0D4
:1006680008038DF840302EB19DF8403043F0040364
:100678008DF840309DF8403003F04400442803D101
:100688006FF386138DF840309DF840302A2A43F0E6
:1006980080038DF840307FD19DF8412042F001025F
:1006A8004B1C8DF841201A782E2A9DF841200CBF4A
:1006B8000121002161F341028DF8412078D15A7857
:1006C8002A2A6ED0013300224FF00A0C194611F87D
:1006D800010BA0F13006092E40F295809DF84010DC
:1006E8001292C1F3400040EAD2700A4660F3410218
:1006F8008DF840205CE0BA1C03928DF843309DF8D9
:100708004130DA0740F12E8154F8048BB8F1000F1C
:1007180007DA9DF8402042F004028DF84020C8F125
:1007280000085E0740F1278154F804ABBAF1000FC6
:1007380080F226819DF841306FF341038DF84130F6
:100748004FF0FF3A1CE12D2A0DD0302A7FF469AF13
:10075800012358E74FF0010C55E74FF0010E52E71F
:100768004FF001084FE701264DE70EFB0262303AD1
:100778000346184610F8016BA6F1300CBCF1090FBE
:10078800F3D999428FD09DF840101192D20F62F39D
:1007980041018DF8401086E70B4600224FF00A0E03
:1007A800E7E79DF8412042F004028DF8412002332A
:1007B8001A786C2A47D02BD8682A31D06A2A4BD0AD
:1007C8004C2A51D01A4612F8013B0392782B9DF817
:1007D80041208DF8433000F2BE806D2B51D8692B33
:1007E80000F2B980572B67D8412B03D0453B022B29
:1007F80000F2B1809DF84230042262F302038DF8C2
:100808004230012373E00CFB0202303A0B465DE7ED
:10081800742A25D07A2AD5D19DF8412006210CE0EA
:100828005A78682A9DF8412006D1012161F3C60251
:100838008DF841200233C5E7022161F3C6028DF825
:1008480041200133BEE75A786C2A9DF8412001D136
:100858000421EBE70321F0E79DF841200521ECE7AF
:100868009DF841200721E8E7BDF8402022F4F04236
:1008780022F0020242F4804242F00202ADF8402027
:10088800DFE76E3BD9B201238B4040F282410B4235
:1008980037D113F0240F51D1D8075CD59DF84230D9
:1008A800032161F302038DF8423002F07803A3F1CB
:1008B80040014B424B411AE0A3F15801C9B2012053
:1008C80000FA01F111F4624F94D140F60106314269
:1008D8001DD111F4043F3ED09DF8423060F302036D
:1008E80002F07802402A8DF8423034D000239DF877
:1008F8004020C2F340010B4363F341028DF84020CE
:10090800FDE69DF84230022161F30203E8E79DF815
:100918004210022002F0780260F30201402A8DF8AA
:10092800421002BF9DF8401041F001018DF84010BF
:10093800632BDBD1131E18BF0123D8E79DF8423083
:10094800032161F3020312F0780F8DF8423014BFCF
:1009580001230023CBE79DF8403043F001038DF8D5
:100968004030C3E79DF94020002AB4BFDDF8448039
:100978004FF0FF38D5E698077FF5E2AEDDF848A0DE
:100988009DF841100023CDE911339DF8423003F062
:100998000703012BC1F3C30133D1CB1E042B04D8A9
:1009A800DFE803F0214646212100236801294FEAA8
:1009B800E372CDE90E321CD19DF93830DA17CDE952
:1009C8000E3204349DF8403013F0030650D0039BD8
:1009D8003A465946484602F089F90028C0F2538140
:1009E8000544039FF2E554F8043BDA17CDE90E32CB
:1009F800E8E70229E5D11AB243F3C033CDE90E2363
:100A0800DFE7022B24D1CB1E042B04D8DFE803F048
:100A1800181010181800012954F8043B4FF0000270
:100A280014D00229CDE90E32CCD19BB20E93C9E77E
:100A3800073424F00704F4E80223CDE90E23C1E7C4
:100A480054F8043B0E9300230F93BBE7DBB2CDE7CA
:100A5800042B08D1073424F00704D4E90023083410
:100A6800CDE90E23AEE7032BACD154F8043BDDE708
:100A78009DF843007828B4D862281CD825283FF46C
:100A8800ADAD5828ADD10DF136030093DDE90E0167
:100A980008AB10AA02F0E4F8BAF1000F074680F29A
:100AA8009A80002F9DD00DF13603D81B002E00F040
:100AB800C1800130BEE06338152892D801A252F8EF
:100AC80020F000BFA10B0008B30B0008EB090008D9
:100AD800EB090008EB090008EB090008B30B000854
:100AE800EB090008EB090008EB090008EB0900080E
:100AF800410C0008D90B0008FF0B0008EB0900089F
:100B0800EB090008250B0008EB090008D90B0008C1
:100B1800EB090008EB090008D90B0008BAF1000F2F
:100B28000E9F35DB5146384602F026F907EB000ADE
:100B3800002F3FF456AF00269DF8423013F0100204
:100B4800059200F0938002305B06119A48BF129B11
:100B58000492104448BFC018B8F1000F40F3A080B9
:100B68009DF84020A8EB0008C2F3800350070693C5
:100B780000F19680510640F189803EB159463046D1
:100B8800C84700287FDB069B01351E4630227EE0E1
:100B9800384602F0EAF8C9E70E9B8DF820300026A7
:100BA80008AF0DF1210A0120C6E719075CBFC3F39E
:100BB80000135E01DDE90E2348BF2B26002BBFF68C
:100BC80062AF524263EB4303CDE90E232D265AE769
:100BD800002658E700269DF840200DF13603DB1B60
:100BE8006FF386129A458DF840207FF65AAFAAEB2C
:100BF8000303119355E70E9890B30DF13603009354
:100C080010AA08AB002102F02BF8BDF8423003F01F
:100C1800EF0343F4F04343F01003BAF1000F074623
:100C2800ADF84230D6DA00283FF4DBAE0DF13603DA
:100C3800181A00269A467FE70E9B07293FF6D1AE81
:100C4800DFE801F00C04060C08080C0C1D70C8E65F
:100C58001D80C6E6EA17C3E90052C2E61D60C0E679
:100C68002E4F064607F1050A052065E71A0748BF13
:100C7800013069E70793104606925946C84700288D
:100C8800DDE9062304DA15B0BDE8F08F20224346DB
:100C98001946002903F1FF33ECDC45446D1A9846E8
:100CA8002EB159463046C8470028ECDB01359DF87F
:100CB8004230DA0601D41B0705D559463020C8470B
:100CC8000028E0DB0135059B33B19DF84300594608
:100CD800C8470028D7DB0135049E2E4405E0594655
:100CE8003020C8470028CEDB0135731B002BF6DC0B
:100CF80053463A465946484601F0F8FF0028C2DBF9
:100D08000544A844A8EB0503002B7FF76AAE5946B3
:100D18002020C8470028B6DB0135F3E7BE3E0008AF
:100D28000C4B1A6842F400721A601A6842F4806226
:100D38001A604FF01002EFF3118382F31288BFF3A9
:100D48006F8F83F31188BFF36F8F034B034A1A60C9
:100D580000207047003C02403C0000200024F400C2
:100D6800014910220A60704710ED00E072B6404059
:100D780080F31188BFF36F8FBFF34F8F30BF62B618
:100D8800BFF36F8F704700BF40B2002807DB044AEB
:100D98004109012300F01F00834042F821307047C9
:100DA80000E100E040B20028A8BF00F1604001F176
:100DB8000101B8BF064B4FEA0111ACBF00F5614015
:100DC80000F00F00C9B2B4BF195480F8001370477F
:100DD80014ED00E030BFFFF7FDBF00BF0F4A08B5B4
:100DE8000F4B22F07F029A60BFF34F8FBFF36F8FD4
:100DF800D3F8882022F47002C3F88820EFF3148314
:100E080023F0040383F31488BFF36F8F01F0CCF849
:100E180001F094FD00F0D0F901F00EF9000000088F
:100E280000ED00E00A4A0B4993680968C3F8A0106E
:100E38000949C3F89C004B6843F080534B6000237A
:100E480083F31188BFF36F8F9368D3F8A0007047BE
:100E58007C040020343E000800ED00E013498A6855
:100E68004FF038001044EFF3098C80E8F01F102091
:100E780080F31288BFF36F8F0D4F4FF000668A69B9
:100E88008A603E60D2F89C000023C2F89C3080F350
:100E9800118804B5104600F0D3F9BDE8044002F10A
:100EA800380090E8F01F8CF3098870477C04002014
:100EB80004ED00E01EF0040F0CBFEFF30880EFF321
:100EC8000980816911F8021C0229FFD001B501F0DF
:100ED80029FF01BD42F8203C009B42F81C3C0A490E
:100EE800019B42F8183C029B42F8143C21F0010196
:100EF8004FF0807342F8043C42F8081C0023203A63
:100F08008265C0F89C307047552C00080A4A034691
:100F1800906878B113F1160FD0F88C0005D0A0F1C5
:100F280040029A4205D8834203D2814228BF00205A
:100F380070470020704700BF7C04002008B5094BAB
:100F480098600D46144600F07BF9204685F3098821
:100F5800002163B681F31188BFF36F8F002200234D
:100F680001F074FE7C04002001B5EFF30580A0F1C8
:100F780010004FEAC0000449014409C99847BDE878
:100F8800014002490847000024390008990F000869
:100F9800044B99689869884203D003494FF08052FE
:100FA8000A6070477C04002004ED00E070B51D4B1A
:100FB80015469A6A9A6A9A6A9207064622D5586B23
:100FC8009A6A14061ED519B19A6A22F080029A62AA
:100FD8009A6A9A6A9A6A134C12F0100F15D19B6A92
:100FE800990712D40020A36A0E4A9B0642BF636A7F
:100FF80023F400536362936A43F0FF039362002370
:101008002B7070BD6FF01500E2E763681A05E9D52B
:101018003146FFF77BFF0028E4D080F309880220DF
:10102800E1E700BF00ED00E00D4B9A6A9A6A9A6A00
:10103800920508D59A6B9A6A120404D518B19A6A6F
:1010480022F400429A629A6A9A6AD205044A58BF00
:101058009B6A936A002043F47F4393620870704749
:1010680000ED00E070B54A4B5B688AB00546C3F3F3
:101078000803002686F31188BFF36F8F02F07F40C4
:10108800B0F17F4F11D102F00C0008280DD01007E5
:101098004CBF0D4601260022033B8DF80720032B89
:1010A8004DD8DFE803F00465696D3546F3E7384B42
:1010B800DA6A910743D4DA6A002A40DBDA6A520016
:1010C8003DD55A69A96942F480725A61BFF34F8FBE
:1010D800BFF36F8F5A6931F8021C22F480725A618B
:1010E800BFF34F8FBFF36F8F4DF60272914209D055
:1010F8009A6AD2B242B10DF1070201212846FFF7E0
:1011080055FF0AE02C681BE09A6A12F47F4F06D05C
:101118000DF107010120FFF787FF044610E09A6AE6
:10112800B2F5803F0BD39A6A9A6A9A6A9A6A9A6A5F
:101138009A6A9A6A6FEA02426FEA12429A62002435
:101148009DF8073093B92022294602A801F01DFE18
:10115800099BBEB1C3F3080222B96FEA53236FEAB1
:101168004323099302A9204601F0DAFD0AB070BDB5
:101178000DF107020021C1E70DF107010020CAE7C0
:10118800034BD0E723F4FF7323F00103E9E700BF23
:1011980000ED00E0024A536943F0100353617047C1
:1011A80000ED00E0EFF30880EFF3098101B5724626
:1011B800FFF758FF01BD00BF044800231021C218E3
:1011C8000133562B82F80013F9D1704700E100E093
:1011D800102080F3118808484FF40461401880F308
:1011E8000988EFF314800221084380F31488BFF3C1
:1011F8006F8FFFF7F3FD0000400D0020084B9B6840
:1012080083420BD1EFF3058343B1064B5A6842F092
:1012180080525A605A6A22F400425A6201F02EBB88
:101228007C04002000ED00E0024B034A0348012142
:1012380000F072B80000022000000020703C000896
:10124800D0F88C20054B403A1A60054A4021C3E982
:1012580001121846012100F069B800BF28030020D8
:1012680000000B15F0B5204E00258D4239DA446890
:1012780074B353B104F1FF3C14EA0C0F2FD11F2CA7
:101288002DD907681CEA070F29D1202C0768D0F848
:1012980008C05FFA82FE1ED9B4F1004F1DD8013C88
:1012A800B4FA84F4C4F11F046400BEF1070F4CEAD9
:1012B800040C14D827F01F04144344F01004C6F893
:1012C8009820C6F89C404CF00104C6F8A0400132B2
:1012D80001350C30C9E70824E7E73E24E5E76FF05D
:1012E80015021046F0BD00BF00ED00E0044B0522DA
:1012F800C3F89420BFF34F8FBFF36F8F704700BFC1
:1013080000ED00E0BFF35F8F024B0022C3F894208A
:10131800704700BF00ED00E010B5034C01232278B0
:10132800FFF7A0FF207010BDB004002008B5094ADF
:1013380000231278FFF796FF10F1160F02D0064A25
:10134800072800DD08BDC2F89800C2F8A0300130B7
:10135800F6E700BFB004002000ED00E0144908687B
:10136800082810B521D8FFF7CDFF124C4968002294
:10137800904201F10C0105D10F4B1870FFF7B6FF31
:10138800002010BDC4F8982051F80C3C23F01F032E
:10139800134343F01003C4F89C3051F8043C43F065
:1013A8000103C4F8A0300132E2E74FF0FF30E8E76C
:1013B8007C3C000800ED00E0B0040020014B186000
:1013C800704700BF040000202DE9F8430D4F044684
:1013D8000E4615464FF0010802F10409B44201DB3C
:1013E800BDE8F8837A6908FA04F333EA020207D100
:1013F8007B6155F834301BB159F8341020469847B2
:101408000134EBE7003C0140044A012311688340A2
:101418000B431360024B1856FFF7B6BC003C014063
:10142800F53E00081F2806DC034901220B688240AC
:1014380023EA02030B607047003C014003292AD8C5
:10144800DFE801F0020E141F134B01229968824055
:1014580021EA02019960D96821EA0202DA6070473C
:101468000D4B0122996882401143F3E70A4B012290
:10147800D96882401143D960996821EA02029A60CA
:101488007047012303FA00F0034B9A6802439A60FD
:10149800DA681043D8607047003C014010B5074B2C
:1014A800044653F8300028B943F8341003EBC4035A
:1014B8005A6010BD6FF00F00FBE700BF3403002037
:1014C800034B002243F8302003EBC0035A607047F7
:1014D8003403002010B5204B18680B68442B1446C1
:1014E80028D82F2B05D8013B052B0DD96FF0850087
:1014F8001FE0A3F1300101228A4018490A4216D19F
:10150800402BF3D1400812E0052BEFD801A252F886
:1015180023F000BF431500084F150008F514000814
:10152800351500085B1500083715000800202060F5
:10153800002010BDA82BFAD0D8E700F097F8602358
:101548005843C008F3E700F091F8602358430009B6
:10155800EDE74FF4FA40EAE73C00002011011000E3
:1015680070B53E4C00F098F800F02EFCA3683C4A99
:10157800C3F30313D35C20FA03F53A48854201D23A
:1015880000F050FC236823F480232360236843F48D
:1015980080332360314B1A689603FCD55A6F42F0AA
:1015A80001025A675A6F9407FCD59A6802F00C0238
:1015B800082A17D19A6822F0F0029A601A689007F0
:1015C80007D41A6842F001021A60244A136899077E
:1015D800FCD5224B9A6822F003029A609A6812F0AE
:1015E8000C0FFBD11D4C236823F0807323606368C4
:1015F80023F440336360636823F0706343F08063CF
:10160800636000F037F8236843F080732360236831
:101618009B01FCD5A36823F0F003A360A36823F023
:10162800030343F00203A3600C4CA36803F00C030C
:10163800082BFAD10B4EB54202D3304600F0F2FB2C
:10164800094B1E60A36823F4E05343F48053A3605E
:10165800A36823F46043A360002070BD00380240F3
:10166800B53F000800D8B8053C0000200048704786
:1016780000127A00054B06495A681140054A0A4388
:101688005A605A6822F440325A6070470038024063
:101698000080BFFF04184000064B1A6C42F08052CD
:1016A8001A641B6C82B003F080530193019B02B053
:1016B800704700BF0038024008B5074801F03FFFF7
:1016C80038B10648FFF77AFE0448FEF763FF0020AA
:1016D80008BD6FF01200FBE70C390008E916000896
:1016E8000A2838B5074D044604D1AB680D215B685C
:1016F80028469847AB6803485B68E1B2984720469C
:1017080038BD00BF0C39000838B503690446586075
:10171800084D284601F013FF40B16168AB680C31F1
:101728001B682846984700EAE07038BD6FF0120041
:10173800FBE700BF04380008F7B51746B7F5001FE8
:10174800466802690C461D4624D101F003020432A2
:1017580092000F23934043EA9103DAB233490232ED
:1017680051F82220190C02EA134391FAA1F2B2FAB5
:1017780082F2D340B2689A4209D12046FFF752FE5E
:101788002046FFF79DFE00212046FFF757FE002068
:1017980003B0F0BDB7F5800F41D025492046FFF7CB
:1017A8007DFE00283ED1234AB66892E803006B46C6
:1017B80083E8030020488268194612689047C0B938
:1017C80004F0030304339B000F229A4042EA940278
:1017D800D3B29B0003F1804303F59C33110C986846
:1017E80020EA124091FAA1F2B2FA82F29640064338
:1017F8009E60B5F1806F0ED0B5F1C06F0DD005F1C8
:101808007E435942594149002046FFF717FE2046BA
:10181800FFF7FAFDBBE70121F6E70321F4E76FF0D4
:101828008500B5E76FF00F00B2E700BF0038014050
:1018380031310008683C0008043800084268116823
:1018480001F1140353E8003F43F0010301F1140CC4
:101858004CE800300028F3D113680E498B4207D0BA
:10186800A1F54C418B4203D001F550418B4203D185
:10187800196941F040011961126802F10C0353E83B
:10188800003F43F4807302F10C0040E80031002966
:10189800F3D17047001001404268116801F1140348
:1018A80053E8003F23F0010301F1140C4CE8003029
:1018B8000028F3D113680E498B4207D0A1F54C419B
:1018C8008B4203D001F550418B4203D1196921F0B5
:1018D80040011961126802F10C0353E8003F23F438
:1018E800807302F10C0040E800310029F3D1704701
:1018F80000100140F7B50769446806463A48786021
:1019080001F01DFE20B96FF01205284603B0F0BDA6
:101918007868616883681B68984705460028F4D191
:10192800014601AAA06901F0BCFD002801DA0546BC
:10193800EBE7019B2A461979186800F003FA00289A
:10194800F5DB2268D36823F40053D360B86801F04C
:10195800F6FD0028D7D0D7E902018368DB6803B118
:101968009847216801F10C0353E8003F43F00C034A
:1019780001F10C0040E80032002AF3D12369022B60
:101988002DD0012B12BF00204FF480504FF4C062BD
:101998002168CB68104323F4B0530343CB600B6931
:1019A80023F440530B61237B2BB173681A68536986
:1019B80043F4407353613968304601F002FD237DDA
:1019C80023B12268536943F0080353612268D3683E
:1019D80043F40053D360E3693046984795E74FF4E2
:1019E80080504FF48062D3E7043800082DE9F041B5
:1019F8000B7945680669012B0C467DD09A1E574223
:101A08005741BF02627994F80680022A96BF4C4972
:101A18004FF4005C31F812C0B8F1040F7BD094F891
:101A280007E0002B6BD1BEF1010F22F002027FD03C
:101A3800002A70D0B8F1020F6DD91946D5F8008088
:101A4800BEF1000F0DD03F4A904507D0A2F54C4299
:101A5800904503D002F5504290455CD1BEF1010F8C
:101A680059D1D8F80C2022F40052C8F80C2042684A
:101A7800D2F800E0DEF80C2002F4C06297421FBFE3
:101A8800DEF80C2022F4C0623A43CEF80C204268FB
:101A980017683A6902F4405294451FBF3A6922F424
:101AA800405242EA0C023A6142681768FA6802F446
:101AB80080529A421FBFFA6822F480521343FB6097
:101AC80043681A68536903F4407399421FBF536906
:101AD80023F440730B43536121683368994203D060
:101AE80001F06FFC236833602A68D36843F400531D
:101AF800D3600020BDE8F0814FF4C06782E7033B64
:101B0800BEF1010FDBB209D1012B04D94FF44071AA
:101B180012F0FD0F06D16FF08500EBE7012BFAD923
:101B28000021F5E7B8F1020FF5D94FF4805385E7A6
:101B3800002AF0D0B8F1020FEDD94FF440717DE7DB
:101B4800503E00080010014010B54FF0E0239A699C
:101B580019699869094B11F4803F094901D18242FA
:101B680006D21A680C6822441A604FF0E022126903
:101B78001B680A681344181A10BD00BF6C040020C3
:101B880078040020094B102283F82320084B42F2E6
:101B98007F521A60074B002018604FF0E0235A610B
:101BA80098611A6942F007021A61704700ED00E077
:101BB800780400206C04002008B5FFF7C5FF0C4B23
:101BC8000C4A186811680844106000221A600A4A12
:101BD80013684FF41651C01AB0FBF1F001FB003343
:101BE800136000F091FFBDE80840FFF7D1B900BFCE
:101BF8006C04002074040020700400202DE9F041DA
:101C0800314E002954D0421C0AD14FF0E02213690A
:101C180023F0010313614FF07F433360BDE8F08187
:101C2800356801284ADD40F2D268404501DC00F100
:101C3800FF384FF01003EFF3118483F31288BFF3DA
:101C48006F8FFFF781FF214F4FF0E0230021D3F87A
:101C580018C03B68C2181E4B19601E4B1B68D11A6E
:101C68002FD44FF4165000FB081101F515519B1A9B
:101C78003F31B1FBF0F100FB0133B3F5806F20D9A0
:101C880015498B4228BF0B464FF0E0213360886925
:101C9800013B4B6100238B618445ACEB000338BFEB
:101CA8005B191A443A6084F31188BFF36F8FB5E764
:101CB800431C3568B5D140F2D260B8E74FF0000850
:101CC800B7E74FF48063DFE778040020740400204E
:101CD8006C0400207004002000C3FF0010B54FF012
:101CE8001003EFF3118483F31288BFF36F8FFFF7AC
:101CF8002BFF074B074A1B6812689B1A034484F39F
:101D08001188BFF36F8F4FF41650B3FBF0F010BD7E
:101D1800740400207004002010B54FF01003EFF396
:101D2800118483F31288BFF36F8FFFF70DFF044B05
:101D38001B68184484F31188BFF36F8F10BD00BF70
:101D4800740400202DE9F0471E4F044600EBC1063D
:101D58000025B44201D1002014E02068C30600F039
:101D68001F0911D4656845F02005C0F3471AC0F370
:101D780043200A2823D857F82080B8F1000F0DD146
:101D88006FF01200BDE8F087B9F1100F04D0B9F177
:101D9800110FEAD16568E8E73025E6E7404601F02B
:101DA800CEFB0028ECD04B462A460AF00F014046ED
:101DB80001F0D1F9002804F10804CADAE2E76FF06B
:101DC8001500DFE7F43D000808B513498B6803F0F8
:101DD8000C03042B1CD0082B1CD14A684B6849689B
:101DE80013F4800314BF0D480D48C1F3881118BFC0
:101DF800002302F03F02A1FB0001FEF7C9F9064BE0
:101E08005B68C3F3014301335B00B0FBF3F008BD2B
:101E18000248FCE70248FAE70038024000127A005C
:101E28000024F400002876D03C4B1A6802F44042A3
:101E3800B2F5404F20D13A4A904215D8394A9042DB
:101E480007D91A6802F44042B2F5004F5CD102206B
:101E58001FE0354A90421A6802F4404247D9B2F569
:101E6800004F4CD1012014E01A6802F44042B2F548
:101E7800004F3FD103200CE01A6802F44042B2F54B
:101E8800004F22D1274A90423ED8274A90422ED965
:101E98000020224B1B68012838BF012003F440436F
:101EA800B3F5804F1FD0214A136823F0070303437B
:101EB8001360136803F0070398421CBF136803F00C
:101EC8000703C01A18BF012070471B6803F440437A
:101ED800B3F5804F0CD1134B98421AD8124B984245
:101EE8004FF00000DFD9012838BF0120DBE71B686D
:101EF8000020D8E71B68032003F44043D0E71B68A1
:101F0800012003F44043CBE71B68022003F440435D
:101F1800C6E70220C7E70120704700BF00700040F5
:101F2800804A5D050090D00380C3C901003C02408F
:101F38000F4B70B553F82040013053F82060A6428B
:101F480000D870BDD4E90035284698476DB138B13E
:101F58000028B8BF4042EB68FF28A8BFFF201870D0
:101F6800EA68537843F0010353700834E7E700BF89
:101F7800383E000808B50A4B012203201A70FFF703
:101F8800D7FF00F04DFE0420FFF7D2FF00F042F922
:101F9800FEF7B2FA034A137B23F00103137308BD5B
:101FA800B10400207802002008B50348034A002144
:101FB800121A01F0F6FA08BD80000020B4040020CF
:101FC80070B5174E174D184986B0A82303FB006655
:101FD800164B059301220F23CDE903320023CDE9E7
:101FE8000133182303FB005504464FF4C07000FB6F
:101FF80004110F4B00954FF4A072304600F09AF888
:10200800737B0C4AEE6023F0040373734FF404638C
:1020180004FB033313442C756B6006B070BD00BF1E
:10202800D00100207C04002080150020C53F000856
:10203800BB350008400D002080B50020B0B0FFF788
:1020480077FF2D4B83F308882C4D2D4F6B6943F494
:1020580000736B610024F02385F82230EC772C762E
:102068006C76AC7685F820406B6A43F4E0236B62AB
:102078004FF0FF36FFF78EF8FEF772FEAE62EE62A3
:10208800FFF76CF9FFF7D0F88DF82C6040F20113D8
:102098001C4EADF8243006ABB360CDE929442C942E
:1020A80001F04CFA0120FFF743FF0220164DFFF71D
:1020B8003FFF00F037FB154BB56105930123144929
:1020C8000094CDE903434FF480623B46CDE90144D7
:1020D800284600F02FF86A7B064622F004022846BC
:1020E8006A7301F0CEFA2046FFF76AFF3A46314696
:1020F8002846FEF723FF00BF8015002000ED00E012
:102108007D1F00087C04002078020020CA3F0008D8
:102118000017002010B5044608B9054B9C681F221B
:1021280004F1680000F00DFE002084F8870010BD5F
:102138007C0400202DE9FF410E9E06730426467399
:102148000D9E8673D61D00F1600501F1400226F050
:102158000706C0E91855C0E9232600250C9A8560B2
:10216800C0E90855C573C0F8945006F140080292BA
:102178000B9A019204460A9A0F9F0092884442469D
:10218800FEF7A8FEE565A7B11F22394604F16800ED
:1021980000F0D7FD84F88750FF232375064B9B6812
:1021A8000BB1D3F89830C4F89830404604B0BDE875
:1021B800F08184F86870EFE77C040020F0B587B000
:1021C80000250595109D04950F9D03950E9D02957C
:1021D800DDE912760D9D01950C9D00950446FFF7EB
:1021E800A9FFB6F1FF3F08BFB7F1FF3F05D056EA98
:1021F800070305D1204600F015FA204607B0F0BDC8
:1022080003493A46334604F1200000F0FFFBF4E7A7
:10221800F7350008F0B5224C224D87B02646AE426D
:1022280004F130040BD300F04DFA1D4C1E4F0A2662
:10223800AC4220D307B0BDE8F04000F057BA54F8DC
:10224800043C059354F8103C049354F8143C03934D
:1022580054F8183C029354F81C3C019354F8203C61
:10226800009354E90A2354E90C01FFF763FF54F87B
:10227800303CDE65D2E7626A531C09D022EAE2727A
:1022880082FB062352EA0301206803D100F0CAF951
:102298003034CDE73946203000F0B8FBF8E700BF0E
:1022A800D43B0008D43B0008F735000838B504468D
:1022B8004FF01003EFF3118583F31288BFF36F8F8C
:1022C80001F0EFF950B10022C0F8A02001F0D9F9CF
:1022D80029460648BDE8384000F092B9D4E90232F0
:1022E8009A4218BF0133A360F2E700BFB20400208E
:1022F80013B54FF01004EFF3118184F31288BFF384
:102308006F8F846844B1013C846081F31188BFF306
:102318006F8F002002B010BD52EA030406D181F38A
:102328001188BFF36F8F6FF00F00F3E7CDE900233B
:102338000246024800F046F9ECE700BFB20400206C
:1023480038B5074D2C6854B1FFF7C8FC054B044459
:102358001C6128680021BDE8384001F0EAB938BDA1
:10236800A80400207C04002038B5124D2B4653F8F1
:102378001C4F9C420BD02A7D012393402A6A34B11A
:10238800217D194204D1A24201D02468F7E7EC6804
:10239800AB6838B95A7BD20604D1226A12B9DA89F5
:1023A8007F2A05D8A34202D02046FFF7C9FF23465B
:1023B800AB6138BD7C04002070B590F90D20437BDB
:1023C800002A014604DA03F07F03437301F0FDF8A5
:1023D8004B7B154A63F07F0310464B7350F81C3F44
:1023E800146A834208BF002323B9C1E900042160AD
:1023F80011620CE091F90E5093F90E60B5420ED0BF
:10240800AE420CDD5868C1E900300160596090683F
:10241800431A5842BDE870405841FFF7A5BF9C4297
:10242800E3D01B68E0E700BF7C04002070B490F99B
:102438000D30427B002B29DBD30627D1036A2BBB47
:10244800134962F07F0242730A4652F81C4F9442C5
:1024580018BF23460C6A23B9C0E90024206008622B
:102468000CE090F90E5093F90E60B5420AD0AE42D6
:1024780008DD5A68C0E900321060586070BC00205E
:10248800FFF772BFA342E7D01B68E4E770BC704750
:102498007C04002008B590F90D20437B002A0146F2
:1024A80004DA03F07F03437301F08FF8044B986854
:1024B800431A58425841BDE80840FFF755BF00BFCE
:1024C8007C04002070B515461C46064601F0B1F89C
:1024D800B4F1FF3F08BFB5F1FF3F08D02A462346B5
:1024E80006F120000249BDE8704000F08FBA70BDC7
:1024F800F735000810B54FF01003EFF3118483F39C
:102508001288BFF36F8F0A23002800FB03F302DD54
:10251800022BB8BF0223074A002010610648036057
:10252800064B90681960FFF70BFF84F31188BFF31F
:102538006F8F10BD7C040020A8040020A404002094
:1025480038B54FF01003EFF3118583F31288BFF30A
:102558006F8F174B174A9C6811688C4207D1204629
:10256800FFF7EEFE85F31188BFF36F8F38BD0021AA
:102578001160114A1268C2B1E2897F2A15D8627BBC
:10258800D20612D10D4A94F90E10126891420CDB52
:102598000B4A944209D01A69824203DC2046FFF7AD
:1025A8000BFFDCE7121A1A61DCE70022FBE700BF29
:1025B8007C040020A0040020A8040020A40400201B
:1025C800D001002070B50C480C4D86682E600C4672
:1025D8001146DDE904234FF01006EFF3118586F369
:1025E8001288BFF36F8F8068FFF76CFF2046BDE845
:1025F8007040FEF717BC00BF7C040020A004002038
:1026080049B9EFF3058030B9054B9A699B689A423E
:1026180001D0FEF707BC81F31188BFF36F8F7047B5
:102628007C04002010B54FF01002EFF3118482F300
:102638001288BFF36F8F427B510704D484F311884B
:10264800BFF36F8F10BD22F004024273FFF7EEFE56
:1026580021460248BDE81040FFF7D2BFB20400206F
:1026680070B50446203001F04EF84FF01003EFF338
:10267800118683F31288BFF36F8F94F90D20637B63
:10268800002A05DA03F07F036373204600F09DFFFC
:102698000B4D637BA86843F010036373031B584218
:1026A8005841FFF761FE86F31188BFF36F8FAB685F
:1026B800A34203D1BDE8704001F01BB870BD00BF54
:1026C8007C0400204FF01003EFF3118183F312888C
:1026D800BFF36F8F044B9A68D37B013BD37381F3AD
:1026E8001188BFF36F8F70477C04002010B54FF03E
:1026F8001003EFF3118483F31288BFF36F8F084B35
:102708009A68D37B0133D3730020FFF72DFE84F33F
:102718001188BFF36F8FBDE8104000F0EABF00BF1B
:102728007C040020044B002103F11C02C3E90722AA
:102738000846FFF7DFBE00BF7C040020F8B54FF065
:102748001003EFF3118583F31288BFF36F8F1949D4
:102758008868437B03F07F03437300F036FF8B6880
:102768005A7B084662F07F025A7350F81C2F0C6A95
:10277800824208BF002222B9C3E9000423600B6229
:102788000CE093F90E6092F90E70BE420ED0B7427B
:102798000CDD5168C3E900210B6053600120FFF78D
:1027A800E3FD2846BDE8F840FEF73CBBA242E3D073
:1027B8001268E0E77C04002050EA01032DE9F041AB
:1027C80005460E4603D1FFF7B9FF00202CE0831C15
:1027D80071F1FF332ADB00F0C8FF2C184FF010030B
:1027E800EFF3118883F31288BFF36F8F114F124BE9
:1027F800B8681860FFF74EFEB86810492A46334695
:10280800203000F003F9BA68537B43F01003537388
:102818004046FEF707FB00F0A8FF201A63EB03030E
:10282800012873F10003D0DBBDE8F0816FF00104EB
:10283800241AD3E77C040020A0040020F735000800
:10284800B1F1FF3F08BFB0F1FF3F08B506D1074B14
:102858009868FFF705FF4FF0FF3008BDFFF7ACFFA2
:102868000A220023C117FDF793FCF6E77C04002039
:10287800014B9868704700BF7C0400202DE9F041A7
:1028880004464FF01003EFF3118683F31288BFF369
:102898006F8F037BD9070BD586F31188BFF36F8F32
:1028A800404080F311884FF0040002DFBDE8F0815A
:1028B800437B1A0704D586F31188BFF36F8FF5E7BA
:1028C80023F0200242F00801D20920D14173A36805
:1028D80013B1204600F081FE04F1200000F013FF40
:1028E80004F160074FF00008256EBD4200D0B5B96D
:1028F8000120FFF739FD104B9B68A342DBD1EFF3B2
:102908000583002BD7D13046FEF78CFAD3E703F0C6
:102918005F0343F00803437300F057FED7E72846E8
:1029280000F05BFE05F1200000F0EDFEC5F8A08088
:102938002846FFF77BFDD7E77C04002008B506484A
:10294800064A0749121A00F02EFEBDE80840054A5B
:102958000549064800F027BE00000020800000203E
:102968001440000800000000144000080000002087
:10297800034B1B680BB9FFF7B1B90020704700BFC4
:10298800AC04002010B5114B1C689C420AD1FFF71B
:10299800EFFF6FF000400E4B1B6913B19842A8BFC0
:1029A800184610BDFFF7E4FF002CF2D0D4E904323A
:1029B8001B1A62EBE072B3F1004F72F10001E8DA22
:1029C800002AACBF18460020E5E700BF4000002001
:1029D8007C04002030B570B10B4B5B6898420AD07C
:1029E800036843B1D3E90421D0E90445121941EB46
:1029F8000501C3E90421D0E9003213605A600023BD
:102A0800C0E9003330BD00BF40000020B3F1FF3FF4
:102A180008BFB2F1FF3FF8B504461D46164661D01F
:102A280081604FF01003EFF3118783F31288BFF32F
:102A38006F8F013275F1FF3324DA3049D1E9002074
:102A48006FF001039B1A4FF0FF3262EB00009E1BF0
:102A580060EB0500012E70F1000301DA0126002069
:102A6800C4E90460264ED6F800C07568B44508BFAE
:102A78004FF0000CBCF1000F0DD1C4E900652C60CB
:102A880074601CE0FFF774FF013645F10005361845
:102A980045EBE070E4E7DCE90420D4E90431934233
:102AA80071EB000E1FDAD21ADCF8043060EB01007B
:102AB800CCE90420C4E900C31C60CCF804403368A6
:102AC800B3420BD09C4209D1FFF75CFF18B10D4B04
:102AD8001B69834202D00021FFF790F887F3118821
:102AE800BFF36F8FF8BD9B1A61EB0001AC45C4E9D9
:102AF8000431C2D0DCF800C0BCE700BF20030020CE
:102B0800400000207C0400202DE9F8430446FFF72C
:102B180017FD4FF01003EFF3118683F31288BFF30C
:102B28006F8F234FDFF88C80D8F80000224A3C6072
:102B38004045D2E9003E4FEAE4710BD050B1D0E9EC
:102B4800045CAC4271EB0C0916DA2D1B6CEB010C22
:102B5800C0E9045CE3184EEB01010024C2E900312E
:102B68003C60FFF70FFF2146FFF748F886F311880E
:102B7800BFF36F8FBDE8F883EB184EEBE571C2E940
:102B8800003100220023C0E90423FFF723FF86F366
:102B98001188BFF36F8F836898474FF01003EFF3E6
:102BA800118683F31288BFF36F8F3C68641BBBE701
:102BB800AC040020400000202003002010B54FF096
:102BC8001003EFF3118483F31288BFF36F8FFFF7BD
:102BD800CFFE064A0346D2E90001181841EBE3711B
:102BE80084F31188BFF36F8F10BD00BF200300204E
:102BF80038B5044678B1FFF78FF805460648074A06
:102C0800A4FB00010023FDF7C3FA0446FFF784F88C
:102C1800431BA342FAD338BD00D8B80540420F0081
:102C2800014800F006B800BFD23F000870470020F6
:102C380070470FB407B504A951F8040B0191FDF7CB
:102C4800AFFC03B05DF804EB04B07047044608B568
:102C5800084611461A46A047FFF70AFEFEF7CEFAC5
:102C68002DE9F84F9A46D3786F2B80460F461546C4
:102C7800A3F1410B29D024D8582B0CBF10260A26C3
:102C8800DDF828903246002340463946FDF780FAA1
:102C9800092AD4B21ED83034B045E4B277F100071F
:102CA80009F8014D01D3D14511D82B789B0605D5DC
:102CB800082E15D1AB7843F00803AB704846BDE841
:102CC800F88F03F0F703702BD7E70826D8E780467C
:102CD8000F46D7E7BBF1190F94BF37345734DBE7FA
:102CE800102EEBD1AB7843F01003E6E72DE9F04165
:102CF8000746884615461E461446B44205D30EB10B
:102D0800601B08E02378002BFAD014F8010B414629
:102D1800B8470028F1DABDE8F08170470020704715
:102D280000F024BC0146006800F020BC002101200E
:102D3800FFF7F6BF08B5FEF74DF8BDE80840FEF707
:102D480027B910B50139034622B91A440021934224
:102D580008D110BD11F8014F002CF6D003F8014B33
:102D6800013AF1E703F8011BF1E7034600201A5C7A
:102D780002B970470130FAE7034600201A5C0AB12D
:102D8800884200D170470130F8E710B5431E0A4465
:102D9800914200D110BD11F8014B03F8014FF7E73C
:102DA800C9B202440346934200D1704703F8011B9D
:102DB800F9E74FF0FF307047002208B511460620AA
:102DC800FDF7F0FF002211460720FDF7EBFF002278
:102DD80011460820FDF7E6FF002211460920FDF7FD
:102DE800E1FF002211460A20FDF7DCFF0022114610
:102DF8001720FDF7D7FF002211462820FDF7D2FF44
:102E0800002211460120FDF7CDFF002211462A209D
:102E1800FDF7C8FF002211460220FDF7C3FF00227C
:102E280011460320FDF7BEFF002008BD02691721E7
:102E38001620FEF7C9BA026916211520FEF7C4BA92
:102E4800026913211220FEF7BFBA0269112110206E
:102E5800FEF7BABA026910210A20FEF7B5BA02696C
:102E68000A210520FEF7B0BA026905210420FEF701
:102E7800ABBA026904210320FEF7A6BA026903214E
:102E88000220FEF7A1BA026902210120FEF79CBACE
:102E9800026901210020FEF797BA0B68A3F13002FE
:102EA800782A9FBF03F1804303F50E3349681A68F7
:102EB8009DBF0A4300201A606FF0850070470B68B9
:102EC800A3F13002782A9FBF03F1804303F50E3344
:102ED80049681A689DBF8A4300201A606FF0850010
:102EE80070470B68022B03D82BB96FF08500704729
:102EF800053B012BF9D84968CBB203F1804303F5B0
:102F08000E33C1F302421868C1F304218A40024318
:102F18001A600020704743685B681B690B600020DB
:102F2800704743685B68586942400A4042405A61AA
:102F38000020704743685B680020996170474368C8
:102F48005B68090499610020704743685A685369AF
:102F58004B4053610020704710B503699868F8B179
:102F6800884219D1DC6808689860A14200D1D8600D
:102F7800002008602AB19A680A60DA68996002B984
:102F8800D960002010E0814206D108682060D86826
:102F98008142EDD1DC60EBE7044600680028F2D1FD
:102FA800002AE8D16FF0150010BDF0B54468012083
:102FB800676888401E46C2F3801327EA00078B40E3
:102FC8003B43636090FAA0F7B7FA87F7D4F808C0D4
:102FD8004FF0030E7F000EFA07F72CEA070C90FA61
:102FE800A0F7B7FA87F7C2F3C1137F00BB4043EAE3
:102FF8000C03A36090FAA0F3B3FA83F3E7685B00CD
:103008000EFA03F327EA030790FAA0F3B3FA83F35F
:1030180002F030055B00C2F341229A403A43202D6A
:10302800E26016D107292BDC90FAA0F3226A2BB3B1
:10303800B3FA83F39B000F2101FA03F322EA030298
:1030480090FAA0F3B3FA83F39B0006FA03F3134351
:10305800236290FAA0F3B3FA83F3226890FAA0F0FF
:103068005B000321B0FA80F02D0901FA03F3400058
:1030780022EA030385401D432560F0BD2B46D9E7AE
:10308800030A616A93FAA3F282B1B2FA82F2920059
:103098000F2793FAA3F3B3FA83F307FA02F29B001C
:1030A80021EA02029E4016436662D2E72A46EEE70C
:1030B80038B5044690030D46134617D591070ED52B
:1030C8005A072ED55022D8060BD542F400721903A0
:1030D8001AD5616801234968AB408B610DE0102265
:1030E800F1E79906F3D542F48062F0E7DA0313D5E5
:1030F800D80613D4C3F340139A0260680023294604
:10310800FFF753FF002038BD5B03F6D50121A94026
:103118002046FFF714FFF0E73022EEE74FF4007285
:10312800EBE76FF08500EEE770B50B46896821B1D3
:1031380001255E680C68854001B970BD8A682A401F
:1031480002D04B68304698471CB1236821461C467C
:10315800F2E72346FAE7F8B51F46044640680E46EC
:103168001546FFF722FF112F07D101212B0501FA80
:1031780006F104D563685B6899610020F8BD2046B4
:10318800FFF7DDFEF9E782B003680193019B43680E
:103198000193019B02B0704708B54368186803683B
:1031A8001A0701D5FFF7EFFF03689B0643BF436883
:1031B8000B7000204FF0FF3008BD10B54068026862
:1031C80013681B06FCD54FF01002EFF3118382F34E
:1031D8001288BFF36F8F02681468240604D483F33F
:1031E8001188BFF36F8FEAE7516083F31188BFF34B
:1031F8006F8F10BD08B541680B681A681868C0075A
:103208001868C2F3C00248BF42F00202800718687B
:1032180048BF42F004024007186848BF42F0200245
:10322800C00542BF6FF4807042F008021860D007F2
:1032380002D50868FFF7A7FF930702D50868FFF7CC
:10324800A2FF500702D50868FFF79DFF930602D535
:103258000868FFF798FF104608BDF0B54668336860
:10326800186810F0800010D04FF01003EFF31187AA
:1032780083F31288BFF36F8F0023DCB2A24220468B
:1032880004DC87F31188BFF36F8FF0BD3568D5F87C
:1032980000C01CF0800F03F10103F2D0085D6860E4
:1032A800EBE770B545680024E0B2824203DD2B6885
:1032B8001E68B60600D470BD5B680B5428680368A6
:1032C8001B0701D5FFF75FFF0134EDE743681A6874
:1032D80002F10C0353E8003F43F0400302F10C00F5
:1032E80040E800310029F3D1704743681A6802F1B9
:1032F8000C0353E8003F23F0400302F10C0040E8C0
:1033080000310029F3D1704743681B68186810F032
:1033180080001CBFD868C0F38010704743681B68E2
:103328001868C0F38010704743681A6802F10C03EC
:1033380053E8003F43F0200302F10C0040E800315D
:103348000029F3D1704743681A6802F10C0353E867
:10335800003F23F0200302F10C0040E8003100296F
:10336800F3D1704743681B681868C0F34010704772
:1033780043681B681A68910602D5DA68920607D472
:10338800186810F0400004D0D868C0F38010704767
:1033980001207047012070470369C3E90412704790
:1033A800026913690BB151691847704708B50022C3
:1033B80026201146FDF7F6FCBDE808402620FDF75B
:1033C800E3BC37B50369446858688368DB680D4611
:1033D8006168F3B101AA984700281ADB22680198AE
:1033E800D368192123F40043D360A0FB0101AA008C
:1033F800AB0FFCF7CDFE6422B0FBF2F102FB110328
:103408001B0124683233B3FBF2F303EB01139BB2C5
:10341800A36003B030BD03691B680B6043681B6879
:10342800DB6803F4C063B3F5806F2FD0A3F5C06CDD
:10343800DCF1000343EB0C030B7143681B681B6949
:1034480003F44053B3F5805F22D0B3F5405F21D039
:10345800002B0CBF012303234B7143681B68DA68F8
:10346800DB68D20403F4C06316D5002B14BF032312
:1034780004238B7143681B685B6903F44073A3F5ED
:10348800407253425341CB71002070470223D3E767
:103498000023E1E70223DFE7002B14BF0223032305
:1034A800E7E730B5036813600579046804EBC504E1
:1034B800A34202D36FF0010030BD5C798C4201D089
:1034C8000833F0E70020F7E74368C1F34B101B68A7
:1034D80001F01F01C05801238B40034214BF012390
:1034E800002313700020704710B54368C1F34B10D8
:1034F8001A6801F01F01845801238B40234383502D
:10350800002010BD10B54368C1F34B14186801F0D2
:103518001F01235801228A4023EA02032350002076
:1035280010BD38B504460D46FFF7DEFF2946204694
:10353800FFF7E8FF002038BD00207047704740B112
:10354800C368587810F001001EBF1878B0FA80F0F0
:10355800400970474FF01002EFF3118382F312888D
:10356800BFF36F8FFEE708B5FFF7F4FFF8B5054620
:103578000E464FF01003EFF3118783F31288BFF361
:103588006F8FFFF775F9314604462846FFF7EBFFC2
:1035980087F31188BFF36F8F2046BDE8F840FDF729
:1035A8002DBEFFF7FDBBFFF7F0BB68307047FFF794
:1035B80039B808B54FF01002EFF3118382F312887F
:1035C800BFF36F8FFDF7D2FBF4E7D0E90032136049
:1035D8005A600023C0E90033704708B5FFF7F5FFCC
:1035E800437B23F0020343730023836008BD10B5B7
:1035F80001464FF01003EFF3118483F31288BFF3F1
:103608006F8F10F8133C13F0280F0DD151F8183CA8
:1036180020380BB1FFF7E1FF11F8133C23F0140336
:1036280001F8133CFEF702FF84F31188BFF36F8F94
:1036380010BD38B504460D46FEF72CFF637B43F0FA
:1036480002036373E5B1A5602B689D4209D16B68DD
:10365800C4E900531C606C6012E06A689342F6D0BB
:103668001B68002BF3D094F90E2093F90E108A42B0
:10367800F3D09142F1DD5A68C4E9003214605C600D
:1036880038BD10B54FF01003EFF3118483F312889F
:10369800BFF36F8FFEF7CAFE84F31188BFF36F8FF5
:1036A80010BD38B54FF01003EFF3118583F312887E
:1036B800BFF36F8F0468A0420DD034B12046FFF7E6
:1036C8008CFF04F1200000F01EF885F31188BFF389
:1036D8006F8F204638BD0024F7E7034620B9EFF383
:1036E80005820AB9FDF79EBB83F31188BFF36F8F7C
:1036F80070474FF01003EFF3118083F31288BFF384
:103708006F8FFFF7EABF10B54FF01002EFF3118487
:1037180082F31288BFF36F8F03683BB1FFF75AF942
:10372800002084F31188BFF36F8F10BD6FF0150070
:10373800F7E770B504460D464FF01003EFF3118616
:1037480083F31288BFF36F8FFFF71CF9012807DD99
:10375800A04205DBA0422946A8BF2046FEF74EFA44
:1037680086F31188BFF36F8F70BD08B5FFF726FA8F
:0437780008BD000088
:08377C0050CAFF7F01000000AC
:10378400290D000800000000252D0008000000009D
:103794006915000804380008C12D00081C38000809
:1037A4001117000834380008111700084C380008B5
:1037B4001117000864380008111700087C38000845
:1037C400111700089438000811170008AC380008D5
:1037D40011170008C438000811170008DC38000865
:1037E40041350008F4380008FD1800080C390008B9
:1037F400C1160008000000008D1B00080000000036
:103804000C3F000800000000080000204A000020CF
:10381400000000002E3C0008D73E00080000000015
:10382400000000004800002034030020283C000869
:10383400193F00089C3C00083C3D00084C00002057
:10384400EC030020203C0008273F0008B03C00089F
:103854003C3D00084E000020FC030020183C0008FA
:10386400353F0008C43C00083C3D000850000020DF
:103874000C040020103C0008433F0008D83C00081A
:103884003C3D0008520000201C040020083C0008B5
:10389400513F0008EC3C00083C3D00085400002067
:1038A4002C040020003C00085F3F0008003D000895
:1038B4003C3D0008560000203C040020F83B000872
:1038C4006D3F0008143D00083C3D000858000020EE
:1038D4004C040020F03B00087B3F0008283D000812
:1038E4003C3D00085A0000205C040020E83B00082E
:1038F400A43F0008203E0008243E00085E0000208B
:1039040000000000DE3B0008893F0008603D00081D
:10391400A83D00085C00002024000020D43B0008DF
:1039240000000000352D00081C380008532E000844
:103934001C3800083F2E00081C380008352E0008EB
:1039440000000000352D000800000000352D00089F
:103954001C380008992E00081C3800088F2E000817
:103964001C380008852E00081C3800087B2E00082F
:103974001C380008712E000800000000352D0008D6
:1039840000000000352D000800000000352D00085F
:1039940000000000352D000800000000352D00084F
:1039A40000000000352D000800000000352D00083F
:1039B40000000000352D000800000000352D00082F
:1039C40000000000352D000800000000352D00081F
:1039D40000000000352D00081C380008672E000880
:1039E40000000000352D000800000000352D0008FF
:1039F40000000000352D000800000000352D0008EF
:103A040000000000352D000800000000352D0008DE
:103A140000000000352D000800000000352D0008CE
:103A240000000000352D000800000000352D0008BE
:103A340000000000352D000800000000352D0008AE
:103A440000000000352D000800000000352D00089E
:103A54000C390008A933000800000000352D0008C7
:103A64001C3800085D2E000800000000352D0008F9
:103A74001C380008492E000800000000352D0008FD
:103A840000000000352D000800000000352D00085E
:103A940000000000352D000800000000352D00084E
:103AA40000000000352D000800000000352D00083E
:103AB40000000000352D000800000000352D00082E
:103AC40000000000352D000800000000352D00081E
:103AD40000000000352D000800000000352D00080E
:103AE40000000000352D000800000000352D0008FE
:103AF40000000000352D000800000000352D0008EE
:103B040000000000352D000800000000352D0008DD
:103B140000000000352D000800000000352D0008CD
:103B240000000000352D000800000000352D0008BD
:103B340000000000352D000800000000352D0008AD
:103B440000000000352D000800000000352D00089D
:103B540000000000352D000800000000352D00088D
:103B640000000000352D000800000000352D00087D
:103B740000000000352D000800000000352D00086D
:103B840000000000352D000800000000352D00085D
:103B940000000000352D000800000000352D00084D
:103BA40000000000352D000800000000352D00083D
:103BB40000000000352D000800000000352D00082D
:103BC40000000000352D000800000000352D00081D
:103BD40001000B0000800080FF7F01000080008056
:103BE4000C00FF7F010000800080FF7F0100008047
:103BF4000080FF7F010000800080FF7F01000080C3
:103C04000080FF7F010000800080FF7F01000080B2
:103C14000080FF7F010000800080FF7F01000080A2
:103C24000080FF7F00800080FF7F00800080030011
:103C34000400050006000700080009000A000B0044
:043C44000C00FF7FF2
:103C4800AD3E000800000000C43E0008000000006F
:103C5800CF3F000800000000993F00080000000066
:103C680044000000004000000000002000000000A8
:103C780000000B0602000000843C00080000000859
:103C8800C83E00082400020700000020D03E0008BB
:103C980020000B11FFFF0000001C0240070000007D
:103CA8003000000080000000FFFF00000018024004
:103CB800060000003000000040000000FFFF000088
:103CC8000014024005000000300000002000000041
:103CD800FFFF000000100240040000003000000058
:103CE80010000000FFFF0000000C0240030000006D
:103CF8003000000008000000FFFF0000000802403C
:103D0800020000003000000004000000FFFF000077
:103D18000004024001000000300000000200000022
:103D2800FFFF00000000024000000000300000001B
:103D380001000000B93000081F2F00082B2F0008D1
:103D48003D2F0008472F0008532F0008411700088F
:103D5800612F00080000000000440040803D00087A
:103D6800010000000000000000000000000000004A
:103D7800883D0008B533000840000000000002003C
:103D8800903D000801000000983D00080200000076
:103D9800470000000002000067000000000000006B
:103DA800A1310008C3310008FD310008F5190008E9
:103DB8001F34000863320008AB320008D53200080F
:103DC800F332000811330008313300084F3300087C
:103DD800253300086D33000845180008A1180008AD
:103DE800793300089D330008A1330008DC38000847
:103DF800C4380008AC380008943800087C3800083B
:103E0800643800084C380008343800080000000006
:103E1800000000000000000000380240D134000813
:103E2800F13400080D3500082B350008F5FFFFFFB9
:103E38008437000884370008FC3700080438000875
:103E480004380008043800080010000000307374BB
:103E58006D333266343131655F646973636F002591
:103E6800733A2048656C6C6F20576F726C642066DB
:103E7800726F6D20637075202564206F6E20257326
:103E8800210A007468726561645F61007468726514
:103E980061645F620074687265616441007468728D
:103EA800656164420063627072696E74665F706116
:103EB800636B61676500286E696C29006D70750019
:103EC800464C4153485F30005352414D5F300069C2
:103ED8006E746572727570742D636F6E74726F6C28
:103EE8006C65724034303031336330300006070877
:103EF800090A171717171728282828282801FF2A1A
:103F0800FFFF02037263634034303032333830309D
:103F1800006770696F403430303231633030006789
:103F280070696F4034303032313830300067706932
:103F38006F403430303231343030006770696F4050
:103F48003430303231303030006770696F4034308F
:103F5800303230633030006770696F40343030324F
:103F680030383030006770696F4034303032303468
:103F78003030006770696F40343030323030303064
:103F88000073657269616C403430303034343030DD
:103F980000756172745F73746D3332007265736596
:103FA800742D636F6E74726F6C6C65720000000024
:103FB8000000000000010203040607080969646C98
:103FC80065006D61696E006F73002A2A2A20426FAE
:103FD8006F74696E67205A6570687972204F532034
:103FE8006275696C64207A65706879722D76332EF3
:103FF800322E302D333039382D67646434363866C4
:0C400800633236313864202A2A2A0A006C
:10401400372C0008BB2D0008A32E0008C72E00086B
:1040240000000000DD140008000000000000000093
:10403400EB2E000800C2010000000000F438000864
:104044001104000000000000000000000024F4003F
:084054004000002040000020A4
:10405C000000000000000000000000000000000054
:08406C0000000000000000004C
:10407400600000206000002001000000010000003A
:10408400700000207000002000000000010000000B
:0440940015E015E03E
:04000005080011D905
:00000001FF
